{
  "contractName": "ChainlinkEthUsd",
  "abi": [
    {
      "inputs": [],
      "stateMutability": "nonpayable",
      "type": "constructor"
    },
    {
      "inputs": [],
      "name": "getLatestPrice",
      "outputs": [
        {
          "internalType": "int256",
          "name": "",
          "type": "int256"
        }
      ],
      "stateMutability": "view",
      "type": "function",
      "constant": true
    }
  ],
  "bytecode": "0x608060405234801561001057600080fd5b5073d4a33860578de61dbabdc8bfdb98fd742fa7028e6000806101000a81548173ffffffffffffffffffffffffffffffffffffffff021916908373ffffffffffffffffffffffffffffffffffffffff16021790555061027b806100746000396000f3fe608060405234801561001057600080fd5b506004361061002b5760003560e01c80638e15f47314610030575b600080fd5b61003861004e565b6040516100459190610106565b60405180910390f35b60008060008054906101000a900473ffffffffffffffffffffffffffffffffffffffff1673ffffffffffffffffffffffffffffffffffffffff1663feaf968c6040518163ffffffff1660e01b815260040160a060405180830381865afa1580156100bc573d6000803e3d6000fd5b505050506040513d601f19601f820116820180604052508101906100e091906101ca565b5050509150508091505090565b6000819050919050565b610100816100ed565b82525050565b600060208201905061011b60008301846100f7565b92915050565b600080fd5b600069ffffffffffffffffffff82169050919050565b61014581610126565b811461015057600080fd5b50565b6000815190506101628161013c565b92915050565b610171816100ed565b811461017c57600080fd5b50565b60008151905061018e81610168565b92915050565b6000819050919050565b6101a781610194565b81146101b257600080fd5b50565b6000815190506101c48161019e565b92915050565b600080600080600060a086880312156101e6576101e5610121565b5b60006101f488828901610153565b95505060206102058882890161017f565b9450506040610216888289016101b5565b9350506060610227888289016101b5565b925050608061023888828901610153565b915050929550929590935056fea26469706673582212209d3cc3154f3dafc0ea28966b5ba805074a910151a66f7850187cd62eb3574b7364736f6c63430008120033",
  "immutableReferences": {},
  "source": "// SPDX-License-Identifier: MIT \npragma solidity ^0.8.17; \n\nimport \"@chainlink/contracts/src/v0.8/interfaces/AggregatorV3Interface.sol\"; \n\ncontract ChainlinkEthUsd {   \n\n\tAggregatorV3Interface internal priceFeed;   \n\n\t/** * Network: Goerli \n\t* Aggregator: ETH/USD \n\t* Address: 0xD4a33860578De61DBAbDc8BFdb98FD742fA7028e */   \n\n\tconstructor() { \n\n\t\tpriceFeed = AggregatorV3Interface(0xD4a33860578De61DBAbDc8BFdb98FD742fA7028e); \n\n\t}   /** * Returns the latest price */   \n\n\tfunction getLatestPrice() public view returns (int) {         \n\n\t\t( /*uint80 roundID*/, int price, /*uint startedAt*/, /*uint timeStamp*/, /*uint80 answeredInRound*/ )     \n\n\t\t= priceFeed.latestRoundData();         \n\n\t\treturn price;       \n\n\t\t}  \n\n}\n",
  "sourcePath": "/opt/code/projet/truffle/contracts/ChainlinkEthUsd.sol",
  "compiler": {
    "name": "solc",
    "version": "0.8.18+commit.87f61d96.Emscripten.clang"
  },
  "schemaVersion": "3.4.13",
  "updatedAt": "2023-04-10T11:54:29.217Z",
  "networkType": "ethereum",
  "devdoc": {
    "kind": "dev",
    "methods": {},
    "version": 1
  },
  "userdoc": {
    "kind": "user",
    "methods": {
      "constructor": {
        "notice": "* Network: Goerli  Aggregator: ETH/USD  Address: 0xD4a33860578De61DBAbDc8BFdb98FD742fA7028e "
      },
      "getLatestPrice()": {
        "notice": "* Returns the latest price "
      }
    },
    "version": 1
  }
}