{
  "contractName": "MyDeFiProject",
  "abi": [
    {
      "inputs": [],
      "name": "USDC",
      "outputs": [
        {
          "internalType": "address",
          "name": "",
          "type": "address"
        }
      ],
      "stateMutability": "view",
      "type": "function"
    },
    {
      "inputs": [],
      "name": "WETH9",
      "outputs": [
        {
          "internalType": "address",
          "name": "",
          "type": "address"
        }
      ],
      "stateMutability": "view",
      "type": "function"
    },
    {
      "inputs": [],
      "name": "poolFee",
      "outputs": [
        {
          "internalType": "uint24",
          "name": "",
          "type": "uint24"
        }
      ],
      "stateMutability": "view",
      "type": "function"
    },
    {
      "inputs": [],
      "name": "swapRouter",
      "outputs": [
        {
          "internalType": "contract ISwapRouter",
          "name": "",
          "type": "address"
        }
      ],
      "stateMutability": "view",
      "type": "function"
    },
    {
      "stateMutability": "payable",
      "type": "receive"
    },
    {
      "inputs": [
        {
          "internalType": "uint256",
          "name": "amountIn",
          "type": "uint256"
        },
        {
          "internalType": "address",
          "name": "_token",
          "type": "address"
        }
      ],
      "name": "swapExactInputSingle",
      "outputs": [],
      "stateMutability": "nonpayable",
      "type": "function"
    },
    {
      "inputs": [
        {
          "internalType": "uint256",
          "name": "amount",
          "type": "uint256"
        }
      ],
      "name": "convertWethToEth",
      "outputs": [],
      "stateMutability": "nonpayable",
      "type": "function"
    },
    {
      "inputs": [
        {
          "internalType": "address",
          "name": "_to",
          "type": "address"
        },
        {
          "internalType": "uint256",
          "name": "amount",
          "type": "uint256"
        }
      ],
      "name": "sendEthTo",
      "outputs": [],
      "stateMutability": "nonpayable",
      "type": "function"
    },
    {
      "inputs": [],
      "name": "getWethBalance",
      "outputs": [
        {
          "internalType": "uint256",
          "name": "",
          "type": "uint256"
        }
      ],
      "stateMutability": "view",
      "type": "function"
    },
    {
      "inputs": [
        {
          "internalType": "address",
          "name": "_inputToken",
          "type": "address"
        },
        {
          "internalType": "uint256",
          "name": "amountIn",
          "type": "uint256"
        }
      ],
      "name": "swapExactInputEth",
      "outputs": [],
      "stateMutability": "nonpayable",
      "type": "function"
    },
    {
      "inputs": [],
      "name": "getContractEthBalance",
      "outputs": [
        {
          "internalType": "uint256",
          "name": "",
          "type": "uint256"
        }
      ],
      "stateMutability": "view",
      "type": "function"
    },
    {
      "inputs": [
        {
          "internalType": "uint256",
          "name": "usdcAmount",
          "type": "uint256"
        }
      ],
      "name": "swapUSDCtoETH",
      "outputs": [],
      "stateMutability": "nonpayable",
      "type": "function"
    }
  ],
  "bytecode": "0x608060405234801561001057600080fd5b50611068806100206000396000f3fe6080604052600436106100a05760003560e01c8063793ea8d111610064578063793ea8d11461017f57806389a30271146101a85780639dd58b58146101d3578063c31c9c07146101fe578063d3fbdd9c14610229578063fe95b2a514610252576100a7565b8063089fe6aa146100ac57806318b67a36146100d7578063370778dc146101005780634aa4a4fc146101295780634de57d7514610154576100a7565b366100a757005b600080fd5b3480156100b857600080fd5b506100c161027b565b6040516100ce9190610ad3565b60405180910390f35b3480156100e357600080fd5b506100fe60048036038101906100f99190610b29565b610281565b005b34801561010c57600080fd5b5061012760048036038101906101229190610bb4565b6103e0565b005b34801561013557600080fd5b5061013e6104d4565b60405161014b9190610c03565b60405180910390f35b34801561016057600080fd5b506101696104ec565b6040516101769190610c2d565b60405180910390f35b34801561018b57600080fd5b506101a660048036038101906101a19190610c48565b6104f4565b005b3480156101b457600080fd5b506101bd610751565b6040516101ca9190610c03565b60405180910390f35b3480156101df57600080fd5b506101e8610769565b6040516101f59190610c2d565b60405180910390f35b34801561020a57600080fd5b506102136107fe565b6040516102209190610ce7565b60405180910390f35b34801561023557600080fd5b50610250600480360381019061024b9190610bb4565b610816565b005b34801561025e57600080fd5b5061027960048036038101906102749190610b29565b610a73565b005b610bb881565b8061028a610769565b10156102cb576040517f08c379a00000000000000000000000000000000000000000000000000000000081526004016102c290610d5f565b60405180910390fd5b73b4fbf271143f4fbf7b91a5ded31805e42b2208d673ffffffffffffffffffffffffffffffffffffffff1663095ea7b330836040518363ffffffff1660e01b815260040161031a929190610d7f565b6020604051808303816000875af1158015610339573d6000803e3d6000fd5b505050506040513d601f19601f8201168201806040525081019061035d9190610de0565b5073b4fbf271143f4fbf7b91a5ded31805e42b2208d673ffffffffffffffffffffffffffffffffffffffff16632e1a7d4d826040518263ffffffff1660e01b81526004016103ab9190610c2d565b600060405180830381600087803b1580156103c557600080fd5b505af11580156103d9573d6000803e3d6000fd5b5050505050565b80471015610423576040517f08c379a000000000000000000000000000000000000000000000000000000000815260040161041a90610d5f565b60405180910390fd5b60008273ffffffffffffffffffffffffffffffffffffffff168260405161044990610e3e565b60006040518083038185875af1925050503d8060008114610486576040519150601f19603f3d011682016040523d82523d6000602084013e61048b565b606091505b50509050806104cf576040517f08c379a00000000000000000000000000000000000000000000000000000000081526004016104c690610e9f565b60405180910390fd5b505050565b73b4fbf271143f4fbf7b91a5ded31805e42b2208d681565b600047905090565b8073ffffffffffffffffffffffffffffffffffffffff166323b872dd3330856040518463ffffffff1660e01b815260040161053193929190610ebf565b6020604051808303816000875af1158015610550573d6000803e3d6000fd5b505050506040513d601f19601f820116820180604052508101906105749190610de0565b508073ffffffffffffffffffffffffffffffffffffffff1663095ea7b373e592427a0aece92de3edee1f18e0157c05861564846040518363ffffffff1660e01b81526004016105c4929190610d7f565b6020604051808303816000875af11580156105e3573d6000803e3d6000fd5b505050506040513d601f19601f820116820180604052508101906106079190610de0565b5060006040518061010001604052808373ffffffffffffffffffffffffffffffffffffffff16815260200173b4fbf271143f4fbf7b91a5ded31805e42b2208d673ffffffffffffffffffffffffffffffffffffffff168152602001610bb862ffffff1681526020013373ffffffffffffffffffffffffffffffffffffffff16815260200142815260200184815260200160008152602001600073ffffffffffffffffffffffffffffffffffffffff16815250905073e592427a0aece92de3edee1f18e0157c0586156473ffffffffffffffffffffffffffffffffffffffff1663414bf389826040518263ffffffff1660e01b81526004016107089190610fd4565b6020604051808303816000875af1158015610727573d6000803e3d6000fd5b505050506040513d601f19601f8201168201806040525081019061074b9190611005565b50505050565b7307865c6e87b9f70255377e024ace6630c1eaa37f81565b600073b4fbf271143f4fbf7b91a5ded31805e42b2208d673ffffffffffffffffffffffffffffffffffffffff166370a08231306040518263ffffffff1660e01b81526004016107b89190610c03565b602060405180830381865afa1580156107d5573d6000803e3d6000fd5b505050506040513d601f19601f820116820180604052508101906107f99190611005565b905090565b73e592427a0aece92de3edee1f18e0157c0586156481565b8173ffffffffffffffffffffffffffffffffffffffff166323b872dd3330846040518463ffffffff1660e01b815260040161085393929190610ebf565b6020604051808303816000875af1158015610872573d6000803e3d6000fd5b505050506040513d601f19601f820116820180604052508101906108969190610de0565b508173ffffffffffffffffffffffffffffffffffffffff1663095ea7b373e592427a0aece92de3edee1f18e0157c05861564836040518363ffffffff1660e01b81526004016108e6929190610d7f565b6020604051808303816000875af1158015610905573d6000803e3d6000fd5b505050506040513d601f19601f820116820180604052508101906109299190610de0565b5060006040518061010001604052808473ffffffffffffffffffffffffffffffffffffffff16815260200173b4fbf271143f4fbf7b91a5ded31805e42b2208d673ffffffffffffffffffffffffffffffffffffffff168152602001610bb862ffffff1681526020013073ffffffffffffffffffffffffffffffffffffffff16815260200142815260200183815260200160008152602001600073ffffffffffffffffffffffffffffffffffffffff16815250905073e592427a0aece92de3edee1f18e0157c0586156473ffffffffffffffffffffffffffffffffffffffff1663414bf389826040518263ffffffff1660e01b8152600401610a2a9190610fd4565b6020604051808303816000875af1158015610a49573d6000803e3d6000fd5b505050506040513d601f19601f82011682018060405250810190610a6d9190611005565b50505050565b610a917307865c6e87b9f70255377e024ace6630c1eaa37f82610816565b610aa1610a9c610769565b610281565b610ab233610aad6104ec565b6103e0565b50565b600062ffffff82169050919050565b610acd81610ab5565b82525050565b6000602082019050610ae86000830184610ac4565b92915050565b600080fd5b6000819050919050565b610b0681610af3565b8114610b1157600080fd5b50565b600081359050610b2381610afd565b92915050565b600060208284031215610b3f57610b3e610aee565b5b6000610b4d84828501610b14565b91505092915050565b600073ffffffffffffffffffffffffffffffffffffffff82169050919050565b6000610b8182610b56565b9050919050565b610b9181610b76565b8114610b9c57600080fd5b50565b600081359050610bae81610b88565b92915050565b60008060408385031215610bcb57610bca610aee565b5b6000610bd985828601610b9f565b9250506020610bea85828601610b14565b9150509250929050565b610bfd81610b76565b82525050565b6000602082019050610c186000830184610bf4565b92915050565b610c2781610af3565b82525050565b6000602082019050610c426000830184610c1e565b92915050565b60008060408385031215610c5f57610c5e610aee565b5b6000610c6d85828601610b14565b9250506020610c7e85828601610b9f565b9150509250929050565b6000819050919050565b6000610cad610ca8610ca384610b56565b610c88565b610b56565b9050919050565b6000610cbf82610c92565b9050919050565b6000610cd182610cb4565b9050919050565b610ce181610cc6565b82525050565b6000602082019050610cfc6000830184610cd8565b92915050565b600082825260208201905092915050565b7f796f752068617665206e6f206d6f6e6e65790000000000000000000000000000600082015250565b6000610d49601283610d02565b9150610d5482610d13565b602082019050919050565b60006020820190508181036000830152610d7881610d3c565b9050919050565b6000604082019050610d946000830185610bf4565b610da16020830184610c1e565b9392505050565b60008115159050919050565b610dbd81610da8565b8114610dc857600080fd5b50565b600081519050610dda81610db4565b92915050565b600060208284031215610df657610df5610aee565b5b6000610e0484828501610dcb565b91505092915050565b600081905092915050565b50565b6000610e28600083610e0d565b9150610e3382610e18565b600082019050919050565b6000610e4982610e1b565b9150819050919050565b7f5472616e73666572206661696c65642e00000000000000000000000000000000600082015250565b6000610e89601083610d02565b9150610e9482610e53565b602082019050919050565b60006020820190508181036000830152610eb881610e7c565b9050919050565b6000606082019050610ed46000830186610bf4565b610ee16020830185610bf4565b610eee6040830184610c1e565b949350505050565b610eff81610b76565b82525050565b610f0e81610ab5565b82525050565b610f1d81610af3565b82525050565b610f2c81610b56565b82525050565b61010082016000820151610f496000850182610ef6565b506020820151610f5c6020850182610ef6565b506040820151610f6f6040850182610f05565b506060820151610f826060850182610ef6565b506080820151610f956080850182610f14565b5060a0820151610fa860a0850182610f14565b5060c0820151610fbb60c0850182610f14565b5060e0820151610fce60e0850182610f23565b50505050565b600061010082019050610fea6000830184610f32565b92915050565b600081519050610fff81610afd565b92915050565b60006020828403121561101b5761101a610aee565b5b600061102984828501610ff0565b9150509291505056fea2646970667358221220fb0f43c4b051f5a63138fd04f301980f6bb96ac655cc608d5329e98ae4fc938364736f6c63430008120033",
  "immutableReferences": {},
  "source": "// SPDX-License-Identifier: GPL-3.0\n\npragma solidity 0.8.18;\n\n/*\nEtape 0, prparer toutes les addresses a dispo et les mettre dans les bons champs du contrat\nhttps://docs.uniswap.org/contracts/v3/reference/deployments\nrouteur: 0xE592427A0AEce92De3Edee1F18E0157C05861564\nLink token: 0x326C977E6efc84E512bB9C30f76E30c160eD06FB\nusdc : 0x07865c6E87B9F70255377e024ace6630C1Eaa37F\nWeth9: 0xB4FBF271143F4FBf7B91A5ded31805e42b2208d6\n(je prends le link par simplicit: j'en ai, une pool existe, et on est sur de l'addresse, c'est chainlink qui le file)\n*/\n \ninterface IERC20 {\n    function transferFrom(address sender, address recipient, uint256 amount) external returns (bool);\n    function approve(address spender, uint256 amount) external returns (bool);\n    function transfer(address to, uint256 amount) external returns (bool);\n    function balanceOf(address account) external view returns (uint256);\n    function allowance(address owner, address spender) external view returns (uint256);\n}\n\ninterface IWETH {\n    function withdraw(uint256 amount) external;\n}\n \ninterface ISwapRouter {\n    struct ExactInputSingleParams {\n        address tokenIn;\n        address tokenOut;\n        uint24 fee;\n        address recipient;\n        uint256 deadline;\n        uint256 amountIn;\n        uint256 amountOutMinimum;\n        uint160 sqrtPriceLimitX96;\n    }\n \n    /// @notice Swaps `amountIn` of one token for as much as possible of another token\n    /// @param params The parameters necessary for the swap, encoded as `ExactInputSingleParams` in calldata\n    /// @return amountOut The amount of the received token\n    function exactInputSingle(ExactInputSingleParams calldata params) external payable returns (uint256 amountOut);\n}\n\ncontract MyDeFiProject {\n    // ISwapRouter public immutable swapRouter;\n    ISwapRouter public constant swapRouter = ISwapRouter(0xE592427A0AEce92De3Edee1F18E0157C05861564);\n\n \n    address public constant WETH9 = 0xB4FBF271143F4FBf7B91A5ded31805e42b2208d6;\n    address public constant USDC = 0x07865c6E87B9F70255377e024ace6630C1Eaa37F;\n\n\n    // Pour cet exemple, on va prendre des frais de pool  0.3%\n    uint24 public constant poolFee = 3000;\n\n \n    // constructor(ISwapRouter _swapRouter) {\n    //     swapRouter = _swapRouter;\n    // }\n \n    function swapExactInputSingle(uint256 amountIn, address _token) external {\n \n        // Transfert des tokens en question au smart contract ! Il faut penser  approve ce transfert avant lutilisation de cette fonction \n        IERC20(_token).transferFrom(msg.sender, address(this), amountIn);\n \n        // autoriser uniswap  utiliser nos tokens\n        IERC20(_token).approve(address(swapRouter), amountIn);\n        \n        //Creation des paramtres pour l'appel du swap\n        ISwapRouter.ExactInputSingleParams memory params =\n            ISwapRouter.ExactInputSingleParams({\n                tokenIn: _token,\n                tokenOut: WETH9,\n                fee: poolFee,\n                recipient: msg.sender,\n                deadline: block.timestamp,\n                amountIn: amountIn,\n                amountOutMinimum: 0,\n                sqrtPriceLimitX96: 0\n            });\n \n        // effectuer le swap, ETH sera transfrer directement au msg.sender\n        swapRouter.exactInputSingle(params);\n    }\n\n\n    function convertWethToEth(uint256 amount) public {\n        require(getWethBalance()>=amount, \"you have no monney\");\n        IERC20(WETH9).approve(address(this), amount);\n        IWETH(WETH9).withdraw(amount);\n    }\n\n    function sendEthTo(address _to, uint256 amount) public {\n        require(address(this).balance>=amount, \"you have no monney\");\n        (bool success, ) = _to.call{value: amount}(\"\");\n        require(success, \"Transfer failed.\");\n    }\n\n    function getWethBalance() public view returns(uint) {\n        return IERC20(WETH9).balanceOf(address(this));\n    }\n\n    function swapExactInputEth(address _inputToken, uint256 amountIn) public {\n \n        // Transfert des tokens en question au smart contract ! Il faut penser  approve ce transfert avant lutilisation de cette fonction \n        IERC20(_inputToken).transferFrom(msg.sender, address(this), amountIn);\n \n        // autoriser uniswap  utiliser nos tokens\n        IERC20(_inputToken).approve(address(swapRouter), amountIn);\n        \n        //Creation des paramtres pour l'appel du swap\n        ISwapRouter.ExactInputSingleParams memory params =\n            ISwapRouter.ExactInputSingleParams({\n                tokenIn: _inputToken,\n                tokenOut: WETH9,\n                fee: poolFee,\n                recipient: address(this),\n                deadline: block.timestamp,\n                amountIn: amountIn,\n                amountOutMinimum: 0,\n                sqrtPriceLimitX96: 0\n            });\n \n        // effectuer le swap, WETH sera transfr au smart contract\n        swapRouter.exactInputSingle(params);\n\n    }\n\n    // Fonction pour vrifier le solde du contrat\n    function getContractEthBalance() public view returns (uint256) {\n        return address(this).balance;\n    }\n\n    function swapUSDCtoETH(uint usdcAmount) external {\n\n        // USDC TO WETH9\n        swapExactInputEth(USDC, usdcAmount);\n\n        // USDC TO ETH (on smart contract)\n        convertWethToEth(getWethBalance());\n        \n        // ETH IN YOUR WALLET\n        sendEthTo(msg.sender, getContractEthBalance());\n    }\n\n    receive() external payable {\n\n    }\n\n}\n",
  "sourcePath": "/opt/code/projet/truffle/contracts/swap.sol",
  "compiler": {
    "name": "solc",
    "version": "0.8.18+commit.87f61d96.Emscripten.clang"
  },
  "schemaVersion": "3.4.13",
  "updatedAt": "2023-04-03T09:17:56.970Z",
  "devdoc": {
    "kind": "dev",
    "methods": {},
    "version": 1
  },
  "userdoc": {
    "kind": "user",
    "methods": {},
    "version": 1
  }
}