{
  "contractName": "StackNDCA",
  "abi": [
    {
      "inputs": [],
      "stateMutability": "nonpayable",
      "type": "constructor"
    },
    {
      "anonymous": false,
      "inputs": [
        {
          "indexed": true,
          "internalType": "address",
          "name": "user",
          "type": "address"
        },
        {
          "indexed": false,
          "internalType": "uint256",
          "name": "amount",
          "type": "uint256"
        }
      ],
      "name": "UserDcaAmount",
      "type": "event"
    },
    {
      "anonymous": false,
      "inputs": [
        {
          "indexed": true,
          "internalType": "address",
          "name": "user",
          "type": "address"
        },
        {
          "indexed": false,
          "internalType": "uint256",
          "name": "amount",
          "type": "uint256"
        }
      ],
      "name": "UserDepositUsdc",
      "type": "event"
    },
    {
      "anonymous": false,
      "inputs": [
        {
          "indexed": true,
          "internalType": "address",
          "name": "user",
          "type": "address"
        },
        {
          "indexed": false,
          "internalType": "uint256",
          "name": "amount",
          "type": "uint256"
        }
      ],
      "name": "UserWithdrawEth",
      "type": "event"
    },
    {
      "anonymous": false,
      "inputs": [
        {
          "indexed": true,
          "internalType": "address",
          "name": "user",
          "type": "address"
        },
        {
          "indexed": false,
          "internalType": "uint256",
          "name": "amount",
          "type": "uint256"
        }
      ],
      "name": "UserWithdrawUsdc",
      "type": "event"
    },
    {
      "anonymous": false,
      "inputs": [
        {
          "indexed": false,
          "internalType": "uint256",
          "name": "usdcValue",
          "type": "uint256"
        }
      ],
      "name": "usdcValueToSwap",
      "type": "event"
    },
    {
      "anonymous": false,
      "inputs": [
        {
          "indexed": false,
          "internalType": "uint256",
          "name": "wethValue",
          "type": "uint256"
        }
      ],
      "name": "wethValueSwaped",
      "type": "event"
    },
    {
      "inputs": [],
      "name": "usdcSmartContractAddress",
      "outputs": [
        {
          "internalType": "address",
          "name": "",
          "type": "address"
        }
      ],
      "stateMutability": "view",
      "type": "function",
      "constant": true
    },
    {
      "inputs": [],
      "name": "weth9SmartContractAddress",
      "outputs": [
        {
          "internalType": "address",
          "name": "",
          "type": "address"
        }
      ],
      "stateMutability": "view",
      "type": "function",
      "constant": true
    },
    {
      "stateMutability": "payable",
      "type": "receive",
      "payable": true
    },
    {
      "inputs": [
        {
          "internalType": "uint256",
          "name": "amountIn",
          "type": "uint256"
        }
      ],
      "name": "depositUsdc",
      "outputs": [],
      "stateMutability": "nonpayable",
      "type": "function"
    },
    {
      "inputs": [
        {
          "internalType": "uint256",
          "name": "amountIn",
          "type": "uint256"
        }
      ],
      "name": "dcaAmount",
      "outputs": [],
      "stateMutability": "nonpayable",
      "type": "function"
    },
    {
      "inputs": [],
      "name": "widthdrawUsdc",
      "outputs": [],
      "stateMutability": "nonpayable",
      "type": "function"
    },
    {
      "inputs": [],
      "name": "widthdrawEth",
      "outputs": [],
      "stateMutability": "nonpayable",
      "type": "function"
    },
    {
      "inputs": [],
      "name": "makeDCA",
      "outputs": [],
      "stateMutability": "nonpayable",
      "type": "function"
    },
    {
      "inputs": [],
      "name": "getMyUsdcBalance",
      "outputs": [
        {
          "internalType": "uint256",
          "name": "",
          "type": "uint256"
        }
      ],
      "stateMutability": "view",
      "type": "function",
      "constant": true
    },
    {
      "inputs": [],
      "name": "getMyEthBalance",
      "outputs": [
        {
          "internalType": "uint256",
          "name": "",
          "type": "uint256"
        }
      ],
      "stateMutability": "view",
      "type": "function",
      "constant": true
    },
    {
      "inputs": [],
      "name": "getMyUsdcDca",
      "outputs": [
        {
          "internalType": "uint256",
          "name": "",
          "type": "uint256"
        }
      ],
      "stateMutability": "view",
      "type": "function",
      "constant": true
    }
  ],
  "bytecode": "0x60806040527307865c6e87b9f70255377e024ace6630c1eaa37f6000806101000a81548173ffffffffffffffffffffffffffffffffffffffff021916908373ffffffffffffffffffffffffffffffffffffffff16021790555073b4fbf271143f4fbf7b91a5ded31805e42b2208d6600160006101000a81548173ffffffffffffffffffffffffffffffffffffffff021916908373ffffffffffffffffffffffffffffffffffffffff160217905550348015620000ba57600080fd5b50620000d3426001620000df60201b62000eff1760201c565b600381905550620001d2565b6000603c82620000f091906200014c565b83620000fd919062000197565b9050828111156200010d57600080fd5b92915050565b6000819050919050565b7f4e487b7100000000000000000000000000000000000000000000000000000000600052601160045260246000fd5b6000620001598262000113565b9150620001668362000113565b9250828202620001768162000113565b9150828204841483151762000190576200018f6200011d565b5b5092915050565b6000620001a48262000113565b9150620001b18362000113565b9250828203905081811115620001cc57620001cb6200011d565b5b92915050565b61221380620001e26000396000f3fe6080604052600436106100955760003560e01c806336363edd1161005957806336363edd1461014c5780634f0119971461016357806384d235ea1461018e578063b0c25e29146101b9578063d370ff68146101e45761009c565b80630709dec8146100a15780630b5583b1146100cc5780631dd895df146100f55780632357928e1461010c57806325a9416f146101355761009c565b3661009c57005b600080fd5b3480156100ad57600080fd5b506100b661020f565b6040516100c3919061183e565b60405180910390f35b3480156100d857600080fd5b506100f360048036038101906100ee919061188a565b610259565b005b34801561010157600080fd5b5061010a61058e565b005b34801561011857600080fd5b50610133600480360381019061012e919061188a565b610664565b005b34801561014157600080fd5b5061014a610895565b005b34801561015857600080fd5b50610161610ae1565b005b34801561016f57600080fd5b50610178610e21565b60405161018591906118f8565b60405180910390f35b34801561019a57600080fd5b506101a3610e47565b6040516101b0919061183e565b60405180910390f35b3480156101c557600080fd5b506101ce610e91565b6040516101db919061183e565b60405180910390f35b3480156101f057600080fd5b506101f9610edb565b60405161020691906118f8565b60405180910390f35b6000600560003373ffffffffffffffffffffffffffffffffffffffff1673ffffffffffffffffffffffffffffffffffffffff16815260200190815260200160002060020154905090565b6000600560003373ffffffffffffffffffffffffffffffffffffffff1673ffffffffffffffffffffffffffffffffffffffff16815260200190815260200160002060010154036102f857600560016006805490506102b79190611942565b106102f7576040517f08c379a00000000000000000000000000000000000000000000000000000000081526004016102ee906119d3565b60405180910390fd5b5b6000600560003373ffffffffffffffffffffffffffffffffffffffff1673ffffffffffffffffffffffffffffffffffffffff168152602001908152602001600020600001541161037d576040517f08c379a000000000000000000000000000000000000000000000000000000000815260040161037490611a3f565b60405180910390fd5b629896808110156103c3576040517f08c379a00000000000000000000000000000000000000000000000000000000081526004016103ba90611aab565b60405180910390fd5b80600560003373ffffffffffffffffffffffffffffffffffffffff1673ffffffffffffffffffffffffffffffffffffffff168152602001908152602001600020600001541015610448576040517f08c379a000000000000000000000000000000000000000000000000000000000815260040161043f90611b3d565b60405180910390fd5b6000600560003373ffffffffffffffffffffffffffffffffffffffff1673ffffffffffffffffffffffffffffffffffffffff16815260200190815260200160002060010154036104f6576006339080600181540180825580915050600190039060005260206000200160009091909190916101000a81548173ffffffffffffffffffffffffffffffffffffffff021916908373ffffffffffffffffffffffffffffffffffffffff1602179055505b80600560003373ffffffffffffffffffffffffffffffffffffffff1673ffffffffffffffffffffffffffffffffffffffff168152602001908152602001600020600101819055503373ffffffffffffffffffffffffffffffffffffffff167f9bbb48649728751eaacdc76a015b854aedb92a2ae725b3969a25b70b6bc76b4882604051610583919061183e565b60405180910390a250565b600042905060016105a160035483610f2e565b10156105e2576040517f08c379a00000000000000000000000000000000000000000000000000000000081526004016105d990611bcf565b60405180910390fd5b806003819055506105f1610f5d565b60006105fb611343565b90506106086002546113e6565b80610611611343565b61061b9190611bef565b90507f4fa6a1633b173a814e226dc5e555ac0a31a6fbb8907b1764c1d4abee012759cb8160405161064c919061183e565b60405180910390a16106606002548261160f565b5050565b6000600560003373ffffffffffffffffffffffffffffffffffffffff1673ffffffffffffffffffffffffffffffffffffffff168152602001908152602001600020600101540361070357600560016006805490506106c29190611942565b10610702576040517f08c379a00000000000000000000000000000000000000000000000000000000081526004016106f9906119d3565b60405180910390fd5b5b6305f5e10081101561074a576040517f08c379a000000000000000000000000000000000000000000000000000000000815260040161074190611c6f565b60405180910390fd5b60008054906101000a900473ffffffffffffffffffffffffffffffffffffffff1673ffffffffffffffffffffffffffffffffffffffff166323b872dd3330846040518463ffffffff1660e01b81526004016107a793929190611c8f565b6020604051808303816000875af11580156107c6573d6000803e3d6000fd5b505050506040513d601f19601f820116820180604052508101906107ea9190611cfe565b5080600560003373ffffffffffffffffffffffffffffffffffffffff1673ffffffffffffffffffffffffffffffffffffffff168152602001908152602001600020600001600082825461083d9190611942565b925050819055503373ffffffffffffffffffffffffffffffffffffffff167fe6d713e7cf01ee63bae3de793f74a52024f62b69a7c6fe60fe8a81ef622734bc8260405161088a919061183e565b60405180910390a250565b6000600560003373ffffffffffffffffffffffffffffffffffffffff1673ffffffffffffffffffffffffffffffffffffffff168152602001908152602001600020600001541161091a576040517f08c379a000000000000000000000000000000000000000000000000000000000815260040161091190611d77565b60405180910390fd5b6000600560003373ffffffffffffffffffffffffffffffffffffffff1673ffffffffffffffffffffffffffffffffffffffff1681526020019081526020016000206000015490506000600560003373ffffffffffffffffffffffffffffffffffffffff1673ffffffffffffffffffffffffffffffffffffffff168152602001908152602001600020600001819055506000600560003373ffffffffffffffffffffffffffffffffffffffff1673ffffffffffffffffffffffffffffffffffffffff1681526020019081526020016000206001018190555060008054906101000a900473ffffffffffffffffffffffffffffffffffffffff1673ffffffffffffffffffffffffffffffffffffffff1663a9059cbb33836040518363ffffffff1660e01b8152600401610a4c929190611d97565b6020604051808303816000875af1158015610a6b573d6000803e3d6000fd5b505050506040513d601f19601f82011682018060405250810190610a8f9190611cfe565b503373ffffffffffffffffffffffffffffffffffffffff167f852c5c2fff2106fe8867b2b603b96079280e26847688a4da8675df2faae4191e82604051610ad6919061183e565b60405180910390a250565b6000600560003373ffffffffffffffffffffffffffffffffffffffff1673ffffffffffffffffffffffffffffffffffffffff1681526020019081526020016000206002015411610b66576040517f08c379a0000000000000000000000000000000000000000000000000000000008152600401610b5d90611e0c565b60405180910390fd5b6000600560003373ffffffffffffffffffffffffffffffffffffffff1673ffffffffffffffffffffffffffffffffffffffff1681526020019081526020016000206002015490506000600560003373ffffffffffffffffffffffffffffffffffffffff1673ffffffffffffffffffffffffffffffffffffffff16815260200190815260200160002060020181905550600160009054906101000a900473ffffffffffffffffffffffffffffffffffffffff1673ffffffffffffffffffffffffffffffffffffffff1663095ea7b330836040518363ffffffff1660e01b8152600401610c52929190611d97565b6020604051808303816000875af1158015610c71573d6000803e3d6000fd5b505050506040513d601f19601f82011682018060405250810190610c959190611cfe565b50600160009054906101000a900473ffffffffffffffffffffffffffffffffffffffff1673ffffffffffffffffffffffffffffffffffffffff16632e1a7d4d826040518263ffffffff1660e01b8152600401610cf1919061183e565b600060405180830381600087803b158015610d0b57600080fd5b505af1158015610d1f573d6000803e3d6000fd5b5050505060003373ffffffffffffffffffffffffffffffffffffffff1682604051610d4990611e5d565b60006040518083038185875af1925050503d8060008114610d86576040519150601f19603f3d011682016040523d82523d6000602084013e610d8b565b606091505b5050905080610dcf576040517f08c379a0000000000000000000000000000000000000000000000000000000008152600401610dc690611ebe565b60405180910390fd5b3373ffffffffffffffffffffffffffffffffffffffff167f654c7a7e59538b4e27a577ef2208b1f7cdcaf35938c4bb6288c945261702a56f83604051610e15919061183e565b60405180910390a25050565b600160009054906101000a900473ffffffffffffffffffffffffffffffffffffffff1681565b6000600560003373ffffffffffffffffffffffffffffffffffffffff1673ffffffffffffffffffffffffffffffffffffffff16815260200190815260200160002060010154905090565b6000600560003373ffffffffffffffffffffffffffffffffffffffff1673ffffffffffffffffffffffffffffffffffffffff16815260200190815260200160002060000154905090565b60008054906101000a900473ffffffffffffffffffffffffffffffffffffffff1681565b6000603c82610f0e9190611ede565b83610f199190611bef565b905082811115610f2857600080fd5b92915050565b600081831115610f3d57600080fd5b603c8383610f4b9190611bef565b610f559190611f4f565b905092915050565b600060068054905067ffffffffffffffff811115610f7e57610f7d611f80565b5b604051908082528060200260200182016040528015610fac5781602001602082028036833780820191505090505b50905060008060028190555060005b60068054905081101561129a57600060068281548110610fde57610fdd611faf565b5b9060005260206000200160009054906101000a900473ffffffffffffffffffffffffffffffffffffffff1690506000600560008373ffffffffffffffffffffffffffffffffffffffff1673ffffffffffffffffffffffffffffffffffffffff168152602001908152602001600020600101541180156110e15750600560008273ffffffffffffffffffffffffffffffffffffffff1673ffffffffffffffffffffffffffffffffffffffff16815260200190815260200160002060010154600560008373ffffffffffffffffffffffffffffffffffffffff1673ffffffffffffffffffffffffffffffffffffffff1681526020019081526020016000206000015410155b1561123d57600560008273ffffffffffffffffffffffffffffffffffffffff1673ffffffffffffffffffffffffffffffffffffffff16815260200190815260200160002060010154600560008373ffffffffffffffffffffffffffffffffffffffff1673ffffffffffffffffffffffffffffffffffffffff168152602001908152602001600020600001600082825461117a9190611bef565b92505081905550600560008273ffffffffffffffffffffffffffffffffffffffff1673ffffffffffffffffffffffffffffffffffffffff16815260200190815260200160002060010154600260008282546111d59190611942565b92505081905550808484815181106111f0576111ef611faf565b5b602002602001019073ffffffffffffffffffffffffffffffffffffffff16908173ffffffffffffffffffffffffffffffffffffffff1681525050828061123590611fde565b935050611286565b6000600560008373ffffffffffffffffffffffffffffffffffffffff1673ffffffffffffffffffffffffffffffffffffffff168152602001908152602001600020600101819055505b50808061129290611fde565b915050610fbb565b506000600254116112e0576040517f08c379a00000000000000000000000000000000000000000000000000000000081526004016112d790612072565b60405180910390fd5b600060025411156112ef578082525b816006908051906020019061130592919061177e565b507f29fe076b4e4669ee84478ebfd208c509816bdd26e3a79eb900c36fb3d39a8a5c600254604051611337919061183e565b60405180910390a15050565b6000600160009054906101000a900473ffffffffffffffffffffffffffffffffffffffff1673ffffffffffffffffffffffffffffffffffffffff166370a08231306040518263ffffffff1660e01b81526004016113a091906118f8565b602060405180830381865afa1580156113bd573d6000803e3d6000fd5b505050506040513d601f19601f820116820180604052508101906113e191906120a7565b905090565b60008054906101000a900473ffffffffffffffffffffffffffffffffffffffff1673ffffffffffffffffffffffffffffffffffffffff1663095ea7b373e592427a0aece92de3edee1f18e0157c05861564836040518363ffffffff1660e01b8152600401611455929190611d97565b6020604051808303816000875af1158015611474573d6000803e3d6000fd5b505050506040513d601f19601f820116820180604052508101906114989190611cfe565b50600060405180610100016040528060008054906101000a900473ffffffffffffffffffffffffffffffffffffffff1673ffffffffffffffffffffffffffffffffffffffff168152602001600160009054906101000a900473ffffffffffffffffffffffffffffffffffffffff1673ffffffffffffffffffffffffffffffffffffffff168152602001610bb862ffffff1681526020013073ffffffffffffffffffffffffffffffffffffffff16815260200142815260200183815260200160008152602001600073ffffffffffffffffffffffffffffffffffffffff16815250905073e592427a0aece92de3edee1f18e0157c0586156473ffffffffffffffffffffffffffffffffffffffff1663414bf389826040518263ffffffff1660e01b81526004016115c791906121c1565b6020604051808303816000875af11580156115e6573d6000803e3d6000fd5b505050506040513d601f19601f8201168201806040525081019061160a91906120a7565b505050565b60005b6006805490508110156117795760006006828154811061163557611634611faf565b5b9060005260206000200160009054906101000a900473ffffffffffffffffffffffffffffffffffffffff1690506000600560008373ffffffffffffffffffffffffffffffffffffffff1673ffffffffffffffffffffffffffffffffffffffff16815260200190815260200160002060010154111561176557600084600560008473ffffffffffffffffffffffffffffffffffffffff1673ffffffffffffffffffffffffffffffffffffffff16815260200190815260200160002060010154856116fe9190611ede565b6117089190611f4f565b905080600560008473ffffffffffffffffffffffffffffffffffffffff1673ffffffffffffffffffffffffffffffffffffffff168152602001908152602001600020600201600082825461175c9190611942565b92505081905550505b50808061177190611fde565b915050611612565b505050565b8280548282559060005260206000209081019282156117f7579160200282015b828111156117f65782518260006101000a81548173ffffffffffffffffffffffffffffffffffffffff021916908373ffffffffffffffffffffffffffffffffffffffff1602179055509160200191906001019061179e565b5b5090506118049190611808565b5090565b5b80821115611821576000816000905550600101611809565b5090565b6000819050919050565b61183881611825565b82525050565b6000602082019050611853600083018461182f565b92915050565b600080fd5b61186781611825565b811461187257600080fd5b50565b6000813590506118848161185e565b92915050565b6000602082840312156118a05761189f611859565b5b60006118ae84828501611875565b91505092915050565b600073ffffffffffffffffffffffffffffffffffffffff82169050919050565b60006118e2826118b7565b9050919050565b6118f2816118d7565b82525050565b600060208201905061190d60008301846118e9565b92915050565b7f4e487b7100000000000000000000000000000000000000000000000000000000600052601160045260246000fd5b600061194d82611825565b915061195883611825565b92508282019050808211156119705761196f611913565b5b92915050565b600082825260208201905092915050565b7f64636120706f6f6c2069732066756c6c00000000000000000000000000000000600082015250565b60006119bd601083611976565b91506119c882611987565b602082019050919050565b600060208201905081810360008301526119ec816119b0565b9050919050565b7f796f752068617665206e6f206d6f6e6e657920696e2064636120706f6f6c0000600082015250565b6000611a29601e83611976565b9150611a34826119f3565b602082019050919050565b60006020820190508181036000830152611a5881611a1c565b9050919050565b7f6d696e696d756d20646361206973203130207573646300000000000000000000600082015250565b6000611a95601683611976565b9150611aa082611a5f565b602082019050919050565b60006020820190508181036000830152611ac481611a88565b9050919050565b7f796f757220646361206d757374206265207375706572696f72207468616e207960008201527f6f7572206465706f736974000000000000000000000000000000000000000000602082015250565b6000611b27602b83611976565b9150611b3282611acb565b604082019050919050565b60006020820190508181036000830152611b5681611b1a565b9050919050565b7f546869732066756e6374696f6e2063616e206f6e6c792062652063616c6c656460008201527f206f6e63652065616368206d696e757465730000000000000000000000000000602082015250565b6000611bb9603283611976565b9150611bc482611b5d565b604082019050919050565b60006020820190508181036000830152611be881611bac565b9050919050565b6000611bfa82611825565b9150611c0583611825565b9250828203905081811115611c1d57611c1c611913565b5b92915050565b7f6d696e696d756d206465706f7369742069732031303020757364630000000000600082015250565b6000611c59601b83611976565b9150611c6482611c23565b602082019050919050565b60006020820190508181036000830152611c8881611c4c565b9050919050565b6000606082019050611ca460008301866118e9565b611cb160208301856118e9565b611cbe604083018461182f565b949350505050565b60008115159050919050565b611cdb81611cc6565b8114611ce657600080fd5b50565b600081519050611cf881611cd2565b92915050565b600060208284031215611d1457611d13611859565b5b6000611d2284828501611ce9565b91505092915050565b7f6e6f2075736463206f6e20796f7572206163636f756e74000000000000000000600082015250565b6000611d61601783611976565b9150611d6c82611d2b565b602082019050919050565b60006020820190508181036000830152611d9081611d54565b9050919050565b6000604082019050611dac60008301856118e9565b611db9602083018461182f565b9392505050565b7f6e6f20657468206f6e20796f7572206163636f756e7400000000000000000000600082015250565b6000611df6601683611976565b9150611e0182611dc0565b602082019050919050565b60006020820190508181036000830152611e2581611de9565b9050919050565b600081905092915050565b50565b6000611e47600083611e2c565b9150611e5282611e37565b600082019050919050565b6000611e6882611e3a565b9150819050919050565b7f5472616e73666572206661696c65642e00000000000000000000000000000000600082015250565b6000611ea8601083611976565b9150611eb382611e72565b602082019050919050565b60006020820190508181036000830152611ed781611e9b565b9050919050565b6000611ee982611825565b9150611ef483611825565b9250828202611f0281611825565b91508282048414831517611f1957611f18611913565b5b5092915050565b7f4e487b7100000000000000000000000000000000000000000000000000000000600052601260045260246000fd5b6000611f5a82611825565b9150611f6583611825565b925082611f7557611f74611f20565b5b828204905092915050565b7f4e487b7100000000000000000000000000000000000000000000000000000000600052604160045260246000fd5b7f4e487b7100000000000000000000000000000000000000000000000000000000600052603260045260246000fd5b6000611fe982611825565b91507fffffffffffffffffffffffffffffffffffffffffffffffffffffffffffffffff820361201b5761201a611913565b5b600182019050919050565b7f5468657265206973206e6f206d6f6e6e657920746f2044434100000000000000600082015250565b600061205c601983611976565b915061206782612026565b602082019050919050565b6000602082019050818103600083015261208b8161204f565b9050919050565b6000815190506120a18161185e565b92915050565b6000602082840312156120bd576120bc611859565b5b60006120cb84828501612092565b91505092915050565b6120dd816118d7565b82525050565b600062ffffff82169050919050565b6120fb816120e3565b82525050565b61210a81611825565b82525050565b612119816118b7565b82525050565b6101008201600082015161213660008501826120d4565b50602082015161214960208501826120d4565b50604082015161215c60408501826120f2565b50606082015161216f60608501826120d4565b5060808201516121826080850182612101565b5060a082015161219560a0850182612101565b5060c08201516121a860c0850182612101565b5060e08201516121bb60e0850182612110565b50505050565b6000610100820190506121d7600083018461211f565b9291505056fea2646970667358221220dcc151b13a0228821d842e9791a992734cfe9fdd9837d7f1b212526f9051146564736f6c63430008120033",
  "immutableReferences": {},
  "source": "// SPDX-License-Identifier: MIT\npragma solidity ^0.8.0;\n\n//import \"https://github.com/bokkypoobah/BokkyPooBahsDateTimeLibrary/blob/master/contracts/BokkyPooBahsDateTimeLibrary.sol\";\nimport \"./BokkyPooBahsDateTimeLibrary.sol\";\n\ninterface IERC20 {\n    function allowance(address owner, address spender) external view returns (uint256);\n    function approve(address spender, uint256 amount) external returns (bool);\n    function balanceOf(address account) external view returns (uint256);\n    function deposit() external payable;\n    function transfer(address to, uint256 amount) external returns (bool);\n    function transferFrom(address from, address to, uint256 amount) external returns (bool);\n}\n\ninterface ISwapRouter {\n    struct ExactInputSingleParams {\n        address tokenIn;\n        address tokenOut;\n        uint24 fee;\n        address recipient;\n        uint256 deadline;\n        uint256 amountIn;\n        uint256 amountOutMinimum;\n        uint160 sqrtPriceLimitX96;\n    }\n \n    /// @notice Swaps `amountIn` of one token for as much as possible of another token\n    /// @param params The parameters necessary for the swap, encoded as `ExactInputSingleParams` in calldata\n    /// @return amountOut The amount of the received token\n    function exactInputSingle(ExactInputSingleParams calldata params) external payable returns (uint256 amountOut);\n}\n\n\ninterface IWETH {\n    function withdraw(uint256 amount) external;\n}\n\n\ncontract StackNDCA {\n    ISwapRouter constant swapRouter = ISwapRouter(0xE592427A0AEce92De3Edee1F18E0157C05861564);\n\n    address public usdcSmartContractAddress=0x07865c6E87B9F70255377e024ace6630C1Eaa37F;  //goerli\n    address public weth9SmartContractAddress=0xB4FBF271143F4FBf7B91A5ded31805e42b2208d6; // goerli\n\n    uint24 constant poolFee = 3000;\n    uint256 udscDcaValue;\n\n    uint256 lastExecutionTime;\n    bool functionExecuted;\n\n    \n    struct userAccount {\n        uint256 usdcAmount;\n        uint256 usdcDCA;\n        uint256 ethAmount;\n    }\n\n    mapping (address => userAccount) private userAccounts;\n    \n    address[] dcaUsers;\n    \n    event UserDepositUsdc(address indexed user, uint256 amount);\n    event UserWithdrawUsdc(address indexed user, uint256 amount);\n    event UserWithdrawEth(address indexed user, uint256 amount);\n    event UserDcaAmount(address indexed user, uint256 amount);\n    event usdcValueToSwap(uint usdcValue);\n    event wethValueSwaped(uint wethValue);\n\n\n    constructor() {\n        //lastExecutionTime = BokkyPooBahsDateTimeLibrary.subMonths(block.timestamp, 1);\n        lastExecutionTime = BokkyPooBahsDateTimeLibrary.subMinutes(block.timestamp, 1);\n    }\n\n    modifier onlyOncePerMinute() {\n        uint nowTimestamp = block.timestamp;\n        require(BokkyPooBahsDateTimeLibrary.diffMinutes(lastExecutionTime, nowTimestamp) >= 1, \"This function can only be called once each minutes\");\n        lastExecutionTime = nowTimestamp;\n        _;\n    }\n\n    modifier onlyOncePerMonth() {\n        uint nowTimestamp = block.timestamp;\n        require(BokkyPooBahsDateTimeLibrary.diffMonths(lastExecutionTime, nowTimestamp) >= 1, \"This function can only be called once each month\");\n        lastExecutionTime = nowTimestamp;\n        _;\n    }\n\n    modifier checkPoolIsFUll() {\n        if (userAccounts[msg.sender].usdcDCA == 0) {\n            require(dcaUsers.length + 1 < 5, \"dca pool is full\");\n        }\n        _;\n    }\n\n    function depositUsdc(uint256 amountIn) public virtual checkPoolIsFUll {\n        require(amountIn >= 100000000, \"minimum deposit is 100 usdc\");\n        IERC20(usdcSmartContractAddress).transferFrom(msg.sender, address(this), amountIn);\n        userAccounts[msg.sender].usdcAmount += amountIn;\n        emit UserDepositUsdc(msg.sender, amountIn);\n    }\n\n    function dcaAmount(uint256 amountIn) public checkPoolIsFUll {\n        require(userAccounts[msg.sender].usdcAmount>0, \"you have no monney in dca pool\");\n        require(amountIn>=10000000, \"minimum dca is 10 usdc\");\n        require(userAccounts[msg.sender].usdcAmount>=amountIn, \"your dca must be superior than your deposit\");\n        if (userAccounts[msg.sender].usdcDCA == 0) {\n            dcaUsers.push(msg.sender);\n        }\n        userAccounts[msg.sender].usdcDCA = amountIn;\n        emit UserDcaAmount(msg.sender, amountIn);\n    }\n\n    function widthdrawUsdc() public {\n        require(userAccounts[msg.sender].usdcAmount > 0, \"no usdc on your account\");\n        uint amountOu = userAccounts[msg.sender].usdcAmount;\n        userAccounts[msg.sender].usdcAmount = 0;\n        userAccounts[msg.sender].usdcDCA = 0;\n        IERC20(usdcSmartContractAddress).transfer(msg.sender, amountOu);\n        emit UserWithdrawUsdc(msg.sender, amountOu);\n    }\n\n    function widthdrawEth() public {\n        require(userAccounts[msg.sender].ethAmount > 0, \"no eth on your account\");\n        uint amountOu = userAccounts[msg.sender].ethAmount;\n        userAccounts[msg.sender].ethAmount = 0;\n        IERC20(weth9SmartContractAddress).approve(address(this), amountOu);\n        IWETH(weth9SmartContractAddress).withdraw(amountOu);\n        (bool success, ) = msg.sender.call{value: amountOu}(\"\");\n        require(success, \"Transfer failed.\");\n        emit UserWithdrawEth(msg.sender, amountOu);\n    }\n\n    function getDcaValue() private { \n        address[] memory dcaUsersArray = new address[](dcaUsers.length);\n        uint dcaUsersArrayIndex = 0;\n        udscDcaValue=0;\n        for (uint i = 0; i < dcaUsers.length; i++) {\n            address user = dcaUsers[i];\n            if (userAccounts[user].usdcDCA > 0 && userAccounts[user].usdcAmount >= userAccounts[user].usdcDCA) {\n                userAccounts[user].usdcAmount -= userAccounts[user].usdcDCA;\n                udscDcaValue += userAccounts[user].usdcDCA;\n                dcaUsersArray[dcaUsersArrayIndex] = user;\n                dcaUsersArrayIndex++;\n            } else {\n                userAccounts[user].usdcDCA = 0;\n            }\n        }\n        require(udscDcaValue>0, \"There is no monney to DCA\");\n\n        if (udscDcaValue > 0) {\n            // Rduire la taille du tableau dcaUsersArray  la taille relle\n            assembly {\n                mstore(dcaUsersArray, dcaUsersArrayIndex)\n            }\n        }\n        \n        dcaUsers = dcaUsersArray;\n        emit usdcValueToSwap(udscDcaValue);\n    }\n\n    function swapExactInputEth(uint256 amountIn) private {\n \n        // autoriser uniswap  utiliser nos tokens\n        IERC20(usdcSmartContractAddress).approve(address(swapRouter), amountIn);\n        \n        //Creation des paramtres pour l'appel du swap\n        ISwapRouter.ExactInputSingleParams memory params =\n            ISwapRouter.ExactInputSingleParams({\n                tokenIn: usdcSmartContractAddress,\n                tokenOut: weth9SmartContractAddress,\n                fee: poolFee,\n                recipient: address(this),\n                deadline: block.timestamp,\n                amountIn: amountIn,\n                amountOutMinimum: 0, // put chainlink oracle here with slipage\n                sqrtPriceLimitX96: 0\n            });\n \n        // effectuer le swap, WETH sera transfr au smart contract\n        swapRouter.exactInputSingle(params);\n    }\n\n\n    function splitWethBalancetoUsers(uint _usdcdcaValue, uint _weth09DcaValue) private {\n        for (uint i = 0; i < dcaUsers.length; i++) {\n            address user = dcaUsers[i];\n            if (userAccounts[user].usdcDCA > 0) {\n                uint weth09Amount = _weth09DcaValue * userAccounts[user].usdcDCA / _usdcdcaValue;\n                userAccounts[user].ethAmount += weth09Amount;\n            }\n        }\n    }\n\n    function getWethContractBalance() private view returns (uint256) {\n        return IERC20(weth9SmartContractAddress).balanceOf(address(this));\n    }\n\n    function makeDCA() public onlyOncePerMinute {\n\n        // update dcaUsers and udscDcaValue\n        getDcaValue();\n        \n        uint weth09DcaValue = getWethContractBalance();\n        \n        // swap usdc to eth \n        swapExactInputEth(udscDcaValue);\n\n        // recompute weth09 balance to make weth09 distribution\n        weth09DcaValue = getWethContractBalance() - weth09DcaValue;\n        emit wethValueSwaped(weth09DcaValue);\n        \n        // split weth balance to dca users\n        splitWethBalancetoUsers(udscDcaValue, weth09DcaValue);\n    }\n\n    function getMyUsdcBalance() public view returns (uint) {\n        return userAccounts[msg.sender].usdcAmount;\n    }\n\n    function getMyEthBalance() public view returns (uint) {\n        return userAccounts[msg.sender].ethAmount;\n    }\n\n    function getMyUsdcDca() public view returns (uint) {\n        return userAccounts[msg.sender].usdcDCA;\n    }\n\n    receive() external payable {}\n}",
  "sourcePath": "/opt/code/projet/truffle/contracts/StackNDCA.sol",
  "compiler": {
    "name": "solc",
    "version": "0.8.18+commit.87f61d96.Emscripten.clang"
  },
  "schemaVersion": "3.4.13",
  "updatedAt": "2023-04-06T10:09:31.793Z",
  "networkType": "ethereum",
  "devdoc": {
    "kind": "dev",
    "methods": {},
    "version": 1
  },
  "userdoc": {
    "kind": "user",
    "methods": {},
    "version": 1
  }
}