{
  "contractName": "StackNDCAMinute",
  "abi": [
    {
      "inputs": [],
      "stateMutability": "nonpayable",
      "type": "constructor"
    },
    {
      "anonymous": false,
      "inputs": [
        {
          "indexed": true,
          "internalType": "address",
          "name": "previousOwner",
          "type": "address"
        },
        {
          "indexed": true,
          "internalType": "address",
          "name": "newOwner",
          "type": "address"
        }
      ],
      "name": "OwnershipTransferred",
      "type": "event"
    },
    {
      "anonymous": false,
      "inputs": [
        {
          "indexed": true,
          "internalType": "address",
          "name": "user",
          "type": "address"
        },
        {
          "indexed": false,
          "internalType": "uint256",
          "name": "amount",
          "type": "uint256"
        }
      ],
      "name": "UserDcaAmount",
      "type": "event"
    },
    {
      "anonymous": false,
      "inputs": [
        {
          "indexed": true,
          "internalType": "address",
          "name": "user",
          "type": "address"
        },
        {
          "indexed": false,
          "internalType": "uint256",
          "name": "amount",
          "type": "uint256"
        }
      ],
      "name": "UserDepositUsdc",
      "type": "event"
    },
    {
      "anonymous": false,
      "inputs": [
        {
          "indexed": true,
          "internalType": "address",
          "name": "user",
          "type": "address"
        },
        {
          "indexed": false,
          "internalType": "uint256",
          "name": "amount",
          "type": "uint256"
        }
      ],
      "name": "UserWithdrawEth",
      "type": "event"
    },
    {
      "anonymous": false,
      "inputs": [
        {
          "indexed": true,
          "internalType": "address",
          "name": "user",
          "type": "address"
        },
        {
          "indexed": false,
          "internalType": "uint256",
          "name": "amount",
          "type": "uint256"
        }
      ],
      "name": "UserWithdrawStackN",
      "type": "event"
    },
    {
      "anonymous": false,
      "inputs": [
        {
          "indexed": true,
          "internalType": "address",
          "name": "user",
          "type": "address"
        },
        {
          "indexed": false,
          "internalType": "uint256",
          "name": "amount",
          "type": "uint256"
        }
      ],
      "name": "UserWithdrawUsdc",
      "type": "event"
    },
    {
      "anonymous": false,
      "inputs": [
        {
          "indexed": false,
          "internalType": "uint256",
          "name": "usdcValue",
          "type": "uint256"
        }
      ],
      "name": "usdcValueToStack",
      "type": "event"
    },
    {
      "anonymous": false,
      "inputs": [
        {
          "indexed": false,
          "internalType": "uint256",
          "name": "usdcValue",
          "type": "uint256"
        }
      ],
      "name": "usdcValueToSwap",
      "type": "event"
    },
    {
      "anonymous": false,
      "inputs": [
        {
          "indexed": false,
          "internalType": "uint256",
          "name": "wethValue",
          "type": "uint256"
        }
      ],
      "name": "wethValueSwaped",
      "type": "event"
    },
    {
      "inputs": [],
      "name": "lastExecutionTime",
      "outputs": [
        {
          "internalType": "uint256",
          "name": "",
          "type": "uint256"
        }
      ],
      "stateMutability": "view",
      "type": "function"
    },
    {
      "inputs": [],
      "name": "owner",
      "outputs": [
        {
          "internalType": "address",
          "name": "",
          "type": "address"
        }
      ],
      "stateMutability": "view",
      "type": "function"
    },
    {
      "inputs": [],
      "name": "renounceOwnership",
      "outputs": [],
      "stateMutability": "nonpayable",
      "type": "function"
    },
    {
      "inputs": [],
      "name": "stackNTockenSmartContractAddress",
      "outputs": [
        {
          "internalType": "address",
          "name": "",
          "type": "address"
        }
      ],
      "stateMutability": "view",
      "type": "function"
    },
    {
      "inputs": [
        {
          "internalType": "address",
          "name": "newOwner",
          "type": "address"
        }
      ],
      "name": "transferOwnership",
      "outputs": [],
      "stateMutability": "nonpayable",
      "type": "function"
    },
    {
      "inputs": [],
      "name": "usdcSmartContractAddress",
      "outputs": [
        {
          "internalType": "address",
          "name": "",
          "type": "address"
        }
      ],
      "stateMutability": "view",
      "type": "function"
    },
    {
      "inputs": [],
      "name": "weth9SmartContractAddress",
      "outputs": [
        {
          "internalType": "address",
          "name": "",
          "type": "address"
        }
      ],
      "stateMutability": "view",
      "type": "function"
    },
    {
      "stateMutability": "payable",
      "type": "receive"
    },
    {
      "inputs": [
        {
          "internalType": "uint256",
          "name": "amountIn",
          "type": "uint256"
        }
      ],
      "name": "depositUsdc",
      "outputs": [],
      "stateMutability": "nonpayable",
      "type": "function"
    },
    {
      "inputs": [
        {
          "internalType": "uint256",
          "name": "amountIn",
          "type": "uint256"
        }
      ],
      "name": "dcaAmount",
      "outputs": [],
      "stateMutability": "nonpayable",
      "type": "function"
    },
    {
      "inputs": [],
      "name": "widthdrawUsdc",
      "outputs": [],
      "stateMutability": "nonpayable",
      "type": "function"
    },
    {
      "inputs": [],
      "name": "widthdrawEth",
      "outputs": [],
      "stateMutability": "nonpayable",
      "type": "function"
    },
    {
      "inputs": [],
      "name": "widthdrawStackN",
      "outputs": [],
      "stateMutability": "nonpayable",
      "type": "function"
    },
    {
      "inputs": [],
      "name": "makeDCA",
      "outputs": [],
      "stateMutability": "nonpayable",
      "type": "function"
    },
    {
      "inputs": [],
      "name": "getStackNContractBalance",
      "outputs": [
        {
          "internalType": "uint256",
          "name": "",
          "type": "uint256"
        }
      ],
      "stateMutability": "view",
      "type": "function"
    },
    {
      "inputs": [],
      "name": "getWethContractBalance",
      "outputs": [
        {
          "internalType": "uint256",
          "name": "",
          "type": "uint256"
        }
      ],
      "stateMutability": "view",
      "type": "function"
    },
    {
      "inputs": [],
      "name": "getMyUsdcBalance",
      "outputs": [
        {
          "internalType": "uint256",
          "name": "",
          "type": "uint256"
        }
      ],
      "stateMutability": "view",
      "type": "function"
    },
    {
      "inputs": [],
      "name": "getMyEthBalance",
      "outputs": [
        {
          "internalType": "uint256",
          "name": "",
          "type": "uint256"
        }
      ],
      "stateMutability": "view",
      "type": "function"
    },
    {
      "inputs": [],
      "name": "getMyStackNBalance",
      "outputs": [
        {
          "internalType": "uint256",
          "name": "",
          "type": "uint256"
        }
      ],
      "stateMutability": "view",
      "type": "function"
    },
    {
      "inputs": [],
      "name": "getMyUsdcDca",
      "outputs": [
        {
          "internalType": "uint256",
          "name": "",
          "type": "uint256"
        }
      ],
      "stateMutability": "view",
      "type": "function"
    },
    {
      "inputs": [
        {
          "internalType": "address",
          "name": "_address",
          "type": "address"
        }
      ],
      "name": "setStackNTockenAddress",
      "outputs": [],
      "stateMutability": "nonpayable",
      "type": "function"
    }
  ],
  "bytecode": "0x60806040527307865c6e87b9f70255377e024ace6630c1eaa37f600160006101000a81548173ffffffffffffffffffffffffffffffffffffffff021916908373ffffffffffffffffffffffffffffffffffffffff16021790555073b4fbf271143f4fbf7b91a5ded31805e42b2208d6600260006101000a81548173ffffffffffffffffffffffffffffffffffffffff021916908373ffffffffffffffffffffffffffffffffffffffff160217905550686c6b935b8bbd400000600455348015620000c857600080fd5b50620000e9620000dd6200010d60201b60201c565b6200011560201b60201c565b62000101426001620001d960201b620017521760201c565b600781905550620002cc565b600033905090565b60008060009054906101000a900473ffffffffffffffffffffffffffffffffffffffff169050816000806101000a81548173ffffffffffffffffffffffffffffffffffffffff021916908373ffffffffffffffffffffffffffffffffffffffff1602179055508173ffffffffffffffffffffffffffffffffffffffff168173ffffffffffffffffffffffffffffffffffffffff167f8be0079c531659141344cd1fd0a4f28419497f9722a3daafe3b4186f6b6457e060405160405180910390a35050565b6000603c82620001ea919062000246565b83620001f7919062000291565b9050828111156200020757600080fd5b92915050565b6000819050919050565b7f4e487b7100000000000000000000000000000000000000000000000000000000600052601160045260246000fd5b600062000253826200020d565b915062000260836200020d565b925082820262000270816200020d565b915082820484148315176200028a576200028962000217565b5b5092915050565b60006200029e826200020d565b9150620002ab836200020d565b9250828203905081811115620002c657620002c562000217565b5b92915050565b6131b380620002dc6000396000f3fe6080604052600436106101235760003560e01c806373b379bd116100a0578063c3f75b4f11610064578063c3f75b4f14610360578063c634f83b14610377578063d370ff68146103a2578063f2fde38b146103cd578063f34b34d9146103f65761012a565b806373b379bd1461028957806384d235ea146102b45780638da5cb5b146102df5780639abf24db1461030a578063b0c25e29146103355761012a565b806325a9416f116100e757806325a9416f146101ee57806336363edd146102055780634f0119971461021c5780635dfba7b614610247578063715018a6146102725761012a565b80630709dec81461012f5780630b5583b11461015a5780631dd895df146101835780632357928e1461019a57806323ac191c146101c35761012a565b3661012a57005b600080fd5b34801561013b57600080fd5b5061014461041f565b6040516101519190612589565b60405180910390f35b34801561016657600080fd5b50610181600480360381019061017c91906125d5565b610469565b005b34801561018f57600080fd5b5061019861079f565b005b3480156101a657600080fd5b506101c160048036038101906101bc91906125d5565b61099a565b005b3480156101cf57600080fd5b506101d8610bce565b6040516101e59190612589565b60405180910390f35b3480156101fa57600080fd5b50610203610c71565b005b34801561021157600080fd5b5061021a610f07565b005b34801561022857600080fd5b50610231611247565b60405161023e9190612643565b60405180910390f35b34801561025357600080fd5b5061025c61126d565b6040516102699190612589565b60405180910390f35b34801561027e57600080fd5b506102876112b7565b005b34801561029557600080fd5b5061029e6112cb565b6040516102ab9190612589565b60405180910390f35b3480156102c057600080fd5b506102c96112d1565b6040516102d69190612589565b60405180910390f35b3480156102eb57600080fd5b506102f461131b565b6040516103019190612643565b60405180910390f35b34801561031657600080fd5b5061031f611344565b60405161032c9190612589565b60405180910390f35b34801561034157600080fd5b5061034a6113e7565b6040516103579190612589565b60405180910390f35b34801561036c57600080fd5b50610375611431565b005b34801561038357600080fd5b5061038c611637565b6040516103999190612643565b60405180910390f35b3480156103ae57600080fd5b506103b761165d565b6040516103c49190612643565b60405180910390f35b3480156103d957600080fd5b506103f460048036038101906103ef919061268a565b611683565b005b34801561040257600080fd5b5061041d6004803603810190610418919061268a565b611706565b005b6000600860003373ffffffffffffffffffffffffffffffffffffffff1673ffffffffffffffffffffffffffffffffffffffff16815260200190815260200160002060020154905090565b6000600860003373ffffffffffffffffffffffffffffffffffffffff1673ffffffffffffffffffffffffffffffffffffffff168152602001908152602001600020600101540361050957614e2060016009805490506104c891906126e6565b10610508576040517f08c379a00000000000000000000000000000000000000000000000000000000081526004016104ff90612777565b60405180910390fd5b5b6000600860003373ffffffffffffffffffffffffffffffffffffffff1673ffffffffffffffffffffffffffffffffffffffff168152602001908152602001600020600001541161058e576040517f08c379a0000000000000000000000000000000000000000000000000000000008152600401610585906127e3565b60405180910390fd5b629896808110156105d4576040517f08c379a00000000000000000000000000000000000000000000000000000000081526004016105cb9061284f565b60405180910390fd5b80600860003373ffffffffffffffffffffffffffffffffffffffff1673ffffffffffffffffffffffffffffffffffffffff168152602001908152602001600020600001541015610659576040517f08c379a0000000000000000000000000000000000000000000000000000000008152600401610650906128e1565b60405180910390fd5b6000600860003373ffffffffffffffffffffffffffffffffffffffff1673ffffffffffffffffffffffffffffffffffffffff1681526020019081526020016000206001015403610707576009339080600181540180825580915050600190039060005260206000200160009091909190916101000a81548173ffffffffffffffffffffffffffffffffffffffff021916908373ffffffffffffffffffffffffffffffffffffffff1602179055505b80600860003373ffffffffffffffffffffffffffffffffffffffff1673ffffffffffffffffffffffffffffffffffffffff168152602001908152602001600020600101819055503373ffffffffffffffffffffffffffffffffffffffff167f9bbb48649728751eaacdc76a015b854aedb92a2ae725b3969a25b70b6bc76b48826040516107949190612589565b60405180910390a250565b600042905060016107b260075483611781565b10156107f3576040517f08c379a00000000000000000000000000000000000000000000000000000000081526004016107ea90612973565b60405180910390fd5b80600781905550600073ffffffffffffffffffffffffffffffffffffffff16600360009054906101000a900473ffffffffffffffffffffffffffffffffffffffff1673ffffffffffffffffffffffffffffffffffffffff160361088b576040517f08c379a000000000000000000000000000000000000000000000000000000000815260040161088290612a05565b60405180910390fd5b6108936117b0565b600061089d610bce565b90506108aa600654611e18565b806108b3610bce565b6108bd9190612a25565b90507f4fa6a1633b173a814e226dc5e555ac0a31a6fbb8907b1764c1d4abee012759cb816040516108ee9190612589565b60405180910390a1600360009054906101000a900473ffffffffffffffffffffffffffffffffffffffff1673ffffffffffffffffffffffffffffffffffffffff1663b45a2812306004546040518363ffffffff1660e01b8152600401610955929190612a59565b600060405180830381600087803b15801561096f57600080fd5b505af1158015610983573d6000803e3d6000fd5b5050505061099660065460055483612045565b5050565b6000600860003373ffffffffffffffffffffffffffffffffffffffff1673ffffffffffffffffffffffffffffffffffffffff1681526020019081526020016000206001015403610a3a57614e2060016009805490506109f991906126e6565b10610a39576040517f08c379a0000000000000000000000000000000000000000000000000000000008152600401610a3090612777565b60405180910390fd5b5b6305f5e100811015610a81576040517f08c379a0000000000000000000000000000000000000000000000000000000008152600401610a7890612ace565b60405180910390fd5b600160009054906101000a900473ffffffffffffffffffffffffffffffffffffffff1673ffffffffffffffffffffffffffffffffffffffff166323b872dd3330846040518463ffffffff1660e01b8152600401610ae093929190612aee565b6020604051808303816000875af1158015610aff573d6000803e3d6000fd5b505050506040513d601f19601f82011682018060405250810190610b239190612b5d565b5080600860003373ffffffffffffffffffffffffffffffffffffffff1673ffffffffffffffffffffffffffffffffffffffff1681526020019081526020016000206000016000828254610b7691906126e6565b925050819055503373ffffffffffffffffffffffffffffffffffffffff167fe6d713e7cf01ee63bae3de793f74a52024f62b69a7c6fe60fe8a81ef622734bc82604051610bc39190612589565b60405180910390a250565b6000600260009054906101000a900473ffffffffffffffffffffffffffffffffffffffff1673ffffffffffffffffffffffffffffffffffffffff166370a08231306040518263ffffffff1660e01b8152600401610c2b9190612643565b602060405180830381865afa158015610c48573d6000803e3d6000fd5b505050506040513d601f19601f82011682018060405250810190610c6c9190612b9f565b905090565b6000600860003373ffffffffffffffffffffffffffffffffffffffff1673ffffffffffffffffffffffffffffffffffffffff1681526020019081526020016000206000015411610cf6576040517f08c379a0000000000000000000000000000000000000000000000000000000008152600401610ced90612c18565b60405180910390fd5b6000600860003373ffffffffffffffffffffffffffffffffffffffff1673ffffffffffffffffffffffffffffffffffffffff1681526020019081526020016000206000015490506000600860003373ffffffffffffffffffffffffffffffffffffffff1673ffffffffffffffffffffffffffffffffffffffff168152602001908152602001600020600001819055506000600860003373ffffffffffffffffffffffffffffffffffffffff1673ffffffffffffffffffffffffffffffffffffffff168152602001908152602001600020600101819055506000600860003373ffffffffffffffffffffffffffffffffffffffff1673ffffffffffffffffffffffffffffffffffffffff16815260200190815260200160002060030181905550600160009054906101000a900473ffffffffffffffffffffffffffffffffffffffff1673ffffffffffffffffffffffffffffffffffffffff1663a9059cbb33836040518363ffffffff1660e01b8152600401610e72929190612a59565b6020604051808303816000875af1158015610e91573d6000803e3d6000fd5b505050506040513d601f19601f82011682018060405250810190610eb59190612b5d565b503373ffffffffffffffffffffffffffffffffffffffff167f852c5c2fff2106fe8867b2b603b96079280e26847688a4da8675df2faae4191e82604051610efc9190612589565b60405180910390a250565b6000600860003373ffffffffffffffffffffffffffffffffffffffff1673ffffffffffffffffffffffffffffffffffffffff1681526020019081526020016000206002015411610f8c576040517f08c379a0000000000000000000000000000000000000000000000000000000008152600401610f8390612c84565b60405180910390fd5b6000600860003373ffffffffffffffffffffffffffffffffffffffff1673ffffffffffffffffffffffffffffffffffffffff1681526020019081526020016000206002015490506000600860003373ffffffffffffffffffffffffffffffffffffffff1673ffffffffffffffffffffffffffffffffffffffff16815260200190815260200160002060020181905550600260009054906101000a900473ffffffffffffffffffffffffffffffffffffffff1673ffffffffffffffffffffffffffffffffffffffff1663095ea7b330836040518363ffffffff1660e01b8152600401611078929190612a59565b6020604051808303816000875af1158015611097573d6000803e3d6000fd5b505050506040513d601f19601f820116820180604052508101906110bb9190612b5d565b50600260009054906101000a900473ffffffffffffffffffffffffffffffffffffffff1673ffffffffffffffffffffffffffffffffffffffff16632e1a7d4d826040518263ffffffff1660e01b81526004016111179190612589565b600060405180830381600087803b15801561113157600080fd5b505af1158015611145573d6000803e3d6000fd5b5050505060003373ffffffffffffffffffffffffffffffffffffffff168260405161116f90612cd5565b60006040518083038185875af1925050503d80600081146111ac576040519150601f19603f3d011682016040523d82523d6000602084013e6111b1565b606091505b50509050806111f5576040517f08c379a00000000000000000000000000000000000000000000000000000000081526004016111ec90612d36565b60405180910390fd5b3373ffffffffffffffffffffffffffffffffffffffff167f654c7a7e59538b4e27a577ef2208b1f7cdcaf35938c4bb6288c945261702a56f8360405161123b9190612589565b60405180910390a25050565b600260009054906101000a900473ffffffffffffffffffffffffffffffffffffffff1681565b6000600860003373ffffffffffffffffffffffffffffffffffffffff1673ffffffffffffffffffffffffffffffffffffffff16815260200190815260200160002060030154905090565b6112bf61237f565b6112c960006123fd565b565b60075481565b6000600860003373ffffffffffffffffffffffffffffffffffffffff1673ffffffffffffffffffffffffffffffffffffffff16815260200190815260200160002060010154905090565b60008060009054906101000a900473ffffffffffffffffffffffffffffffffffffffff16905090565b6000600360009054906101000a900473ffffffffffffffffffffffffffffffffffffffff1673ffffffffffffffffffffffffffffffffffffffff166370a08231306040518263ffffffff1660e01b81526004016113a19190612643565b602060405180830381865afa1580156113be573d6000803e3d6000fd5b505050506040513d601f19601f820116820180604052508101906113e29190612b9f565b905090565b6000600860003373ffffffffffffffffffffffffffffffffffffffff1673ffffffffffffffffffffffffffffffffffffffff16815260200190815260200160002060000154905090565b6000600860003373ffffffffffffffffffffffffffffffffffffffff1673ffffffffffffffffffffffffffffffffffffffff16815260200190815260200160002060030154116114b6576040517f08c379a00000000000000000000000000000000000000000000000000000000081526004016114ad90612da2565b60405180910390fd5b6000600860003373ffffffffffffffffffffffffffffffffffffffff1673ffffffffffffffffffffffffffffffffffffffff1681526020019081526020016000206003015490506000600860003373ffffffffffffffffffffffffffffffffffffffff1673ffffffffffffffffffffffffffffffffffffffff16815260200190815260200160002060030181905550600360009054906101000a900473ffffffffffffffffffffffffffffffffffffffff1673ffffffffffffffffffffffffffffffffffffffff1663a9059cbb33836040518363ffffffff1660e01b81526004016115a2929190612a59565b6020604051808303816000875af11580156115c1573d6000803e3d6000fd5b505050506040513d601f19601f820116820180604052508101906115e59190612b5d565b503373ffffffffffffffffffffffffffffffffffffffff167f97e87c86a1a50a83500d5e4838e699546b2fbbf7d2cdfc6653a5a496c952a0628260405161162c9190612589565b60405180910390a250565b600360009054906101000a900473ffffffffffffffffffffffffffffffffffffffff1681565b600160009054906101000a900473ffffffffffffffffffffffffffffffffffffffff1681565b61168b61237f565b600073ffffffffffffffffffffffffffffffffffffffff168173ffffffffffffffffffffffffffffffffffffffff16036116fa576040517f08c379a00000000000000000000000000000000000000000000000000000000081526004016116f190612e34565b60405180910390fd5b611703816123fd565b50565b61170e61237f565b80600360006101000a81548173ffffffffffffffffffffffffffffffffffffffff021916908373ffffffffffffffffffffffffffffffffffffffff16021790555050565b6000603c826117619190612e54565b8361176c9190612a25565b90508281111561177b57600080fd5b92915050565b60008183111561179057600080fd5b603c838361179e9190612a25565b6117a89190612ec5565b905092915050565b600060098054905067ffffffffffffffff8111156117d1576117d0612ef6565b5b6040519080825280602002602001820160405280156117ff5781602001602082028036833780820191505090505b509050600080600681905550600060058190555060005b600980549050811015611d365760006009828154811061183957611838612f25565b5b9060005260206000200160009054906101000a900473ffffffffffffffffffffffffffffffffffffffff1690506000600860008373ffffffffffffffffffffffffffffffffffffffff1673ffffffffffffffffffffffffffffffffffffffff16815260200190815260200160002060000154111561199957600860008273ffffffffffffffffffffffffffffffffffffffff1673ffffffffffffffffffffffffffffffffffffffff16815260200190815260200160002060040154600860008373ffffffffffffffffffffffffffffffffffffffff1673ffffffffffffffffffffffffffffffffffffffff168152602001908152602001600020600001541061199857600860008273ffffffffffffffffffffffffffffffffffffffff1673ffffffffffffffffffffffffffffffffffffffff168152602001908152602001600020600401546005600082825461199091906126e6565b925050819055505b5b6000600860008373ffffffffffffffffffffffffffffffffffffffff1673ffffffffffffffffffffffffffffffffffffffff168152602001908152602001600020600101541115611d2257600860008273ffffffffffffffffffffffffffffffffffffffff1673ffffffffffffffffffffffffffffffffffffffff16815260200190815260200160002060010154600860008373ffffffffffffffffffffffffffffffffffffffff1673ffffffffffffffffffffffffffffffffffffffff1681526020019081526020016000206000015410611cd857600860008273ffffffffffffffffffffffffffffffffffffffff1673ffffffffffffffffffffffffffffffffffffffff16815260200190815260200160002060010154600860008373ffffffffffffffffffffffffffffffffffffffff1673ffffffffffffffffffffffffffffffffffffffff1681526020019081526020016000206000016000828254611b039190612a25565b92505081905550600860008273ffffffffffffffffffffffffffffffffffffffff1673ffffffffffffffffffffffffffffffffffffffff16815260200190815260200160002060040154600860008373ffffffffffffffffffffffffffffffffffffffff1673ffffffffffffffffffffffffffffffffffffffff16815260200190815260200160002060050181905550600860008273ffffffffffffffffffffffffffffffffffffffff1673ffffffffffffffffffffffffffffffffffffffff16815260200190815260200160002060000154600860008373ffffffffffffffffffffffffffffffffffffffff1673ffffffffffffffffffffffffffffffffffffffff16815260200190815260200160002060040181905550600860008273ffffffffffffffffffffffffffffffffffffffff1673ffffffffffffffffffffffffffffffffffffffff1681526020019081526020016000206001015460066000828254611c7091906126e6565b9250508190555080848481518110611c8b57611c8a612f25565b5b602002602001019073ffffffffffffffffffffffffffffffffffffffff16908173ffffffffffffffffffffffffffffffffffffffff16815250508280611cd090612f54565b935050611d21565b6000600860008373ffffffffffffffffffffffffffffffffffffffff1673ffffffffffffffffffffffffffffffffffffffff168152602001908152602001600020600101819055505b5b508080611d2e90612f54565b915050611816565b50600060065411611d7c576040517f08c379a0000000000000000000000000000000000000000000000000000000008152600401611d7390612fe8565b60405180910390fd5b60006006541115611d8b578082525b8160099080519060200190611da19291906124c9565b507f29fe076b4e4669ee84478ebfd208c509816bdd26e3a79eb900c36fb3d39a8a5c600654604051611dd39190612589565b60405180910390a17f239f02a41ad12358651bd08e7714cf1e79c099e277ada55cb22b7e1882596e18600554604051611e0c9190612589565b60405180910390a15050565b600160009054906101000a900473ffffffffffffffffffffffffffffffffffffffff1673ffffffffffffffffffffffffffffffffffffffff1663095ea7b373e592427a0aece92de3edee1f18e0157c05861564836040518363ffffffff1660e01b8152600401611e89929190612a59565b6020604051808303816000875af1158015611ea8573d6000803e3d6000fd5b505050506040513d601f19601f82011682018060405250810190611ecc9190612b5d565b506000604051806101000160405280600160009054906101000a900473ffffffffffffffffffffffffffffffffffffffff1673ffffffffffffffffffffffffffffffffffffffff168152602001600260009054906101000a900473ffffffffffffffffffffffffffffffffffffffff1673ffffffffffffffffffffffffffffffffffffffff168152602001610bb862ffffff1681526020013073ffffffffffffffffffffffffffffffffffffffff16815260200142815260200183815260200160008152602001600073ffffffffffffffffffffffffffffffffffffffff16815250905073e592427a0aece92de3edee1f18e0157c0586156473ffffffffffffffffffffffffffffffffffffffff1663414bf389826040518263ffffffff1660e01b8152600401611ffd91906130f5565b6020604051808303816000875af115801561201c573d6000803e3d6000fd5b505050506040513d601f19601f820116820180604052508101906120409190612b9f565b505050565b606460196004546120569190612e54565b6120609190612ec5565b600860003373ffffffffffffffffffffffffffffffffffffffff1673ffffffffffffffffffffffffffffffffffffffff16815260200190815260200160002060030160008282546120b191906126e6565b9250508190555060008203612134576064604b6004546120d19190612e54565b6120db9190612ec5565b600860003373ffffffffffffffffffffffffffffffffffffffff1673ffffffffffffffffffffffffffffffffffffffff168152602001908152602001600020600301600082825461212c91906126e6565b925050819055505b60005b6009805490508110156123795760006009828154811061215a57612159612f25565b5b9060005260206000200160009054906101000a900473ffffffffffffffffffffffffffffffffffffffff1690506000600860008373ffffffffffffffffffffffffffffffffffffffff1673ffffffffffffffffffffffffffffffffffffffff16815260200190815260200160002060010154111561236557600085600860008473ffffffffffffffffffffffffffffffffffffffff1673ffffffffffffffffffffffffffffffffffffffff16815260200190815260200160002060010154856122239190612e54565b61222d9190612ec5565b905080600860008473ffffffffffffffffffffffffffffffffffffffff1673ffffffffffffffffffffffffffffffffffffffff168152602001908152602001600020600201600082825461228191906126e6565b92505081905550600085111561236357600085600860008573ffffffffffffffffffffffffffffffffffffffff1673ffffffffffffffffffffffffffffffffffffffff168152602001908152602001600020600501546064604b6004546122e89190612e54565b6122f29190612ec5565b6122fc9190612e54565b6123069190612ec5565b905080600860008573ffffffffffffffffffffffffffffffffffffffff1673ffffffffffffffffffffffffffffffffffffffff168152602001908152602001600020600301600082825461235a91906126e6565b92505081905550505b505b50808061237190612f54565b915050612137565b50505050565b6123876124c1565b73ffffffffffffffffffffffffffffffffffffffff166123a561131b565b73ffffffffffffffffffffffffffffffffffffffff16146123fb576040517f08c379a00000000000000000000000000000000000000000000000000000000081526004016123f29061315d565b60405180910390fd5b565b60008060009054906101000a900473ffffffffffffffffffffffffffffffffffffffff169050816000806101000a81548173ffffffffffffffffffffffffffffffffffffffff021916908373ffffffffffffffffffffffffffffffffffffffff1602179055508173ffffffffffffffffffffffffffffffffffffffff168173ffffffffffffffffffffffffffffffffffffffff167f8be0079c531659141344cd1fd0a4f28419497f9722a3daafe3b4186f6b6457e060405160405180910390a35050565b600033905090565b828054828255906000526020600020908101928215612542579160200282015b828111156125415782518260006101000a81548173ffffffffffffffffffffffffffffffffffffffff021916908373ffffffffffffffffffffffffffffffffffffffff160217905550916020019190600101906124e9565b5b50905061254f9190612553565b5090565b5b8082111561256c576000816000905550600101612554565b5090565b6000819050919050565b61258381612570565b82525050565b600060208201905061259e600083018461257a565b92915050565b600080fd5b6125b281612570565b81146125bd57600080fd5b50565b6000813590506125cf816125a9565b92915050565b6000602082840312156125eb576125ea6125a4565b5b60006125f9848285016125c0565b91505092915050565b600073ffffffffffffffffffffffffffffffffffffffff82169050919050565b600061262d82612602565b9050919050565b61263d81612622565b82525050565b60006020820190506126586000830184612634565b92915050565b61266781612622565b811461267257600080fd5b50565b6000813590506126848161265e565b92915050565b6000602082840312156126a05761269f6125a4565b5b60006126ae84828501612675565b91505092915050565b7f4e487b7100000000000000000000000000000000000000000000000000000000600052601160045260246000fd5b60006126f182612570565b91506126fc83612570565b9250828201905080821115612714576127136126b7565b5b92915050565b600082825260208201905092915050565b7f64636120706f6f6c2069732066756c6c00000000000000000000000000000000600082015250565b600061276160108361271a565b915061276c8261272b565b602082019050919050565b6000602082019050818103600083015261279081612754565b9050919050565b7f796f752068617665206e6f206d6f6e6e657920696e2064636120706f6f6c0000600082015250565b60006127cd601e8361271a565b91506127d882612797565b602082019050919050565b600060208201905081810360008301526127fc816127c0565b9050919050565b7f6d696e696d756d20646361206973203130207573646300000000000000000000600082015250565b600061283960168361271a565b915061284482612803565b602082019050919050565b600060208201905081810360008301526128688161282c565b9050919050565b7f796f757220646361206d757374206265207375706572696f72207468616e207960008201527f6f7572206465706f736974000000000000000000000000000000000000000000602082015250565b60006128cb602b8361271a565b91506128d68261286f565b604082019050919050565b600060208201905081810360008301526128fa816128be565b9050919050565b7f546869732066756e6374696f6e2063616e206f6e6c792062652063616c6c656460008201527f206f6e63652065616368206d696e757465730000000000000000000000000000602082015250565b600061295d60328361271a565b915061296882612901565b604082019050919050565b6000602082019050818103600083015261298c81612950565b9050919050565b7f737461636b4e546f636b656e536d617274436f6e74726163744164647265737360008201527f207661726961626c65206973206e6f7420736574000000000000000000000000602082015250565b60006129ef60348361271a565b91506129fa82612993565b604082019050919050565b60006020820190508181036000830152612a1e816129e2565b9050919050565b6000612a3082612570565b9150612a3b83612570565b9250828203905081811115612a5357612a526126b7565b5b92915050565b6000604082019050612a6e6000830185612634565b612a7b602083018461257a565b9392505050565b7f6d696e696d756d206465706f7369742069732031303020757364630000000000600082015250565b6000612ab8601b8361271a565b9150612ac382612a82565b602082019050919050565b60006020820190508181036000830152612ae781612aab565b9050919050565b6000606082019050612b036000830186612634565b612b106020830185612634565b612b1d604083018461257a565b949350505050565b60008115159050919050565b612b3a81612b25565b8114612b4557600080fd5b50565b600081519050612b5781612b31565b92915050565b600060208284031215612b7357612b726125a4565b5b6000612b8184828501612b48565b91505092915050565b600081519050612b99816125a9565b92915050565b600060208284031215612bb557612bb46125a4565b5b6000612bc384828501612b8a565b91505092915050565b7f6e6f2075736463206f6e20796f7572206163636f756e74000000000000000000600082015250565b6000612c0260178361271a565b9150612c0d82612bcc565b602082019050919050565b60006020820190508181036000830152612c3181612bf5565b9050919050565b7f6e6f20657468206f6e20796f7572206163636f756e7400000000000000000000600082015250565b6000612c6e60168361271a565b9150612c7982612c38565b602082019050919050565b60006020820190508181036000830152612c9d81612c61565b9050919050565b600081905092915050565b50565b6000612cbf600083612ca4565b9150612cca82612caf565b600082019050919050565b6000612ce082612cb2565b9150819050919050565b7f5472616e73666572206661696c65642e00000000000000000000000000000000600082015250565b6000612d2060108361271a565b9150612d2b82612cea565b602082019050919050565b60006020820190508181036000830152612d4f81612d13565b9050919050565b7f6e6f20537461636b4e206f6e20796f7572206163636f756e7400000000000000600082015250565b6000612d8c60198361271a565b9150612d9782612d56565b602082019050919050565b60006020820190508181036000830152612dbb81612d7f565b9050919050565b7f4f776e61626c653a206e6577206f776e657220697320746865207a65726f206160008201527f6464726573730000000000000000000000000000000000000000000000000000602082015250565b6000612e1e60268361271a565b9150612e2982612dc2565b604082019050919050565b60006020820190508181036000830152612e4d81612e11565b9050919050565b6000612e5f82612570565b9150612e6a83612570565b9250828202612e7881612570565b91508282048414831517612e8f57612e8e6126b7565b5b5092915050565b7f4e487b7100000000000000000000000000000000000000000000000000000000600052601260045260246000fd5b6000612ed082612570565b9150612edb83612570565b925082612eeb57612eea612e96565b5b828204905092915050565b7f4e487b7100000000000000000000000000000000000000000000000000000000600052604160045260246000fd5b7f4e487b7100000000000000000000000000000000000000000000000000000000600052603260045260246000fd5b6000612f5f82612570565b91507fffffffffffffffffffffffffffffffffffffffffffffffffffffffffffffffff8203612f9157612f906126b7565b5b600182019050919050565b7f5468657265206973206e6f206d6f6e6e657920746f2044434100000000000000600082015250565b6000612fd260198361271a565b9150612fdd82612f9c565b602082019050919050565b6000602082019050818103600083015261300181612fc5565b9050919050565b61301181612622565b82525050565b600062ffffff82169050919050565b61302f81613017565b82525050565b61303e81612570565b82525050565b61304d81612602565b82525050565b6101008201600082015161306a6000850182613008565b50602082015161307d6020850182613008565b5060408201516130906040850182613026565b5060608201516130a36060850182613008565b5060808201516130b66080850182613035565b5060a08201516130c960a0850182613035565b5060c08201516130dc60c0850182613035565b5060e08201516130ef60e0850182613044565b50505050565b60006101008201905061310b6000830184613053565b92915050565b7f4f776e61626c653a2063616c6c6572206973206e6f7420746865206f776e6572600082015250565b600061314760208361271a565b915061315282613111565b602082019050919050565b600060208201905081810360008301526131768161313a565b905091905056fea2646970667358221220e412858440c9d645ebb084430da2d89c88d2139b012307eb2a9993c95e3b7d5964736f6c63430008120033",
  "immutableReferences": {},
  "source": "// SPDX-License-Identifier: MIT\npragma solidity ^0.8.18;\n\nimport \"./BokkyPooBahsDateTimeLibrary.sol\";\nimport \"../node_modules/@openzeppelin/contracts/access/Ownable.sol\";\n\n\n/// @title StackNDCA\n/// @author Guilhain Averlant\n/// @notice A smart contract for dollar cost averaging into Ethereum and distributing StackN tokens\n/// @dev This contract interacts with IERC20, ISwapRouter, IWETH, and StackNTocken interfaces to perform its functions\n\n\ninterface IERC20 {\n    function allowance(address owner, address spender) external view returns (uint256);\n    function approve(address spender, uint256 amount) external returns (bool);\n    function balanceOf(address account) external view returns (uint256);\n    function deposit() external payable;\n    function transfer(address to, uint256 amount) external returns (bool);\n    function transferFrom(address from, address to, uint256 amount) external returns (bool);\n}\n\ninterface ISwapRouter {\n    struct ExactInputSingleParams {\n        address tokenIn;\n        address tokenOut;\n        uint24 fee;\n        address recipient;\n        uint256 deadline;\n        uint256 amountIn;\n        uint256 amountOutMinimum;\n        uint160 sqrtPriceLimitX96;\n    }\n \n    /// @notice Swaps `amountIn` of one token for as much as possible of another token\n    /// @param params The parameters necessary for the swap, encoded as `ExactInputSingleParams` in calldata\n    /// @return amountOut The amount of the received token\n    function exactInputSingle(ExactInputSingleParams calldata params) external payable returns (uint256 amountOut);\n}\n\n\ninterface IWETH {\n    function withdraw(uint256 amount) external;\n}\n\n\ninterface StackNTocken {\n    function mintStackN(address _account, uint _amount) external;\n}\n\ncontract StackNDCAMinute is Ownable {\n    ISwapRouter constant swapRouter = ISwapRouter(0xE592427A0AEce92De3Edee1F18E0157C05861564);\n\n    address public usdcSmartContractAddress=0x07865c6E87B9F70255377e024ace6630C1Eaa37F;  //goerli\n    address public weth9SmartContractAddress=0xB4FBF271143F4FBf7B91A5ded31805e42b2208d6; // goerli\n    address public stackNTockenSmartContractAddress;\n\n    uint stackNMonthlyMint = 2000000000000000000000;\n\n    uint24 constant poolFee = 3000;\n    uint256 usdcStackValue;\n    uint256 usdcDcaValue;\n\n    uint256 public lastExecutionTime;\n    \n    struct userAccount {\n        uint256 usdcAmount;\n        uint256 usdcDCA;\n        uint256 ethAmount;\n        uint256 stackNAmount;\n        uint256 usdcStackAmount;\n        uint256 previousMonthUsdcDcaAmount;\n    }\n\n    mapping (address => userAccount) userAccounts;\n    \n    address[] dcaUsers;\n    \n    event UserDepositUsdc(address indexed user, uint256 amount);\n    event UserWithdrawUsdc(address indexed user, uint256 amount);\n    event UserWithdrawEth(address indexed user, uint256 amount);\n    event UserWithdrawStackN(address indexed user, uint256 amount);\n    event UserDcaAmount(address indexed user, uint256 amount);\n    event usdcValueToSwap(uint usdcValue);\n    event usdcValueToStack(uint usdcValue);\n    event wethValueSwaped(uint wethValue);\n\n    constructor() {\n        lastExecutionTime = BokkyPooBahsDateTimeLibrary.subMinutes(block.timestamp, 1);\n    }\n\n    // @notice Modifier to ensure that a function is executed only once per minute\n    // @dev Use this modifier to restrict functions or actions that should be allowed \n    // @dev to execute only once per minute. This modifier should be placed before the\n    // @dev function or action that requires the check.\n    modifier onlyOncePerMinute() {\n        uint nowTimestamp = block.timestamp;\n        require(BokkyPooBahsDateTimeLibrary.diffMinutes(lastExecutionTime, nowTimestamp) >= 1, \"This function can only be called once each minutes\");\n        lastExecutionTime = nowTimestamp;\n        _;\n    }\n\n    // @notice Modifier to check if the DCA pool is full before allowing an action\n    // @dev Use this modifier to restrict functions or actions that require the DCA pool not\n    // @dev to be full. This modifier should be placed before the function or action that requires\n    // @dev the check.\n    modifier checkPoolIsFUll() {\n        if (userAccounts[msg.sender].usdcDCA == 0) {\n            require(dcaUsers.length + 1 < 20000, \"dca pool is full\");\n        }\n        _;\n    }\n\n    // @notice Allows a user to deposit USDC tokens into the contract for DCA purposes\n    // @param amount The amount of USDC tokens to be deposited by the user\n    // @dev The function should handle the transfer of USDC tokens from the user to the contract. \n    // @dev Ensure that the user has approved the contract to transfer USDC on their behalf \n    // @dev before executing the transfer. Update any relevant data structures or mappings to \n    // @dev track the user's deposit and DCA settings.\n    function depositUsdc(uint256 amountIn) public virtual checkPoolIsFUll {\n        require(amountIn >= 100000000, \"minimum deposit is 100 usdc\");\n        IERC20(usdcSmartContractAddress).transferFrom(msg.sender, address(this), amountIn);\n        userAccounts[msg.sender].usdcAmount += amountIn;\n        emit UserDepositUsdc(msg.sender, amountIn);\n    }\n\n    // @notice Calculates the amount of a token to be purchased based on the user's DCA settings\n    // @param user The address of the user for whom the DCA amount is being calculated\n    // @return dcaAmount The calculated amount of the token to be purchased according to the user's DCA settings\n    // @dev This function calculates the DCA amount for a user based on their settings\n    // @dev (e.g., frequency, duration, and total amount). Implement the logic to \n    // @dev retrieve the user's DCA settings and perform the necessary calculations.\n    function dcaAmount(uint256 amountIn) public checkPoolIsFUll {\n        require(userAccounts[msg.sender].usdcAmount>0, \"you have no monney in dca pool\");\n        require(amountIn>=10000000, \"minimum dca is 10 usdc\");\n        require(userAccounts[msg.sender].usdcAmount>=amountIn, \"your dca must be superior than your deposit\");\n        if (userAccounts[msg.sender].usdcDCA == 0) {\n            dcaUsers.push(msg.sender);\n        }\n        userAccounts[msg.sender].usdcDCA = amountIn;\n        emit UserDcaAmount(msg.sender, amountIn);\n    }\n\n    // @notice Allows users to withdraw their USDC balance from the contract\n    // @param amount The amount of USDC (in smallest unit) the user wishes to withdraw\n    // @dev This function should be called when a user wants to withdraw their USDC\n    // @dev from the contract. Ensure the user has sufficient balance before \n    // @dev processing the withdrawal.\n    function widthdrawUsdc() public {\n        require(userAccounts[msg.sender].usdcAmount > 0, \"no usdc on your account\");\n        uint amountOu = userAccounts[msg.sender].usdcAmount;\n        userAccounts[msg.sender].usdcAmount = 0;\n        userAccounts[msg.sender].usdcDCA = 0;\n        userAccounts[msg.sender].stackNAmount = 0;\n        IERC20(usdcSmartContractAddress).transfer(msg.sender, amountOu);\n        emit UserWithdrawUsdc(msg.sender, amountOu);\n    }\n\n    // @notice Allows users to withdraw their ETH balance from the contract\n    // @param amount The amount of ETH (in wei) the user wishes to withdraw\n    // @dev This function should be called when a user wants to withdraw their\n    // @dev ETH from the contract. Ensure the user has sufficient balance before\n    // @dev processing the withdrawal.\n    function widthdrawEth() public {\n        require(userAccounts[msg.sender].ethAmount > 0, \"no eth on your account\");\n        uint amountOu = userAccounts[msg.sender].ethAmount;\n        userAccounts[msg.sender].ethAmount = 0;\n        IERC20(weth9SmartContractAddress).approve(address(this), amountOu);\n        IWETH(weth9SmartContractAddress).withdraw(amountOu);\n        (bool success, ) = msg.sender.call{value: amountOu}(\"\");\n        require(success, \"Transfer failed.\");\n        emit UserWithdrawEth(msg.sender, amountOu);\n    }\n\n    // @notice Allows users to withdraw their StackN tokens from the contract\n    // @param amount The amount of StackN tokens the user wishes to withdraw\n    // @dev This function should be called when a user wants to withdraw their \n    // @dev StackN tokens from the contract. Ensure the user has sufficient\n    // @dev balance before processing the withdrawal.\n    function widthdrawStackN() public {\n        require(userAccounts[msg.sender].stackNAmount > 0, \"no StackN on your account\");\n        uint amountOu = userAccounts[msg.sender].stackNAmount;\n        userAccounts[msg.sender].stackNAmount = 0;\n        IERC20(stackNTockenSmartContractAddress).transfer(msg.sender, amountOu);\n        emit UserWithdrawStackN(msg.sender, amountOu);\n    }\n    \n    // @notice Retrieves the current value of the user's dollar cost average (DCA) position in the contract\n    // @param user The address of the user for whom the DCA value is being calculated\n    // @return dcaValue The calculated DCA value for the user, based on their contributions and the current token prices\n    // @dev This function should be called when you want to get the DCA value of a user's position within the contract\n    function getDcaValue() private { \n        address[] memory dcaUsersArray = new address[](dcaUsers.length);\n        uint dcaUsersArrayIndex = 0;\n        usdcDcaValue=0;\n        usdcStackValue=0;\n        for (uint i = 0; i < dcaUsers.length; i++) {\n            address user = dcaUsers[i];\n            // compute DCA usdc value\n            if (userAccounts[user].usdcAmount > 0) {\n                if (userAccounts[user].usdcAmount >= userAccounts[user].usdcStackAmount) {\n                    usdcStackValue += userAccounts[user].usdcStackAmount;\n                }\n            }\n            if (userAccounts[user].usdcDCA > 0) {\n                if (userAccounts[user].usdcAmount >= userAccounts[user].usdcDCA) {\n                    userAccounts[user].usdcAmount -= userAccounts[user].usdcDCA;\n                    userAccounts[user].previousMonthUsdcDcaAmount = userAccounts[user].usdcStackAmount;\n                    userAccounts[user].usdcStackAmount = userAccounts[user].usdcAmount;\n                    usdcDcaValue += userAccounts[user].usdcDCA;\n                    dcaUsersArray[dcaUsersArrayIndex] = user;\n                    dcaUsersArrayIndex++;\n                } else {\n                    userAccounts[user].usdcDCA = 0;\n                }\n            }\n        }\n        require(usdcDcaValue>0, \"There is no monney to DCA\");\n\n        if (usdcDcaValue > 0) {\n            // Rduire la taille du tableau dcaUsersArray  la taille relle\n            assembly {\n                mstore(dcaUsersArray, dcaUsersArrayIndex)\n            }\n        }\n        \n        dcaUsers = dcaUsersArray;\n        emit usdcValueToSwap(usdcDcaValue);\n        emit usdcValueToStack(usdcStackValue);\n    }\n\n    // @notice Swaps an exact amount of ETH for the maximum amount of another token on a Uniswap-like exchange\n    // @param tokenOut The address of the token to receive in exchange for ETH\n    // @param amountIn The exact amount of ETH to be swapped\n    // @param amountOutMin The minimum amount of the output token to receive from the swap\n    // @param path The Uniswap-like exchange path to follow for the swap, starting with WETH and ending with the desired output token\n    // @param deadline The timestamp after which the swap will be considered invalid\n    // @return amountOut The amount of the output token received from the swap\n    // @dev This function should be called when the user wants to execute a swap from ETH to another token, ensuring the amounts and path are set correctly\n    function swapExactInputEth(uint256 amountIn) private {\n \n        // autoriser uniswap  utiliser nos tokens\n        IERC20(usdcSmartContractAddress).approve(address(swapRouter), amountIn);\n        \n        //Creation des paramtres pour l'appel du swap\n        ISwapRouter.ExactInputSingleParams memory params =\n            ISwapRouter.ExactInputSingleParams({\n                tokenIn: usdcSmartContractAddress,\n                tokenOut: weth9SmartContractAddress,\n                fee: poolFee,\n                recipient: address(this),\n                deadline: block.timestamp,\n                amountIn: amountIn,\n                amountOutMinimum: 0, // put chainlink oracle here with slipage\n                sqrtPriceLimitX96: 0\n            });\n \n        // effectuer le swap, WETH sera transfr au smart contract\n        swapRouter.exactInputSingle(params);\n    }\n\n    // @notice Distributes the swapped WETH among the DCA users based on their proportional USDC amounts and mints StackN tokens\n    // @param _usdcDcaValue The total amount of USDC used for DCA\n    // @param _usdcStackValue The total amount of USDC used for StackN rewards\n    // @param _weth09DcaValue The total amount of WETH obtained from swapping the USDC\n    // @dev This function should be called internally after the DCA process is executed\n    function splitWethBalancetoUsers(uint _usdcDcaValue, uint _usdcStackValue,  uint _weth09DcaValue) private {\n        // add stack to make dca launcher\n        userAccounts[msg.sender].stackNAmount += stackNMonthlyMint * 25 / 100;\n        // for first make DCA or if users are  widthdraw then deposit usdc (in the same month)\n        // they are by definition no usdc stack during the first month, \n        // then the 75% of stackNMonthlyMint is added to the dca launcher\n        if (_usdcStackValue == 0) {\n            userAccounts[msg.sender].stackNAmount += stackNMonthlyMint * 75 / 100;\n        }\n        \n        for (uint i = 0; i < dcaUsers.length; i++) {\n            address user = dcaUsers[i];\n            if (userAccounts[user].usdcDCA > 0) {\n                // weth split\n                uint weth09Amount = _weth09DcaValue * userAccounts[user].usdcDCA / _usdcDcaValue;\n                userAccounts[user].ethAmount += weth09Amount;\n\n                // StackN token split\n                if (_usdcStackValue > 0) {\n                    // StackN token split\n                    uint addStackN = (stackNMonthlyMint * 75 / 100) * userAccounts[user].previousMonthUsdcDcaAmount / _usdcStackValue;\n                    userAccounts[user].stackNAmount += addStackN;\n                }\n            }\n        }\n    }\n\n    // @notice Executes the Dollar-Cost Averaging (DCA) process for all eligible users\n    // @dev This function can only be called once per minute\n    // @dev Make sure the stackNTockenSmartContractAddress is set before calling this function\n    function makeDCA() public onlyOncePerMinute {\n        require(stackNTockenSmartContractAddress!=address(0), \"stackNTockenSmartContractAddress variable is not set\");\n\n        // update dcaUsers and usdcDcaValue\n        getDcaValue();\n        \n        uint weth09DcaValue = getWethContractBalance();\n        \n        // swap usdc to eth \n        swapExactInputEth(usdcDcaValue);\n\n        // recompute weth09 balance to make weth09 distribution\n        weth09DcaValue = getWethContractBalance() - weth09DcaValue;\n        emit wethValueSwaped(weth09DcaValue);\n\n        // minth 2000 StackNToken\n        StackNTocken(stackNTockenSmartContractAddress).mintStackN(address(this), stackNMonthlyMint);\n        \n        // split weth balance to dca users / mint stackN and split to StackN users\n        splitWethBalancetoUsers(usdcDcaValue, usdcStackValue, weth09DcaValue);\n    }\n\n    // @notice Retrieves the StackN token balance of the smart contract\n    // @return The StackN token balance of the smart contract\n    function getStackNContractBalance() public view returns (uint256) {\n        return IERC20(stackNTockenSmartContractAddress).balanceOf(address(this));\n    }\n\n    // @notice Retrieves the Wrapped Ether (WETH) balance of the smart contract\n    // @return The WETH balance of the smart contract\n    function getWethContractBalance() public view returns (uint256) {\n        return IERC20(weth9SmartContractAddress).balanceOf(address(this));\n    }\n\n    // @notice Retrieves the user's current USDC balance\n    // @return The user's USDC balance\n    function getMyUsdcBalance() public view returns (uint) {\n        return userAccounts[msg.sender].usdcAmount;\n    }\n\n    // @notice Retrieves the user's current Ether balance\n    // @return The user's Ether balance\n    function getMyEthBalance() public view returns (uint) {\n        return userAccounts[msg.sender].ethAmount;\n    }\n\n    // @notice Retrieves the user's current StackN token balance\n    // @return The user's StackN token balance\n    function getMyStackNBalance() public view returns (uint) {\n        return userAccounts[msg.sender].stackNAmount;\n    }\n\n    // @notice Retrieves the user's current USDC amount allocated for Dollar Cost Averaging (DCA)\n    // @param user The user address for which to retrieve the DCA amount\n    // @return The user's USDC amount allocated for DCA\n    function getMyUsdcDca() public view returns (uint) {\n        return userAccounts[msg.sender].usdcDCA;\n    }\n\n    // @notice Set the StackN token contract address\n    // @param _address The address of the StackN token contract\n    function setStackNTockenAddress(address _address) public onlyOwner {\n        stackNTockenSmartContractAddress =_address;\n    }\n\n    // Fallback function\n    receive() external payable {}\n}",
  "sourcePath": "/opt/code/projet/truffle/contracts/StackNDCA_minute.sol",
  "compiler": {
    "name": "solc",
    "version": "0.8.18+commit.87f61d96.Emscripten.clang"
  },
  "schemaVersion": "3.4.13",
  "updatedAt": "2023-04-09T15:15:55.313Z",
  "devdoc": {
    "kind": "dev",
    "methods": {
      "owner()": {
        "details": "Returns the address of the current owner."
      },
      "renounceOwnership()": {
        "details": "Leaves the contract without owner. It will not be possible to call `onlyOwner` functions anymore. Can only be called by the current owner. NOTE: Renouncing ownership will leave the contract without an owner, thereby removing any functionality that is only available to the owner."
      },
      "transferOwnership(address)": {
        "details": "Transfers ownership of the contract to a new account (`newOwner`). Can only be called by the current owner."
      }
    },
    "version": 1
  },
  "userdoc": {
    "kind": "user",
    "methods": {},
    "version": 1
  }
}