{
  "contractName": "StackNDCA",
  "abi": [
    {
      "inputs": [],
      "stateMutability": "nonpayable",
      "type": "constructor"
    },
    {
      "anonymous": false,
      "inputs": [
        {
          "indexed": true,
          "internalType": "address",
          "name": "previousOwner",
          "type": "address"
        },
        {
          "indexed": true,
          "internalType": "address",
          "name": "newOwner",
          "type": "address"
        }
      ],
      "name": "OwnershipTransferred",
      "type": "event"
    },
    {
      "anonymous": false,
      "inputs": [
        {
          "indexed": true,
          "internalType": "address",
          "name": "user",
          "type": "address"
        },
        {
          "indexed": false,
          "internalType": "uint256",
          "name": "amount",
          "type": "uint256"
        }
      ],
      "name": "UserDcaAmount",
      "type": "event"
    },
    {
      "anonymous": false,
      "inputs": [
        {
          "indexed": true,
          "internalType": "address",
          "name": "user",
          "type": "address"
        },
        {
          "indexed": false,
          "internalType": "uint256",
          "name": "amount",
          "type": "uint256"
        }
      ],
      "name": "UserDepositUsdc",
      "type": "event"
    },
    {
      "anonymous": false,
      "inputs": [
        {
          "indexed": true,
          "internalType": "address",
          "name": "user",
          "type": "address"
        },
        {
          "indexed": false,
          "internalType": "uint256",
          "name": "amount",
          "type": "uint256"
        }
      ],
      "name": "UserWithdrawEth",
      "type": "event"
    },
    {
      "anonymous": false,
      "inputs": [
        {
          "indexed": true,
          "internalType": "address",
          "name": "user",
          "type": "address"
        },
        {
          "indexed": false,
          "internalType": "uint256",
          "name": "amount",
          "type": "uint256"
        }
      ],
      "name": "UserWithdrawStackN",
      "type": "event"
    },
    {
      "anonymous": false,
      "inputs": [
        {
          "indexed": true,
          "internalType": "address",
          "name": "user",
          "type": "address"
        },
        {
          "indexed": false,
          "internalType": "uint256",
          "name": "amount",
          "type": "uint256"
        }
      ],
      "name": "UserWithdrawUsdc",
      "type": "event"
    },
    {
      "anonymous": false,
      "inputs": [
        {
          "indexed": false,
          "internalType": "uint256",
          "name": "usdcValue",
          "type": "uint256"
        }
      ],
      "name": "usdcValueToStack",
      "type": "event"
    },
    {
      "anonymous": false,
      "inputs": [
        {
          "indexed": false,
          "internalType": "uint256",
          "name": "usdcValue",
          "type": "uint256"
        }
      ],
      "name": "usdcValueToSwap",
      "type": "event"
    },
    {
      "anonymous": false,
      "inputs": [
        {
          "indexed": false,
          "internalType": "uint256",
          "name": "wethValue",
          "type": "uint256"
        }
      ],
      "name": "wethValueSwaped",
      "type": "event"
    },
    {
      "inputs": [],
      "name": "lastExecutionTime",
      "outputs": [
        {
          "internalType": "uint256",
          "name": "",
          "type": "uint256"
        }
      ],
      "stateMutability": "view",
      "type": "function"
    },
    {
      "inputs": [],
      "name": "owner",
      "outputs": [
        {
          "internalType": "address",
          "name": "",
          "type": "address"
        }
      ],
      "stateMutability": "view",
      "type": "function"
    },
    {
      "inputs": [],
      "name": "renounceOwnership",
      "outputs": [],
      "stateMutability": "nonpayable",
      "type": "function"
    },
    {
      "inputs": [],
      "name": "stackNTockenSmartContractAddress",
      "outputs": [
        {
          "internalType": "address",
          "name": "",
          "type": "address"
        }
      ],
      "stateMutability": "view",
      "type": "function"
    },
    {
      "inputs": [
        {
          "internalType": "address",
          "name": "newOwner",
          "type": "address"
        }
      ],
      "name": "transferOwnership",
      "outputs": [],
      "stateMutability": "nonpayable",
      "type": "function"
    },
    {
      "inputs": [],
      "name": "usdcSmartContractAddress",
      "outputs": [
        {
          "internalType": "address",
          "name": "",
          "type": "address"
        }
      ],
      "stateMutability": "view",
      "type": "function"
    },
    {
      "inputs": [],
      "name": "weth9SmartContractAddress",
      "outputs": [
        {
          "internalType": "address",
          "name": "",
          "type": "address"
        }
      ],
      "stateMutability": "view",
      "type": "function"
    },
    {
      "stateMutability": "payable",
      "type": "receive"
    },
    {
      "inputs": [
        {
          "internalType": "uint256",
          "name": "amountIn",
          "type": "uint256"
        }
      ],
      "name": "depositUsdc",
      "outputs": [],
      "stateMutability": "nonpayable",
      "type": "function"
    },
    {
      "inputs": [
        {
          "internalType": "uint256",
          "name": "amountIn",
          "type": "uint256"
        }
      ],
      "name": "dcaAmount",
      "outputs": [],
      "stateMutability": "nonpayable",
      "type": "function"
    },
    {
      "inputs": [],
      "name": "widthdrawUsdc",
      "outputs": [],
      "stateMutability": "nonpayable",
      "type": "function"
    },
    {
      "inputs": [],
      "name": "widthdrawEth",
      "outputs": [],
      "stateMutability": "nonpayable",
      "type": "function"
    },
    {
      "inputs": [],
      "name": "widthdrawStackN",
      "outputs": [],
      "stateMutability": "nonpayable",
      "type": "function"
    },
    {
      "inputs": [],
      "name": "makeDCA",
      "outputs": [],
      "stateMutability": "nonpayable",
      "type": "function"
    },
    {
      "inputs": [],
      "name": "getStackNContractBalance",
      "outputs": [
        {
          "internalType": "uint256",
          "name": "",
          "type": "uint256"
        }
      ],
      "stateMutability": "view",
      "type": "function"
    },
    {
      "inputs": [],
      "name": "getWethContractBalance",
      "outputs": [
        {
          "internalType": "uint256",
          "name": "",
          "type": "uint256"
        }
      ],
      "stateMutability": "view",
      "type": "function"
    },
    {
      "inputs": [],
      "name": "getMyUsdcBalance",
      "outputs": [
        {
          "internalType": "uint256",
          "name": "",
          "type": "uint256"
        }
      ],
      "stateMutability": "view",
      "type": "function"
    },
    {
      "inputs": [],
      "name": "getMyEthBalance",
      "outputs": [
        {
          "internalType": "uint256",
          "name": "",
          "type": "uint256"
        }
      ],
      "stateMutability": "view",
      "type": "function"
    },
    {
      "inputs": [],
      "name": "getMyStackNBalance",
      "outputs": [
        {
          "internalType": "uint256",
          "name": "",
          "type": "uint256"
        }
      ],
      "stateMutability": "view",
      "type": "function"
    },
    {
      "inputs": [],
      "name": "getMyUsdcDca",
      "outputs": [
        {
          "internalType": "uint256",
          "name": "",
          "type": "uint256"
        }
      ],
      "stateMutability": "view",
      "type": "function"
    },
    {
      "inputs": [
        {
          "internalType": "address",
          "name": "_address",
          "type": "address"
        }
      ],
      "name": "setStackNTockenAddress",
      "outputs": [],
      "stateMutability": "nonpayable",
      "type": "function"
    }
  ],
  "bytecode": "0x60806040527307865c6e87b9f70255377e024ace6630c1eaa37f600160006101000a81548173ffffffffffffffffffffffffffffffffffffffff021916908373ffffffffffffffffffffffffffffffffffffffff16021790555073b4fbf271143f4fbf7b91a5ded31805e42b2208d6600260006101000a81548173ffffffffffffffffffffffffffffffffffffffff021916908373ffffffffffffffffffffffffffffffffffffffff160217905550686c6b935b8bbd400000600455348015620000c857600080fd5b50620000e9620000dd6200010d60201b60201c565b6200011560201b60201c565b62000101426001620001d960201b620017521760201c565b60078190555062000a78565b600033905090565b60008060009054906101000a900473ffffffffffffffffffffffffffffffffffffffff169050816000806101000a81548173ffffffffffffffffffffffffffffffffffffffff021916908373ffffffffffffffffffffffffffffffffffffffff1602179055508173ffffffffffffffffffffffffffffffffffffffff168173ffffffffffffffffffffffffffffffffffffffff167f8be0079c531659141344cd1fd0a4f28419497f9722a3daafe3b4186f6b6457e060405160405180910390a35050565b600080600080620002006201518087620001f49190620007b0565b620002ef60201b60201c565b925092509250600085600184620002189190620007e8565b600c8662000227919062000823565b6200023391906200086e565b6200023f9190620007e8565b9050600c81620002509190620007b0565b93506001600c82620002639190620008a9565b6200026f91906200086e565b92506000620002858585620004c660201b60201c565b90508083111562000294578092505b6201518088620002a59190620008a9565b62015180620002bc8787876200056560201b60201c565b620002c8919062000823565b620002d491906200086e565b955087861115620002e457600080fd5b505050505092915050565b600080600080849050600062253d8c62010bd9836200030f9190620008eb565b6200031b9190620008eb565b9050600062023ab182600462000332919062000936565b6200033e9190620009ba565b9050600460038262023ab162000355919062000936565b620003619190620008eb565b6200036d9190620009ba565b826200037a919062000a2e565b9150600062164b09600184620003919190620008eb565b610fa0620003a0919062000936565b620003ac9190620009ba565b9050601f6004826105b5620003c2919062000936565b620003ce9190620009ba565b84620003db919062000a2e565b620003e79190620008eb565b9250600061098f846050620003fd919062000936565b620004099190620009ba565b9050600060508261098f6200041f919062000936565b6200042b9190620009ba565b8562000438919062000a2e565b9050600b82620004499190620009ba565b945084600c6200045a919062000936565b600283620004699190620008eb565b62000475919062000a2e565b9150848360318662000488919062000a2e565b606462000496919062000936565b620004a29190620008eb565b620004ae9190620008eb565b92508298508197508096505050505050509193909250565b60006001821480620004d85750600382145b80620004e45750600582145b80620004f05750600782145b80620004fc5750600882145b80620005085750600a82145b80620005145750600c82145b156200052457601f90506200055f565b600282146200053757601e90506200055e565b6200054883620006f760201b60201c565b6200055557601c62000558565b601d5b60ff1690505b5b92915050565b60006107b28410156200057757600080fd5b600084905060008490506000849050600062253d8c60046064600c600e87620005a1919062000a2e565b620005ad9190620009ba565b61132488620005bd9190620008eb565b620005c99190620008eb565b620005d59190620009ba565b6003620005e3919062000936565b620005ef9190620009ba565b600c80600c600e8862000603919062000a2e565b6200060f9190620009ba565b6200061b919062000936565b6002876200062a919062000a2e565b62000636919062000a2e565b61016f62000645919062000936565b620006519190620009ba565b6004600c600e8862000664919062000a2e565b620006709190620009ba565b6112c089620006809190620008eb565b6200068c9190620008eb565b6105b56200069b919062000936565b620006a79190620009ba565b617d4b86620006b7919062000a2e565b620006c39190620008eb565b620006cf9190620008eb565b620006db919062000a2e565b620006e7919062000a2e565b9050809450505050509392505050565b600080600483620007099190620008a9565b1480156200072657506000606483620007239190620008a9565b14155b806200074157506000610190836200073f9190620008a9565b145b9050919050565b6000819050919050565b7f4e487b7100000000000000000000000000000000000000000000000000000000600052601260045260246000fd5b7f4e487b7100000000000000000000000000000000000000000000000000000000600052601160045260246000fd5b6000620007bd8262000748565b9150620007ca8362000748565b925082620007dd57620007dc62000752565b5b828204905092915050565b6000620007f58262000748565b9150620008028362000748565b92508282039050818111156200081d576200081c62000781565b5b92915050565b6000620008308262000748565b91506200083d8362000748565b92508282026200084d8162000748565b9150828204841483151762000867576200086662000781565b5b5092915050565b60006200087b8262000748565b9150620008888362000748565b9250828201905080821115620008a357620008a262000781565b5b92915050565b6000620008b68262000748565b9150620008c38362000748565b925082620008d657620008d562000752565b5b828206905092915050565b6000819050919050565b6000620008f882620008e1565b91506200090583620008e1565b92508282019050828112156000831216838212600084121516171562000930576200092f62000781565b5b92915050565b60006200094382620008e1565b91506200095083620008e1565b92508282026200096081620008e1565b91507f800000000000000000000000000000000000000000000000000000000000000084146000841216156200099b576200099a62000781565b5b8282058414831517620009b357620009b262000781565b5b5092915050565b6000620009c782620008e1565b9150620009d483620008e1565b925082620009e757620009e662000752565b5b600160000383147f80000000000000000000000000000000000000000000000000000000000000008314161562000a235762000a2262000781565b5b828205905092915050565b600062000a3b82620008e1565b915062000a4883620008e1565b925082820390508181126000841216828213600085121516171562000a725762000a7162000781565b5b92915050565b6138448062000a886000396000f3fe6080604052600436106101235760003560e01c806373b379bd116100a0578063c3f75b4f11610064578063c3f75b4f14610360578063c634f83b14610377578063d370ff68146103a2578063f2fde38b146103cd578063f34b34d9146103f65761012a565b806373b379bd1461028957806384d235ea146102b45780638da5cb5b146102df5780639abf24db1461030a578063b0c25e29146103355761012a565b806325a9416f116100e757806325a9416f146101ee57806336363edd146102055780634f0119971461021c5780635dfba7b614610247578063715018a6146102725761012a565b80630709dec81461012f5780630b5583b11461015a5780631dd895df146101835780632357928e1461019a57806323ac191c146101c35761012a565b3661012a57005b600080fd5b34801561013b57600080fd5b5061014461041f565b6040516101519190612a76565b60405180910390f35b34801561016657600080fd5b50610181600480360381019061017c9190612ac2565b610469565b005b34801561018f57600080fd5b5061019861079f565b005b3480156101a657600080fd5b506101c160048036038101906101bc9190612ac2565b61099a565b005b3480156101cf57600080fd5b506101d8610bce565b6040516101e59190612a76565b60405180910390f35b3480156101fa57600080fd5b50610203610c71565b005b34801561021157600080fd5b5061021a610f07565b005b34801561022857600080fd5b50610231611247565b60405161023e9190612b30565b60405180910390f35b34801561025357600080fd5b5061025c61126d565b6040516102699190612a76565b60405180910390f35b34801561027e57600080fd5b506102876112b7565b005b34801561029557600080fd5b5061029e6112cb565b6040516102ab9190612a76565b60405180910390f35b3480156102c057600080fd5b506102c96112d1565b6040516102d69190612a76565b60405180910390f35b3480156102eb57600080fd5b506102f461131b565b6040516103019190612b30565b60405180910390f35b34801561031657600080fd5b5061031f611344565b60405161032c9190612a76565b60405180910390f35b34801561034157600080fd5b5061034a6113e7565b6040516103579190612a76565b60405180910390f35b34801561036c57600080fd5b50610375611431565b005b34801561038357600080fd5b5061038c611637565b6040516103999190612b30565b60405180910390f35b3480156103ae57600080fd5b506103b761165d565b6040516103c49190612b30565b60405180910390f35b3480156103d957600080fd5b506103f460048036038101906103ef9190612b77565b611683565b005b34801561040257600080fd5b5061041d60048036038101906104189190612b77565b611706565b005b6000600860003373ffffffffffffffffffffffffffffffffffffffff1673ffffffffffffffffffffffffffffffffffffffff16815260200190815260200160002060020154905090565b6000600860003373ffffffffffffffffffffffffffffffffffffffff1673ffffffffffffffffffffffffffffffffffffffff168152602001908152602001600020600101540361050957614e2060016009805490506104c89190612bd3565b10610508576040517f08c379a00000000000000000000000000000000000000000000000000000000081526004016104ff90612c64565b60405180910390fd5b5b6000600860003373ffffffffffffffffffffffffffffffffffffffff1673ffffffffffffffffffffffffffffffffffffffff168152602001908152602001600020600001541161058e576040517f08c379a000000000000000000000000000000000000000000000000000000000815260040161058590612cd0565b60405180910390fd5b629896808110156105d4576040517f08c379a00000000000000000000000000000000000000000000000000000000081526004016105cb90612d3c565b60405180910390fd5b80600860003373ffffffffffffffffffffffffffffffffffffffff1673ffffffffffffffffffffffffffffffffffffffff168152602001908152602001600020600001541015610659576040517f08c379a000000000000000000000000000000000000000000000000000000000815260040161065090612dce565b60405180910390fd5b6000600860003373ffffffffffffffffffffffffffffffffffffffff1673ffffffffffffffffffffffffffffffffffffffff1681526020019081526020016000206001015403610707576009339080600181540180825580915050600190039060005260206000200160009091909190916101000a81548173ffffffffffffffffffffffffffffffffffffffff021916908373ffffffffffffffffffffffffffffffffffffffff1602179055505b80600860003373ffffffffffffffffffffffffffffffffffffffff1673ffffffffffffffffffffffffffffffffffffffff168152602001908152602001600020600101819055503373ffffffffffffffffffffffffffffffffffffffff167f9bbb48649728751eaacdc76a015b854aedb92a2ae725b3969a25b70b6bc76b48826040516107949190612a76565b60405180910390a250565b600042905060016107b260075483611838565b10156107f3576040517f08c379a00000000000000000000000000000000000000000000000000000000081526004016107ea90612e60565b60405180910390fd5b80600781905550600073ffffffffffffffffffffffffffffffffffffffff16600360009054906101000a900473ffffffffffffffffffffffffffffffffffffffff1673ffffffffffffffffffffffffffffffffffffffff160361088b576040517f08c379a000000000000000000000000000000000000000000000000000000000815260040161088290612ef2565b60405180910390fd5b6108936118cb565b600061089d610bce565b90506108aa600654611f33565b806108b3610bce565b6108bd9190612f12565b90507f4fa6a1633b173a814e226dc5e555ac0a31a6fbb8907b1764c1d4abee012759cb816040516108ee9190612a76565b60405180910390a1600360009054906101000a900473ffffffffffffffffffffffffffffffffffffffff1673ffffffffffffffffffffffffffffffffffffffff1663b45a2812306004546040518363ffffffff1660e01b8152600401610955929190612f46565b600060405180830381600087803b15801561096f57600080fd5b505af1158015610983573d6000803e3d6000fd5b5050505061099660065460055483612160565b5050565b6000600860003373ffffffffffffffffffffffffffffffffffffffff1673ffffffffffffffffffffffffffffffffffffffff1681526020019081526020016000206001015403610a3a57614e2060016009805490506109f99190612bd3565b10610a39576040517f08c379a0000000000000000000000000000000000000000000000000000000008152600401610a3090612c64565b60405180910390fd5b5b6305f5e100811015610a81576040517f08c379a0000000000000000000000000000000000000000000000000000000008152600401610a7890612fbb565b60405180910390fd5b600160009054906101000a900473ffffffffffffffffffffffffffffffffffffffff1673ffffffffffffffffffffffffffffffffffffffff166323b872dd3330846040518463ffffffff1660e01b8152600401610ae093929190612fdb565b6020604051808303816000875af1158015610aff573d6000803e3d6000fd5b505050506040513d601f19601f82011682018060405250810190610b23919061304a565b5080600860003373ffffffffffffffffffffffffffffffffffffffff1673ffffffffffffffffffffffffffffffffffffffff1681526020019081526020016000206000016000828254610b769190612bd3565b925050819055503373ffffffffffffffffffffffffffffffffffffffff167fe6d713e7cf01ee63bae3de793f74a52024f62b69a7c6fe60fe8a81ef622734bc82604051610bc39190612a76565b60405180910390a250565b6000600260009054906101000a900473ffffffffffffffffffffffffffffffffffffffff1673ffffffffffffffffffffffffffffffffffffffff166370a08231306040518263ffffffff1660e01b8152600401610c2b9190612b30565b602060405180830381865afa158015610c48573d6000803e3d6000fd5b505050506040513d601f19601f82011682018060405250810190610c6c919061308c565b905090565b6000600860003373ffffffffffffffffffffffffffffffffffffffff1673ffffffffffffffffffffffffffffffffffffffff1681526020019081526020016000206000015411610cf6576040517f08c379a0000000000000000000000000000000000000000000000000000000008152600401610ced90613105565b60405180910390fd5b6000600860003373ffffffffffffffffffffffffffffffffffffffff1673ffffffffffffffffffffffffffffffffffffffff1681526020019081526020016000206000015490506000600860003373ffffffffffffffffffffffffffffffffffffffff1673ffffffffffffffffffffffffffffffffffffffff168152602001908152602001600020600001819055506000600860003373ffffffffffffffffffffffffffffffffffffffff1673ffffffffffffffffffffffffffffffffffffffff168152602001908152602001600020600101819055506000600860003373ffffffffffffffffffffffffffffffffffffffff1673ffffffffffffffffffffffffffffffffffffffff16815260200190815260200160002060030181905550600160009054906101000a900473ffffffffffffffffffffffffffffffffffffffff1673ffffffffffffffffffffffffffffffffffffffff1663a9059cbb33836040518363ffffffff1660e01b8152600401610e72929190612f46565b6020604051808303816000875af1158015610e91573d6000803e3d6000fd5b505050506040513d601f19601f82011682018060405250810190610eb5919061304a565b503373ffffffffffffffffffffffffffffffffffffffff167f852c5c2fff2106fe8867b2b603b96079280e26847688a4da8675df2faae4191e82604051610efc9190612a76565b60405180910390a250565b6000600860003373ffffffffffffffffffffffffffffffffffffffff1673ffffffffffffffffffffffffffffffffffffffff1681526020019081526020016000206002015411610f8c576040517f08c379a0000000000000000000000000000000000000000000000000000000008152600401610f8390613171565b60405180910390fd5b6000600860003373ffffffffffffffffffffffffffffffffffffffff1673ffffffffffffffffffffffffffffffffffffffff1681526020019081526020016000206002015490506000600860003373ffffffffffffffffffffffffffffffffffffffff1673ffffffffffffffffffffffffffffffffffffffff16815260200190815260200160002060020181905550600260009054906101000a900473ffffffffffffffffffffffffffffffffffffffff1673ffffffffffffffffffffffffffffffffffffffff1663095ea7b330836040518363ffffffff1660e01b8152600401611078929190612f46565b6020604051808303816000875af1158015611097573d6000803e3d6000fd5b505050506040513d601f19601f820116820180604052508101906110bb919061304a565b50600260009054906101000a900473ffffffffffffffffffffffffffffffffffffffff1673ffffffffffffffffffffffffffffffffffffffff16632e1a7d4d826040518263ffffffff1660e01b81526004016111179190612a76565b600060405180830381600087803b15801561113157600080fd5b505af1158015611145573d6000803e3d6000fd5b5050505060003373ffffffffffffffffffffffffffffffffffffffff168260405161116f906131c2565b60006040518083038185875af1925050503d80600081146111ac576040519150601f19603f3d011682016040523d82523d6000602084013e6111b1565b606091505b50509050806111f5576040517f08c379a00000000000000000000000000000000000000000000000000000000081526004016111ec90613223565b60405180910390fd5b3373ffffffffffffffffffffffffffffffffffffffff167f654c7a7e59538b4e27a577ef2208b1f7cdcaf35938c4bb6288c945261702a56f8360405161123b9190612a76565b60405180910390a25050565b600260009054906101000a900473ffffffffffffffffffffffffffffffffffffffff1681565b6000600860003373ffffffffffffffffffffffffffffffffffffffff1673ffffffffffffffffffffffffffffffffffffffff16815260200190815260200160002060030154905090565b6112bf61249a565b6112c96000612518565b565b60075481565b6000600860003373ffffffffffffffffffffffffffffffffffffffff1673ffffffffffffffffffffffffffffffffffffffff16815260200190815260200160002060010154905090565b60008060009054906101000a900473ffffffffffffffffffffffffffffffffffffffff16905090565b6000600360009054906101000a900473ffffffffffffffffffffffffffffffffffffffff1673ffffffffffffffffffffffffffffffffffffffff166370a08231306040518263ffffffff1660e01b81526004016113a19190612b30565b602060405180830381865afa1580156113be573d6000803e3d6000fd5b505050506040513d601f19601f820116820180604052508101906113e2919061308c565b905090565b6000600860003373ffffffffffffffffffffffffffffffffffffffff1673ffffffffffffffffffffffffffffffffffffffff16815260200190815260200160002060000154905090565b6000600860003373ffffffffffffffffffffffffffffffffffffffff1673ffffffffffffffffffffffffffffffffffffffff16815260200190815260200160002060030154116114b6576040517f08c379a00000000000000000000000000000000000000000000000000000000081526004016114ad9061328f565b60405180910390fd5b6000600860003373ffffffffffffffffffffffffffffffffffffffff1673ffffffffffffffffffffffffffffffffffffffff1681526020019081526020016000206003015490506000600860003373ffffffffffffffffffffffffffffffffffffffff1673ffffffffffffffffffffffffffffffffffffffff16815260200190815260200160002060030181905550600360009054906101000a900473ffffffffffffffffffffffffffffffffffffffff1673ffffffffffffffffffffffffffffffffffffffff1663a9059cbb33836040518363ffffffff1660e01b81526004016115a2929190612f46565b6020604051808303816000875af11580156115c1573d6000803e3d6000fd5b505050506040513d601f19601f820116820180604052508101906115e5919061304a565b503373ffffffffffffffffffffffffffffffffffffffff167f97e87c86a1a50a83500d5e4838e699546b2fbbf7d2cdfc6653a5a496c952a0628260405161162c9190612a76565b60405180910390a250565b600360009054906101000a900473ffffffffffffffffffffffffffffffffffffffff1681565b600160009054906101000a900473ffffffffffffffffffffffffffffffffffffffff1681565b61168b61249a565b600073ffffffffffffffffffffffffffffffffffffffff168173ffffffffffffffffffffffffffffffffffffffff16036116fa576040517f08c379a00000000000000000000000000000000000000000000000000000000081526004016116f190613321565b60405180910390fd5b61170381612518565b50565b61170e61249a565b80600360006101000a81548173ffffffffffffffffffffffffffffffffffffffff021916908373ffffffffffffffffffffffffffffffffffffffff16021790555050565b60008060008061176f620151808761176a9190613370565b6125dc565b9250925092506000856001846117859190612f12565b600c8661179291906133a1565b61179c9190612bd3565b6117a69190612f12565b9050600c816117b59190613370565b93506001600c826117c691906133e3565b6117d09190612bd3565b925060006117de858561277b565b9050808311156117ec578092505b62015180886117fb91906133e3565b6201518061180a878787612806565b61181491906133a1565b61181e9190612bd3565b95508786111561182d57600080fd5b505050505092915050565b60008183111561184757600080fd5b600080611861620151808661185c9190613370565b6125dc565b5091509150600080611880620151808761187b9190613370565b6125dc565b509150915082600c8561189391906133a1565b82600c856118a191906133a1565b6118ab9190612bd3565b6118b59190612f12565b6118bf9190612f12565b94505050505092915050565b600060098054905067ffffffffffffffff8111156118ec576118eb613414565b5b60405190808252806020026020018201604052801561191a5781602001602082028036833780820191505090505b509050600080600681905550600060058190555060005b600980549050811015611e515760006009828154811061195457611953613443565b5b9060005260206000200160009054906101000a900473ffffffffffffffffffffffffffffffffffffffff1690506000600860008373ffffffffffffffffffffffffffffffffffffffff1673ffffffffffffffffffffffffffffffffffffffff168152602001908152602001600020600001541115611ab457600860008273ffffffffffffffffffffffffffffffffffffffff1673ffffffffffffffffffffffffffffffffffffffff16815260200190815260200160002060040154600860008373ffffffffffffffffffffffffffffffffffffffff1673ffffffffffffffffffffffffffffffffffffffff1681526020019081526020016000206000015410611ab357600860008273ffffffffffffffffffffffffffffffffffffffff1673ffffffffffffffffffffffffffffffffffffffff1681526020019081526020016000206004015460056000828254611aab9190612bd3565b925050819055505b5b6000600860008373ffffffffffffffffffffffffffffffffffffffff1673ffffffffffffffffffffffffffffffffffffffff168152602001908152602001600020600101541115611e3d57600860008273ffffffffffffffffffffffffffffffffffffffff1673ffffffffffffffffffffffffffffffffffffffff16815260200190815260200160002060010154600860008373ffffffffffffffffffffffffffffffffffffffff1673ffffffffffffffffffffffffffffffffffffffff1681526020019081526020016000206000015410611df357600860008273ffffffffffffffffffffffffffffffffffffffff1673ffffffffffffffffffffffffffffffffffffffff16815260200190815260200160002060010154600860008373ffffffffffffffffffffffffffffffffffffffff1673ffffffffffffffffffffffffffffffffffffffff1681526020019081526020016000206000016000828254611c1e9190612f12565b92505081905550600860008273ffffffffffffffffffffffffffffffffffffffff1673ffffffffffffffffffffffffffffffffffffffff16815260200190815260200160002060040154600860008373ffffffffffffffffffffffffffffffffffffffff1673ffffffffffffffffffffffffffffffffffffffff16815260200190815260200160002060050181905550600860008273ffffffffffffffffffffffffffffffffffffffff1673ffffffffffffffffffffffffffffffffffffffff16815260200190815260200160002060000154600860008373ffffffffffffffffffffffffffffffffffffffff1673ffffffffffffffffffffffffffffffffffffffff16815260200190815260200160002060040181905550600860008273ffffffffffffffffffffffffffffffffffffffff1673ffffffffffffffffffffffffffffffffffffffff1681526020019081526020016000206001015460066000828254611d8b9190612bd3565b9250508190555080848481518110611da657611da5613443565b5b602002602001019073ffffffffffffffffffffffffffffffffffffffff16908173ffffffffffffffffffffffffffffffffffffffff16815250508280611deb90613472565b935050611e3c565b6000600860008373ffffffffffffffffffffffffffffffffffffffff1673ffffffffffffffffffffffffffffffffffffffff168152602001908152602001600020600101819055505b5b508080611e4990613472565b915050611931565b50600060065411611e97576040517f08c379a0000000000000000000000000000000000000000000000000000000008152600401611e8e90613506565b60405180910390fd5b60006006541115611ea6578082525b8160099080519060200190611ebc9291906129b6565b507f29fe076b4e4669ee84478ebfd208c509816bdd26e3a79eb900c36fb3d39a8a5c600654604051611eee9190612a76565b60405180910390a17f239f02a41ad12358651bd08e7714cf1e79c099e277ada55cb22b7e1882596e18600554604051611f279190612a76565b60405180910390a15050565b600160009054906101000a900473ffffffffffffffffffffffffffffffffffffffff1673ffffffffffffffffffffffffffffffffffffffff1663095ea7b373e592427a0aece92de3edee1f18e0157c05861564836040518363ffffffff1660e01b8152600401611fa4929190612f46565b6020604051808303816000875af1158015611fc3573d6000803e3d6000fd5b505050506040513d601f19601f82011682018060405250810190611fe7919061304a565b506000604051806101000160405280600160009054906101000a900473ffffffffffffffffffffffffffffffffffffffff1673ffffffffffffffffffffffffffffffffffffffff168152602001600260009054906101000a900473ffffffffffffffffffffffffffffffffffffffff1673ffffffffffffffffffffffffffffffffffffffff168152602001610bb862ffffff1681526020013073ffffffffffffffffffffffffffffffffffffffff16815260200142815260200183815260200160008152602001600073ffffffffffffffffffffffffffffffffffffffff16815250905073e592427a0aece92de3edee1f18e0157c0586156473ffffffffffffffffffffffffffffffffffffffff1663414bf389826040518263ffffffff1660e01b81526004016121189190613613565b6020604051808303816000875af1158015612137573d6000803e3d6000fd5b505050506040513d601f19601f8201168201806040525081019061215b919061308c565b505050565b6064601960045461217191906133a1565b61217b9190613370565b600860003373ffffffffffffffffffffffffffffffffffffffff1673ffffffffffffffffffffffffffffffffffffffff16815260200190815260200160002060030160008282546121cc9190612bd3565b925050819055506000820361224f576064604b6004546121ec91906133a1565b6121f69190613370565b600860003373ffffffffffffffffffffffffffffffffffffffff1673ffffffffffffffffffffffffffffffffffffffff16815260200190815260200160002060030160008282546122479190612bd3565b925050819055505b60005b6009805490508110156124945760006009828154811061227557612274613443565b5b9060005260206000200160009054906101000a900473ffffffffffffffffffffffffffffffffffffffff1690506000600860008373ffffffffffffffffffffffffffffffffffffffff1673ffffffffffffffffffffffffffffffffffffffff16815260200190815260200160002060010154111561248057600085600860008473ffffffffffffffffffffffffffffffffffffffff1673ffffffffffffffffffffffffffffffffffffffff168152602001908152602001600020600101548561233e91906133a1565b6123489190613370565b905080600860008473ffffffffffffffffffffffffffffffffffffffff1673ffffffffffffffffffffffffffffffffffffffff168152602001908152602001600020600201600082825461239c9190612bd3565b92505081905550600085111561247e57600085600860008573ffffffffffffffffffffffffffffffffffffffff1673ffffffffffffffffffffffffffffffffffffffff168152602001908152602001600020600501546064604b60045461240391906133a1565b61240d9190613370565b61241791906133a1565b6124219190613370565b905080600860008573ffffffffffffffffffffffffffffffffffffffff1673ffffffffffffffffffffffffffffffffffffffff16815260200190815260200160002060030160008282546124759190612bd3565b92505081905550505b505b50808061248c90613472565b915050612252565b50505050565b6124a2612965565b73ffffffffffffffffffffffffffffffffffffffff166124c061131b565b73ffffffffffffffffffffffffffffffffffffffff1614612516576040517f08c379a000000000000000000000000000000000000000000000000000000000815260040161250d9061367b565b60405180910390fd5b565b60008060009054906101000a900473ffffffffffffffffffffffffffffffffffffffff169050816000806101000a81548173ffffffffffffffffffffffffffffffffffffffff021916908373ffffffffffffffffffffffffffffffffffffffff1602179055508173ffffffffffffffffffffffffffffffffffffffff168173ffffffffffffffffffffffffffffffffffffffff167f8be0079c531659141344cd1fd0a4f28419497f9722a3daafe3b4186f6b6457e060405160405180910390a35050565b600080600080849050600062253d8c62010bd9836125fa91906136a5565b61260491906136a5565b9050600062023ab182600461261991906136e9565b6126239190613761565b9050600460038262023ab161263891906136e9565b61264291906136a5565b61264c9190613761565b8261265791906137cb565b9150600062164b0960018461266c91906136a5565b610fa061267991906136e9565b6126839190613761565b9050601f6004826105b561269791906136e9565b6126a19190613761565b846126ac91906137cb565b6126b691906136a5565b9250600061098f8460506126ca91906136e9565b6126d49190613761565b9050600060508261098f6126e891906136e9565b6126f29190613761565b856126fd91906137cb565b9050600b8261270c9190613761565b945084600c61271b91906136e9565b60028361272891906136a5565b61273291906137cb565b9150848360318661274391906137cb565b606461274f91906136e9565b61275991906136a5565b61276391906136a5565b92508298508197508096505050505050509193909250565b6000600182148061278c5750600382145b806127975750600582145b806127a25750600782145b806127ad5750600882145b806127b85750600a82145b806127c35750600c82145b156127d157601f9050612800565b600282146127e257601e90506127ff565b6127eb8361296d565b6127f657601c6127f9565b601d5b60ff1690505b5b92915050565b60006107b284101561281757600080fd5b600084905060008490506000849050600062253d8c60046064600c600e8761283f91906137cb565b6128499190613761565b6113248861285791906136a5565b61286191906136a5565b61286b9190613761565b600361287791906136e9565b6128819190613761565b600c80600c600e8861289391906137cb565b61289d9190613761565b6128a791906136e9565b6002876128b491906137cb565b6128be91906137cb565b61016f6128cb91906136e9565b6128d59190613761565b6004600c600e886128e691906137cb565b6128f09190613761565b6112c0896128fe91906136a5565b61290891906136a5565b6105b561291591906136e9565b61291f9190613761565b617d4b8661292d91906137cb565b61293791906136a5565b61294191906136a5565b61294b91906137cb565b61295591906137cb565b9050809450505050509392505050565b600033905090565b60008060048361297d91906133e3565b1480156129975750600060648361299491906133e3565b14155b806129af57506000610190836129ad91906133e3565b145b9050919050565b828054828255906000526020600020908101928215612a2f579160200282015b82811115612a2e5782518260006101000a81548173ffffffffffffffffffffffffffffffffffffffff021916908373ffffffffffffffffffffffffffffffffffffffff160217905550916020019190600101906129d6565b5b509050612a3c9190612a40565b5090565b5b80821115612a59576000816000905550600101612a41565b5090565b6000819050919050565b612a7081612a5d565b82525050565b6000602082019050612a8b6000830184612a67565b92915050565b600080fd5b612a9f81612a5d565b8114612aaa57600080fd5b50565b600081359050612abc81612a96565b92915050565b600060208284031215612ad857612ad7612a91565b5b6000612ae684828501612aad565b91505092915050565b600073ffffffffffffffffffffffffffffffffffffffff82169050919050565b6000612b1a82612aef565b9050919050565b612b2a81612b0f565b82525050565b6000602082019050612b456000830184612b21565b92915050565b612b5481612b0f565b8114612b5f57600080fd5b50565b600081359050612b7181612b4b565b92915050565b600060208284031215612b8d57612b8c612a91565b5b6000612b9b84828501612b62565b91505092915050565b7f4e487b7100000000000000000000000000000000000000000000000000000000600052601160045260246000fd5b6000612bde82612a5d565b9150612be983612a5d565b9250828201905080821115612c0157612c00612ba4565b5b92915050565b600082825260208201905092915050565b7f64636120706f6f6c2069732066756c6c00000000000000000000000000000000600082015250565b6000612c4e601083612c07565b9150612c5982612c18565b602082019050919050565b60006020820190508181036000830152612c7d81612c41565b9050919050565b7f796f752068617665206e6f206d6f6e6e657920696e2064636120706f6f6c0000600082015250565b6000612cba601e83612c07565b9150612cc582612c84565b602082019050919050565b60006020820190508181036000830152612ce981612cad565b9050919050565b7f6d696e696d756d20646361206973203130207573646300000000000000000000600082015250565b6000612d26601683612c07565b9150612d3182612cf0565b602082019050919050565b60006020820190508181036000830152612d5581612d19565b9050919050565b7f796f757220646361206d757374206265207375706572696f72207468616e207960008201527f6f7572206465706f736974000000000000000000000000000000000000000000602082015250565b6000612db8602b83612c07565b9150612dc382612d5c565b604082019050919050565b60006020820190508181036000830152612de781612dab565b9050919050565b7f546869732066756e6374696f6e2063616e206f6e6c792062652063616c6c656460008201527f206f6e63652065616368206d6f6e746800000000000000000000000000000000602082015250565b6000612e4a603083612c07565b9150612e5582612dee565b604082019050919050565b60006020820190508181036000830152612e7981612e3d565b9050919050565b7f737461636b4e546f636b656e536d617274436f6e74726163744164647265737360008201527f207661726961626c65206973206e6f7420736574000000000000000000000000602082015250565b6000612edc603483612c07565b9150612ee782612e80565b604082019050919050565b60006020820190508181036000830152612f0b81612ecf565b9050919050565b6000612f1d82612a5d565b9150612f2883612a5d565b9250828203905081811115612f4057612f3f612ba4565b5b92915050565b6000604082019050612f5b6000830185612b21565b612f686020830184612a67565b9392505050565b7f6d696e696d756d206465706f7369742069732031303020757364630000000000600082015250565b6000612fa5601b83612c07565b9150612fb082612f6f565b602082019050919050565b60006020820190508181036000830152612fd481612f98565b9050919050565b6000606082019050612ff06000830186612b21565b612ffd6020830185612b21565b61300a6040830184612a67565b949350505050565b60008115159050919050565b61302781613012565b811461303257600080fd5b50565b6000815190506130448161301e565b92915050565b6000602082840312156130605761305f612a91565b5b600061306e84828501613035565b91505092915050565b60008151905061308681612a96565b92915050565b6000602082840312156130a2576130a1612a91565b5b60006130b084828501613077565b91505092915050565b7f6e6f2075736463206f6e20796f7572206163636f756e74000000000000000000600082015250565b60006130ef601783612c07565b91506130fa826130b9565b602082019050919050565b6000602082019050818103600083015261311e816130e2565b9050919050565b7f6e6f20657468206f6e20796f7572206163636f756e7400000000000000000000600082015250565b600061315b601683612c07565b915061316682613125565b602082019050919050565b6000602082019050818103600083015261318a8161314e565b9050919050565b600081905092915050565b50565b60006131ac600083613191565b91506131b78261319c565b600082019050919050565b60006131cd8261319f565b9150819050919050565b7f5472616e73666572206661696c65642e00000000000000000000000000000000600082015250565b600061320d601083612c07565b9150613218826131d7565b602082019050919050565b6000602082019050818103600083015261323c81613200565b9050919050565b7f6e6f20537461636b4e206f6e20796f7572206163636f756e7400000000000000600082015250565b6000613279601983612c07565b915061328482613243565b602082019050919050565b600060208201905081810360008301526132a88161326c565b9050919050565b7f4f776e61626c653a206e6577206f776e657220697320746865207a65726f206160008201527f6464726573730000000000000000000000000000000000000000000000000000602082015250565b600061330b602683612c07565b9150613316826132af565b604082019050919050565b6000602082019050818103600083015261333a816132fe565b9050919050565b7f4e487b7100000000000000000000000000000000000000000000000000000000600052601260045260246000fd5b600061337b82612a5d565b915061338683612a5d565b92508261339657613395613341565b5b828204905092915050565b60006133ac82612a5d565b91506133b783612a5d565b92508282026133c581612a5d565b915082820484148315176133dc576133db612ba4565b5b5092915050565b60006133ee82612a5d565b91506133f983612a5d565b92508261340957613408613341565b5b828206905092915050565b7f4e487b7100000000000000000000000000000000000000000000000000000000600052604160045260246000fd5b7f4e487b7100000000000000000000000000000000000000000000000000000000600052603260045260246000fd5b600061347d82612a5d565b91507fffffffffffffffffffffffffffffffffffffffffffffffffffffffffffffffff82036134af576134ae612ba4565b5b600182019050919050565b7f5468657265206973206e6f206d6f6e6e657920746f2044434100000000000000600082015250565b60006134f0601983612c07565b91506134fb826134ba565b602082019050919050565b6000602082019050818103600083015261351f816134e3565b9050919050565b61352f81612b0f565b82525050565b600062ffffff82169050919050565b61354d81613535565b82525050565b61355c81612a5d565b82525050565b61356b81612aef565b82525050565b610100820160008201516135886000850182613526565b50602082015161359b6020850182613526565b5060408201516135ae6040850182613544565b5060608201516135c16060850182613526565b5060808201516135d46080850182613553565b5060a08201516135e760a0850182613553565b5060c08201516135fa60c0850182613553565b5060e082015161360d60e0850182613562565b50505050565b6000610100820190506136296000830184613571565b92915050565b7f4f776e61626c653a2063616c6c6572206973206e6f7420746865206f776e6572600082015250565b6000613665602083612c07565b91506136708261362f565b602082019050919050565b6000602082019050818103600083015261369481613658565b9050919050565b6000819050919050565b60006136b08261369b565b91506136bb8361369b565b9250828201905082811215600083121683821260008412151617156136e3576136e2612ba4565b5b92915050565b60006136f48261369b565b91506136ff8361369b565b925082820261370d8161369b565b91507f8000000000000000000000000000000000000000000000000000000000000000841460008412161561374557613744612ba4565b5b828205841483151761375a57613759612ba4565b5b5092915050565b600061376c8261369b565b91506137778361369b565b92508261378757613786613341565b5b600160000383147f8000000000000000000000000000000000000000000000000000000000000000831416156137c0576137bf612ba4565b5b828205905092915050565b60006137d68261369b565b91506137e18361369b565b925082820390508181126000841216828213600085121516171561380857613807612ba4565b5b9291505056fea26469706673582212205ff131748fb78eb7357609b75ebde33dfa51d4409ab81ba82562d8fb29f5e74664736f6c63430008120033",
  "immutableReferences": {},
  "source": "// SPDX-License-Identifier: MIT\npragma solidity ^0.8.18;\n\nimport \"./BokkyPooBahsDateTimeLibrary.sol\";\nimport \"../node_modules/@openzeppelin/contracts/access/Ownable.sol\";\n\n// @title StackNDCA\n// @author Guilhain Averlant\n// @notice A smart contract for dollar cost averaging into Ethereum and distributing StackN tokens\n// @dev This contract interacts with IERC20, ISwapRouter, IWETH, and StackNTocken interfaces to perform its functions\n\n\ninterface IERC20 {\n    function allowance(address owner, address spender) external view returns (uint256);\n    function approve(address spender, uint256 amount) external returns (bool);\n    function balanceOf(address account) external view returns (uint256);\n    function deposit() external payable;\n    function transfer(address to, uint256 amount) external returns (bool);\n    function transferFrom(address from, address to, uint256 amount) external returns (bool);\n}\n\ninterface ISwapRouter {\n    struct ExactInputSingleParams {\n        address tokenIn;\n        address tokenOut;\n        uint24 fee;\n        address recipient;\n        uint256 deadline;\n        uint256 amountIn;\n        uint256 amountOutMinimum;\n        uint160 sqrtPriceLimitX96;\n    }\n \n    /// @notice Swaps `amountIn` of one token for as much as possible of another token\n    /// @param params The parameters necessary for the swap, encoded as `ExactInputSingleParams` in calldata\n    /// @return amountOut The amount of the received token\n    function exactInputSingle(ExactInputSingleParams calldata params) external payable returns (uint256 amountOut);\n}\n\n\ninterface IWETH {\n    function withdraw(uint256 amount) external;\n}\n\n\ninterface StackNTocken {\n    function mintStackN(address _account, uint _amount) external;\n}\n\ncontract StackNDCA is Ownable {\n    ISwapRouter constant swapRouter = ISwapRouter(0xE592427A0AEce92De3Edee1F18E0157C05861564);\n\n    address public usdcSmartContractAddress=0x07865c6E87B9F70255377e024ace6630C1Eaa37F;  //goerli\n    address public weth9SmartContractAddress=0xB4FBF271143F4FBf7B91A5ded31805e42b2208d6; // goerli\n    address public stackNTockenSmartContractAddress;\n\n    uint stackNMonthlyMint = 2000000000000000000000;\n\n    uint24 constant poolFee = 3000;\n    uint256 usdcStackValue;\n    uint256 usdcDcaValue;\n\n    uint256 public lastExecutionTime;\n    \n    struct userAccount {\n        uint256 usdcAmount;\n        uint256 usdcDCA;\n        uint256 ethAmount;\n        uint256 stackNAmount;\n        uint256 usdcStackAmount;\n        uint256 previousMonthUsdcDcaAmount;\n    }\n\n    mapping (address => userAccount) userAccounts;\n    \n    address[] dcaUsers;\n    \n    event UserDepositUsdc(address indexed user, uint256 amount);\n    event UserWithdrawUsdc(address indexed user, uint256 amount);\n    event UserWithdrawEth(address indexed user, uint256 amount);\n    event UserWithdrawStackN(address indexed user, uint256 amount);\n    event UserDcaAmount(address indexed user, uint256 amount);\n    event usdcValueToSwap(uint usdcValue);\n    event usdcValueToStack(uint usdcValue);\n    event wethValueSwaped(uint wethValue);\n\n    constructor() {\n        lastExecutionTime = BokkyPooBahsDateTimeLibrary.subMonths(block.timestamp, 1);\n    }\n\n\n    // @notice Modifier to ensure that a function is executed only once per month\n    // @dev Use this modifier to restrict functions or actions that should be allowed \n    // @dev to execute only once per month. This modifier should be placed before the \n    // @dev function or action that requires the check.\n    modifier onlyOncePerMonth() {\n        uint nowTimestamp = block.timestamp;\n        require(BokkyPooBahsDateTimeLibrary.diffMonths(lastExecutionTime, nowTimestamp) >= 1, \"This function can only be called once each month\");\n        lastExecutionTime = nowTimestamp;\n        _;\n    }\n\n    // @notice Modifier to check if the DCA pool is full before allowing an action\n    // @dev Use this modifier to restrict functions or actions that require the DCA pool not\n    // @dev to be full. This modifier should be placed before the function or action that requires\n    // @dev the check.\n    modifier checkPoolIsFUll() {\n        if (userAccounts[msg.sender].usdcDCA == 0) {\n            require(dcaUsers.length + 1 < 20000, \"dca pool is full\");\n        }\n        _;\n    }\n\n    // @notice Allows a user to deposit USDC tokens into the contract for DCA purposes\n    // @param amount The amount of USDC tokens to be deposited by the user\n    // @dev The function should handle the transfer of USDC tokens from the user to the contract. \n    // @dev Ensure that the user has approved the contract to transfer USDC on their behalf \n    // @dev before executing the transfer. Update any relevant data structures or mappings to \n    // @dev track the user's deposit and DCA settings.\n    function depositUsdc(uint256 amountIn) public virtual checkPoolIsFUll {\n        require(amountIn >= 100000000, \"minimum deposit is 100 usdc\");\n        IERC20(usdcSmartContractAddress).transferFrom(msg.sender, address(this), amountIn);\n        userAccounts[msg.sender].usdcAmount += amountIn;\n        emit UserDepositUsdc(msg.sender, amountIn);\n    }\n\n    // @notice Calculates the amount of a token to be purchased based on the user's DCA settings\n    // @param user The address of the user for whom the DCA amount is being calculated\n    // @return dcaAmount The calculated amount of the token to be purchased according to the user's DCA settings\n    // @dev This function calculates the DCA amount for a user based on their settings\n    // @dev (e.g., frequency, duration, and total amount). Implement the logic to \n    // @dev retrieve the user's DCA settings and perform the necessary calculations.\n    function dcaAmount(uint256 amountIn) public checkPoolIsFUll {\n        require(userAccounts[msg.sender].usdcAmount>0, \"you have no monney in dca pool\");\n        require(amountIn>=10000000, \"minimum dca is 10 usdc\");\n        require(userAccounts[msg.sender].usdcAmount>=amountIn, \"your dca must be superior than your deposit\");\n        if (userAccounts[msg.sender].usdcDCA == 0) {\n            dcaUsers.push(msg.sender);\n        }\n        userAccounts[msg.sender].usdcDCA = amountIn;\n        emit UserDcaAmount(msg.sender, amountIn);\n    }\n\n    // @notice Allows users to withdraw their USDC balance from the contract\n    // @param amount The amount of USDC (in smallest unit) the user wishes to withdraw\n    // @dev This function should be called when a user wants to withdraw their USDC\n    // @dev from the contract. Ensure the user has sufficient balance before \n    // @dev processing the withdrawal.\n    function widthdrawUsdc() public {\n        require(userAccounts[msg.sender].usdcAmount > 0, \"no usdc on your account\");\n        uint amountOu = userAccounts[msg.sender].usdcAmount;\n        userAccounts[msg.sender].usdcAmount = 0;\n        userAccounts[msg.sender].usdcDCA = 0;\n        userAccounts[msg.sender].stackNAmount = 0;\n        IERC20(usdcSmartContractAddress).transfer(msg.sender, amountOu);\n        emit UserWithdrawUsdc(msg.sender, amountOu);\n    }\n\n    // @notice Allows users to withdraw their ETH balance from the contract\n    // @param amount The amount of ETH (in wei) the user wishes to withdraw\n    // @dev This function should be called when a user wants to withdraw their\n    // @dev ETH from the contract. Ensure the user has sufficient balance before\n    // @dev processing the withdrawal.\n    function widthdrawEth() public {\n        require(userAccounts[msg.sender].ethAmount > 0, \"no eth on your account\");\n        uint amountOu = userAccounts[msg.sender].ethAmount;\n        userAccounts[msg.sender].ethAmount = 0;\n        IERC20(weth9SmartContractAddress).approve(address(this), amountOu);\n        IWETH(weth9SmartContractAddress).withdraw(amountOu);\n        (bool success, ) = msg.sender.call{value: amountOu}(\"\");\n        require(success, \"Transfer failed.\");\n        emit UserWithdrawEth(msg.sender, amountOu);\n    }\n\n    // @notice Allows users to withdraw their StackN tokens from the contract\n    // @param amount The amount of StackN tokens the user wishes to withdraw\n    // @dev This function should be called when a user wants to withdraw their \n    // @dev StackN tokens from the contract. Ensure the user has sufficient\n    // @dev balance before processing the withdrawal.\n    function widthdrawStackN() public {\n        require(userAccounts[msg.sender].stackNAmount > 0, \"no StackN on your account\");\n        uint amountOu = userAccounts[msg.sender].stackNAmount;\n        userAccounts[msg.sender].stackNAmount = 0;\n        IERC20(stackNTockenSmartContractAddress).transfer(msg.sender, amountOu);\n        emit UserWithdrawStackN(msg.sender, amountOu);\n    }\n    \n    // @notice Retrieves the current value of the user's dollar cost average (DCA) position in the contract\n    // @param user The address of the user for whom the DCA value is being calculated\n    // @return dcaValue The calculated DCA value for the user, based on their contributions and the current token prices\n    // @dev This function should be called when you want to get the DCA value of a user's position within the contract\n    function getDcaValue() private { \n        address[] memory dcaUsersArray = new address[](dcaUsers.length);\n        uint dcaUsersArrayIndex = 0;\n        usdcDcaValue=0;\n        usdcStackValue=0;\n        for (uint i = 0; i < dcaUsers.length; i++) {\n            address user = dcaUsers[i];\n            // compute DCA usdc value\n            if (userAccounts[user].usdcAmount > 0) {\n                if (userAccounts[user].usdcAmount >= userAccounts[user].usdcStackAmount) {\n                    usdcStackValue += userAccounts[user].usdcStackAmount;\n                }\n            }\n            if (userAccounts[user].usdcDCA > 0) {\n                if (userAccounts[user].usdcAmount >= userAccounts[user].usdcDCA) {\n                    userAccounts[user].usdcAmount -= userAccounts[user].usdcDCA;\n                    userAccounts[user].previousMonthUsdcDcaAmount = userAccounts[user].usdcStackAmount;\n                    userAccounts[user].usdcStackAmount = userAccounts[user].usdcAmount;\n                    usdcDcaValue += userAccounts[user].usdcDCA;\n                    dcaUsersArray[dcaUsersArrayIndex] = user;\n                    dcaUsersArrayIndex++;\n                } else {\n                    userAccounts[user].usdcDCA = 0;\n                }\n            }\n        }\n        require(usdcDcaValue>0, \"There is no monney to DCA\");\n\n        if (usdcDcaValue > 0) {\n            // Rduire la taille du tableau dcaUsersArray  la taille relle\n            assembly {\n                mstore(dcaUsersArray, dcaUsersArrayIndex)\n            }\n        }\n        \n        dcaUsers = dcaUsersArray;\n        emit usdcValueToSwap(usdcDcaValue);\n        emit usdcValueToStack(usdcStackValue);\n    }\n\n    // @notice Swaps an exact amount of ETH for the maximum amount of another token on a Uniswap-like exchange\n    // @param tokenOut The address of the token to receive in exchange for ETH\n    // @param amountIn The exact amount of ETH to be swapped\n    // @param amountOutMin The minimum amount of the output token to receive from the swap\n    // @param path The Uniswap-like exchange path to follow for the swap, starting with WETH and ending with the desired output token\n    // @param deadline The timestamp after which the swap will be considered invalid\n    // @return amountOut The amount of the output token received from the swap\n    // @dev This function should be called when the user wants to execute a swap from ETH to another token, ensuring the amounts and path are set correctly\n    function swapExactInputEth(uint256 amountIn) private {\n \n        // autoriser uniswap  utiliser nos tokens\n        IERC20(usdcSmartContractAddress).approve(address(swapRouter), amountIn);\n        \n        //Creation des paramtres pour l'appel du swap\n        ISwapRouter.ExactInputSingleParams memory params =\n            ISwapRouter.ExactInputSingleParams({\n                tokenIn: usdcSmartContractAddress,\n                tokenOut: weth9SmartContractAddress,\n                fee: poolFee,\n                recipient: address(this),\n                deadline: block.timestamp,\n                amountIn: amountIn,\n                amountOutMinimum: 0, // put chainlink oracle here with slipage\n                sqrtPriceLimitX96: 0\n            });\n \n        // effectuer le swap, WETH sera transfr au smart contract\n        swapRouter.exactInputSingle(params);\n    }\n\n    // @notice Distributes the swapped WETH among the DCA users based on their proportional USDC amounts and mints StackN tokens\n    // @param _usdcDcaValue The total amount of USDC used for DCA\n    // @param _usdcStackValue The total amount of USDC used for StackN rewards\n    // @param _weth09DcaValue The total amount of WETH obtained from swapping the USDC\n    // @dev This function should be called internally after the DCA process is executed\n    function splitWethBalancetoUsers(uint _usdcDcaValue, uint _usdcStackValue,  uint _weth09DcaValue) private {\n        // add stack to make dca launcher\n        userAccounts[msg.sender].stackNAmount += stackNMonthlyMint * 25 / 100;\n        // for first make DCA or if users are  widthdraw then deposit usdc (in the same month)\n        // they are by definition no usdc stack during the first month, \n        // then the 75% of stackNMonthlyMint is added to the dca launcher\n        if (_usdcStackValue == 0) {\n            userAccounts[msg.sender].stackNAmount += stackNMonthlyMint * 75 / 100;\n        }\n        \n        for (uint i = 0; i < dcaUsers.length; i++) {\n            address user = dcaUsers[i];\n            if (userAccounts[user].usdcDCA > 0) {\n                // weth split\n                uint weth09Amount = _weth09DcaValue * userAccounts[user].usdcDCA / _usdcDcaValue;\n                userAccounts[user].ethAmount += weth09Amount;\n\n                // StackN token split\n                if (_usdcStackValue > 0) {\n                    // StackN token split\n                    uint addStackN = (stackNMonthlyMint * 75 / 100) * userAccounts[user].previousMonthUsdcDcaAmount / _usdcStackValue;\n                    userAccounts[user].stackNAmount += addStackN;\n                }\n            }\n        }\n    }\n\n    // @notice Executes the Dollar-Cost Averaging (DCA) process for all eligible users\n    // @dev This function can only be called once per month\n    // @dev Make sure the stackNTockenSmartContractAddress is set before calling this function\n    function makeDCA() public onlyOncePerMonth {\n        require(stackNTockenSmartContractAddress!=address(0), \"stackNTockenSmartContractAddress variable is not set\");\n\n        // update dcaUsers and usdcDcaValue\n        getDcaValue();\n        \n        uint weth09DcaValue = getWethContractBalance();\n        \n        // swap usdc to eth \n        swapExactInputEth(usdcDcaValue);\n\n        // recompute weth09 balance to make weth09 distribution\n        weth09DcaValue = getWethContractBalance() - weth09DcaValue;\n        emit wethValueSwaped(weth09DcaValue);\n\n        // minth 2000 StackNToken\n        StackNTocken(stackNTockenSmartContractAddress).mintStackN(address(this), stackNMonthlyMint);\n        \n        // split weth balance to dca users / mint stackN and split to StackN users\n        splitWethBalancetoUsers(usdcDcaValue, usdcStackValue, weth09DcaValue);\n    }\n\n    // @notice Retrieves the StackN token balance of the smart contract\n    // @return The StackN token balance of the smart contract\n    function getStackNContractBalance() public view returns (uint256) {\n        return IERC20(stackNTockenSmartContractAddress).balanceOf(address(this));\n    }\n\n    // @notice Retrieves the Wrapped Ether (WETH) balance of the smart contract\n    // @return The WETH balance of the smart contract\n    function getWethContractBalance() public view returns (uint256) {\n        return IERC20(weth9SmartContractAddress).balanceOf(address(this));\n    }\n\n    // @notice Retrieves the user's current USDC balance\n    // @return The user's USDC balance\n    function getMyUsdcBalance() public view returns (uint) {\n        return userAccounts[msg.sender].usdcAmount;\n    }\n\n    // @notice Retrieves the user's current Ether balance\n    // @return The user's Ether balance\n    function getMyEthBalance() public view returns (uint) {\n        return userAccounts[msg.sender].ethAmount;\n    }\n\n    // @notice Retrieves the user's current StackN token balance\n    // @return The user's StackN token balance\n    function getMyStackNBalance() public view returns (uint) {\n        return userAccounts[msg.sender].stackNAmount;\n    }\n\n    // @notice Retrieves the user's current USDC amount allocated for Dollar Cost Averaging (DCA)\n    // @param user The user address for which to retrieve the DCA amount\n    // @return The user's USDC amount allocated for DCA\n    function getMyUsdcDca() public view returns (uint) {\n        return userAccounts[msg.sender].usdcDCA;\n    }\n\n    // @notice Set the StackN token contract address\n    // @param _address The address of the StackN token contract\n    function setStackNTockenAddress(address _address) public onlyOwner {\n        stackNTockenSmartContractAddress =_address;\n    }\n\n    // Fallback function\n    receive() external payable {}\n}",
  "sourcePath": "/opt/code/projet/truffle/contracts/StackNDCA.sol",
  "compiler": {
    "name": "solc",
    "version": "0.8.18+commit.87f61d96.Emscripten.clang"
  },
  "schemaVersion": "3.4.13",
  "updatedAt": "2023-04-10T11:53:04.834Z",
  "devdoc": {
    "kind": "dev",
    "methods": {
      "owner()": {
        "details": "Returns the address of the current owner."
      },
      "renounceOwnership()": {
        "details": "Leaves the contract without owner. It will not be possible to call `onlyOwner` functions anymore. Can only be called by the current owner. NOTE: Renouncing ownership will leave the contract without an owner, thereby removing any functionality that is only available to the owner."
      },
      "transferOwnership(address)": {
        "details": "Transfers ownership of the contract to a new account (`newOwner`). Can only be called by the current owner."
      }
    },
    "version": 1
  },
  "userdoc": {
    "kind": "user",
    "methods": {},
    "version": 1
  }
}