{
  "contractName": "YourContractTest",
  "abi": [
    {
      "anonymous": false,
      "inputs": [
        {
          "indexed": true,
          "internalType": "address",
          "name": "user",
          "type": "address"
        },
        {
          "indexed": false,
          "internalType": "uint256",
          "name": "amount",
          "type": "uint256"
        }
      ],
      "name": "UserDcaAmount",
      "type": "event"
    },
    {
      "anonymous": false,
      "inputs": [
        {
          "indexed": true,
          "internalType": "address",
          "name": "user",
          "type": "address"
        },
        {
          "indexed": false,
          "internalType": "uint256",
          "name": "amount",
          "type": "uint256"
        }
      ],
      "name": "UserDepositUsdc",
      "type": "event"
    },
    {
      "anonymous": false,
      "inputs": [
        {
          "indexed": true,
          "internalType": "address",
          "name": "user",
          "type": "address"
        },
        {
          "indexed": false,
          "internalType": "uint256",
          "name": "amount",
          "type": "uint256"
        }
      ],
      "name": "UserWithdrawEth",
      "type": "event"
    },
    {
      "anonymous": false,
      "inputs": [
        {
          "indexed": true,
          "internalType": "address",
          "name": "user",
          "type": "address"
        },
        {
          "indexed": false,
          "internalType": "uint256",
          "name": "amount",
          "type": "uint256"
        }
      ],
      "name": "UserWithdrawUsdc",
      "type": "event"
    },
    {
      "anonymous": false,
      "inputs": [
        {
          "indexed": false,
          "internalType": "uint256",
          "name": "usdcValue",
          "type": "uint256"
        }
      ],
      "name": "usdcValueToSwap",
      "type": "event"
    },
    {
      "anonymous": false,
      "inputs": [
        {
          "indexed": false,
          "internalType": "uint256",
          "name": "wethValue",
          "type": "uint256"
        }
      ],
      "name": "wethValueSwaped",
      "type": "event"
    },
    {
      "inputs": [
        {
          "internalType": "uint256",
          "name": "amountIn",
          "type": "uint256"
        }
      ],
      "name": "dcaAmount",
      "outputs": [],
      "stateMutability": "nonpayable",
      "type": "function"
    },
    {
      "inputs": [
        {
          "internalType": "uint256",
          "name": "amountIn",
          "type": "uint256"
        }
      ],
      "name": "depositUsdc",
      "outputs": [],
      "stateMutability": "nonpayable",
      "type": "function"
    },
    {
      "inputs": [],
      "name": "getMyEthBalance",
      "outputs": [
        {
          "internalType": "uint256",
          "name": "",
          "type": "uint256"
        }
      ],
      "stateMutability": "view",
      "type": "function"
    },
    {
      "inputs": [],
      "name": "getMyUsdcBalance",
      "outputs": [
        {
          "internalType": "uint256",
          "name": "",
          "type": "uint256"
        }
      ],
      "stateMutability": "view",
      "type": "function"
    },
    {
      "inputs": [],
      "name": "getMyUsdcDca",
      "outputs": [
        {
          "internalType": "uint256",
          "name": "",
          "type": "uint256"
        }
      ],
      "stateMutability": "view",
      "type": "function"
    },
    {
      "inputs": [],
      "name": "makeDCA",
      "outputs": [],
      "stateMutability": "nonpayable",
      "type": "function"
    },
    {
      "inputs": [],
      "name": "usdcSmartContractAddress",
      "outputs": [
        {
          "internalType": "address",
          "name": "",
          "type": "address"
        }
      ],
      "stateMutability": "view",
      "type": "function"
    },
    {
      "inputs": [],
      "name": "weth9SmartContractAddress",
      "outputs": [
        {
          "internalType": "address",
          "name": "",
          "type": "address"
        }
      ],
      "stateMutability": "view",
      "type": "function"
    },
    {
      "inputs": [],
      "name": "widthdrawEth",
      "outputs": [],
      "stateMutability": "nonpayable",
      "type": "function"
    },
    {
      "inputs": [],
      "name": "widthdrawUsdc",
      "outputs": [],
      "stateMutability": "nonpayable",
      "type": "function"
    },
    {
      "stateMutability": "payable",
      "type": "receive"
    },
    {
      "inputs": [
        {
          "internalType": "address[]",
          "name": "_addresses",
          "type": "address[]"
        }
      ],
      "name": "setDcaUsers",
      "outputs": [],
      "stateMutability": "nonpayable",
      "type": "function"
    },
    {
      "inputs": [],
      "name": "getDcaUsersCount",
      "outputs": [
        {
          "internalType": "uint256",
          "name": "",
          "type": "uint256"
        }
      ],
      "stateMutability": "view",
      "type": "function"
    }
  ],
  "bytecode": "0x60806040527307865c6e87b9f70255377e024ace6630c1eaa37f6000806101000a81548173ffffffffffffffffffffffffffffffffffffffff021916908373ffffffffffffffffffffffffffffffffffffffff16021790555073b4fbf271143f4fbf7b91a5ded31805e42b2208d6600160006101000a81548173ffffffffffffffffffffffffffffffffffffffff021916908373ffffffffffffffffffffffffffffffffffffffff160217905550348015620000ba57600080fd5b50620000d3426001620000df60201b62000f901760201c565b600381905550620001d2565b6000603c82620000f091906200014c565b83620000fd919062000197565b9050828111156200010d57600080fd5b92915050565b6000819050919050565b7f4e487b7100000000000000000000000000000000000000000000000000000000600052601160045260246000fd5b6000620001598262000113565b9150620001668362000113565b9250828202620001768162000113565b9150828204841483151762000190576200018f6200011d565b5b5092915050565b6000620001a48262000113565b9150620001b18362000113565b9250828203905081811115620001cc57620001cb6200011d565b5b92915050565b61245280620001e26000396000f3fe6080604052600436106100ab5760003560e01c806336363edd1161006457806336363edd1461018d5780634f011997146101a457806384d235ea146101cf578063b0c25e29146101fa578063d370ff6814610225578063f16d2ac814610250576100b2565b80630709dec8146100b75780630b5583b1146100e25780631dd895df1461010b5780632357928e1461012257806325a9416f1461014b578063268d308b14610162576100b2565b366100b257005b600080fd5b3480156100c357600080fd5b506100cc610279565b6040516100d991906118cf565b60405180910390f35b3480156100ee57600080fd5b506101096004803603810190610104919061192a565b6102c3565b005b34801561011757600080fd5b506101206105f8565b005b34801561012e57600080fd5b506101496004803603810190610144919061192a565b6106ce565b005b34801561015757600080fd5b506101606108ff565b005b34801561016e57600080fd5b50610177610b4b565b60405161018491906118cf565b60405180910390f35b34801561019957600080fd5b506101a2610b58565b005b3480156101b057600080fd5b506101b9610e98565b6040516101c69190611998565b60405180910390f35b3480156101db57600080fd5b506101e4610ebe565b6040516101f191906118cf565b60405180910390f35b34801561020657600080fd5b5061020f610f08565b60405161021c91906118cf565b60405180910390f35b34801561023157600080fd5b5061023a610f52565b6040516102479190611998565b60405180910390f35b34801561025c57600080fd5b5061027760048036038101906102729190611b38565b610f76565b005b6000600560003373ffffffffffffffffffffffffffffffffffffffff1673ffffffffffffffffffffffffffffffffffffffff16815260200190815260200160002060020154905090565b6000600560003373ffffffffffffffffffffffffffffffffffffffff1673ffffffffffffffffffffffffffffffffffffffff168152602001908152602001600020600101540361036257600560016006805490506103219190611bb0565b10610361576040517f08c379a000000000000000000000000000000000000000000000000000000000815260040161035890611c41565b60405180910390fd5b5b6000600560003373ffffffffffffffffffffffffffffffffffffffff1673ffffffffffffffffffffffffffffffffffffffff16815260200190815260200160002060000154116103e7576040517f08c379a00000000000000000000000000000000000000000000000000000000081526004016103de90611cad565b60405180910390fd5b6298968081101561042d576040517f08c379a000000000000000000000000000000000000000000000000000000000815260040161042490611d19565b60405180910390fd5b80600560003373ffffffffffffffffffffffffffffffffffffffff1673ffffffffffffffffffffffffffffffffffffffff1681526020019081526020016000206000015410156104b2576040517f08c379a00000000000000000000000000000000000000000000000000000000081526004016104a990611dab565b60405180910390fd5b6000600560003373ffffffffffffffffffffffffffffffffffffffff1673ffffffffffffffffffffffffffffffffffffffff1681526020019081526020016000206001015403610560576006339080600181540180825580915050600190039060005260206000200160009091909190916101000a81548173ffffffffffffffffffffffffffffffffffffffff021916908373ffffffffffffffffffffffffffffffffffffffff1602179055505b80600560003373ffffffffffffffffffffffffffffffffffffffff1673ffffffffffffffffffffffffffffffffffffffff168152602001908152602001600020600101819055503373ffffffffffffffffffffffffffffffffffffffff167f9bbb48649728751eaacdc76a015b854aedb92a2ae725b3969a25b70b6bc76b48826040516105ed91906118cf565b60405180910390a250565b6000429050600161060b60035483610fbf565b101561064c576040517f08c379a000000000000000000000000000000000000000000000000000000000815260040161064390611e3d565b60405180910390fd5b8060038190555061065b610fee565b60006106656113d4565b9050610672600254611477565b8061067b6113d4565b6106859190611e5d565b90507f4fa6a1633b173a814e226dc5e555ac0a31a6fbb8907b1764c1d4abee012759cb816040516106b691906118cf565b60405180910390a16106ca600254826116a0565b5050565b6000600560003373ffffffffffffffffffffffffffffffffffffffff1673ffffffffffffffffffffffffffffffffffffffff168152602001908152602001600020600101540361076d576005600160068054905061072c9190611bb0565b1061076c576040517f08c379a000000000000000000000000000000000000000000000000000000000815260040161076390611c41565b60405180910390fd5b5b6305f5e1008110156107b4576040517f08c379a00000000000000000000000000000000000000000000000000000000081526004016107ab90611edd565b60405180910390fd5b60008054906101000a900473ffffffffffffffffffffffffffffffffffffffff1673ffffffffffffffffffffffffffffffffffffffff166323b872dd3330846040518463ffffffff1660e01b815260040161081193929190611efd565b6020604051808303816000875af1158015610830573d6000803e3d6000fd5b505050506040513d601f19601f820116820180604052508101906108549190611f6c565b5080600560003373ffffffffffffffffffffffffffffffffffffffff1673ffffffffffffffffffffffffffffffffffffffff16815260200190815260200160002060000160008282546108a79190611bb0565b925050819055503373ffffffffffffffffffffffffffffffffffffffff167fe6d713e7cf01ee63bae3de793f74a52024f62b69a7c6fe60fe8a81ef622734bc826040516108f491906118cf565b60405180910390a250565b6000600560003373ffffffffffffffffffffffffffffffffffffffff1673ffffffffffffffffffffffffffffffffffffffff1681526020019081526020016000206000015411610984576040517f08c379a000000000000000000000000000000000000000000000000000000000815260040161097b90611fe5565b60405180910390fd5b6000600560003373ffffffffffffffffffffffffffffffffffffffff1673ffffffffffffffffffffffffffffffffffffffff1681526020019081526020016000206000015490506000600560003373ffffffffffffffffffffffffffffffffffffffff1673ffffffffffffffffffffffffffffffffffffffff168152602001908152602001600020600001819055506000600560003373ffffffffffffffffffffffffffffffffffffffff1673ffffffffffffffffffffffffffffffffffffffff1681526020019081526020016000206001018190555060008054906101000a900473ffffffffffffffffffffffffffffffffffffffff1673ffffffffffffffffffffffffffffffffffffffff1663a9059cbb33836040518363ffffffff1660e01b8152600401610ab6929190612005565b6020604051808303816000875af1158015610ad5573d6000803e3d6000fd5b505050506040513d601f19601f82011682018060405250810190610af99190611f6c565b503373ffffffffffffffffffffffffffffffffffffffff167f852c5c2fff2106fe8867b2b603b96079280e26847688a4da8675df2faae4191e82604051610b4091906118cf565b60405180910390a250565b6000600680549050905090565b6000600560003373ffffffffffffffffffffffffffffffffffffffff1673ffffffffffffffffffffffffffffffffffffffff1681526020019081526020016000206002015411610bdd576040517f08c379a0000000000000000000000000000000000000000000000000000000008152600401610bd49061207a565b60405180910390fd5b6000600560003373ffffffffffffffffffffffffffffffffffffffff1673ffffffffffffffffffffffffffffffffffffffff1681526020019081526020016000206002015490506000600560003373ffffffffffffffffffffffffffffffffffffffff1673ffffffffffffffffffffffffffffffffffffffff16815260200190815260200160002060020181905550600160009054906101000a900473ffffffffffffffffffffffffffffffffffffffff1673ffffffffffffffffffffffffffffffffffffffff1663095ea7b330836040518363ffffffff1660e01b8152600401610cc9929190612005565b6020604051808303816000875af1158015610ce8573d6000803e3d6000fd5b505050506040513d601f19601f82011682018060405250810190610d0c9190611f6c565b50600160009054906101000a900473ffffffffffffffffffffffffffffffffffffffff1673ffffffffffffffffffffffffffffffffffffffff16632e1a7d4d826040518263ffffffff1660e01b8152600401610d6891906118cf565b600060405180830381600087803b158015610d8257600080fd5b505af1158015610d96573d6000803e3d6000fd5b5050505060003373ffffffffffffffffffffffffffffffffffffffff1682604051610dc0906120cb565b60006040518083038185875af1925050503d8060008114610dfd576040519150601f19603f3d011682016040523d82523d6000602084013e610e02565b606091505b5050905080610e46576040517f08c379a0000000000000000000000000000000000000000000000000000000008152600401610e3d9061212c565b60405180910390fd5b3373ffffffffffffffffffffffffffffffffffffffff167f654c7a7e59538b4e27a577ef2208b1f7cdcaf35938c4bb6288c945261702a56f83604051610e8c91906118cf565b60405180910390a25050565b600160009054906101000a900473ffffffffffffffffffffffffffffffffffffffff1681565b6000600560003373ffffffffffffffffffffffffffffffffffffffff1673ffffffffffffffffffffffffffffffffffffffff16815260200190815260200160002060010154905090565b6000600560003373ffffffffffffffffffffffffffffffffffffffff1673ffffffffffffffffffffffffffffffffffffffff16815260200190815260200160002060000154905090565b60008054906101000a900473ffffffffffffffffffffffffffffffffffffffff1681565b8060069080519060200190610f8c92919061180f565b5050565b6000603c82610f9f919061214c565b83610faa9190611e5d565b905082811115610fb957600080fd5b92915050565b600081831115610fce57600080fd5b603c8383610fdc9190611e5d565b610fe691906121bd565b905092915050565b600060068054905067ffffffffffffffff81111561100f5761100e6119c9565b5b60405190808252806020026020018201604052801561103d5781602001602082028036833780820191505090505b50905060008060028190555060005b60068054905081101561132b5760006006828154811061106f5761106e6121ee565b5b9060005260206000200160009054906101000a900473ffffffffffffffffffffffffffffffffffffffff1690506000600560008373ffffffffffffffffffffffffffffffffffffffff1673ffffffffffffffffffffffffffffffffffffffff168152602001908152602001600020600101541180156111725750600560008273ffffffffffffffffffffffffffffffffffffffff1673ffffffffffffffffffffffffffffffffffffffff16815260200190815260200160002060010154600560008373ffffffffffffffffffffffffffffffffffffffff1673ffffffffffffffffffffffffffffffffffffffff1681526020019081526020016000206000015410155b156112ce57600560008273ffffffffffffffffffffffffffffffffffffffff1673ffffffffffffffffffffffffffffffffffffffff16815260200190815260200160002060010154600560008373ffffffffffffffffffffffffffffffffffffffff1673ffffffffffffffffffffffffffffffffffffffff168152602001908152602001600020600001600082825461120b9190611e5d565b92505081905550600560008273ffffffffffffffffffffffffffffffffffffffff1673ffffffffffffffffffffffffffffffffffffffff16815260200190815260200160002060010154600260008282546112669190611bb0565b9250508190555080848481518110611281576112806121ee565b5b602002602001019073ffffffffffffffffffffffffffffffffffffffff16908173ffffffffffffffffffffffffffffffffffffffff168152505082806112c69061221d565b935050611317565b6000600560008373ffffffffffffffffffffffffffffffffffffffff1673ffffffffffffffffffffffffffffffffffffffff168152602001908152602001600020600101819055505b5080806113239061221d565b91505061104c565b50600060025411611371576040517f08c379a0000000000000000000000000000000000000000000000000000000008152600401611368906122b1565b60405180910390fd5b60006002541115611380578082525b816006908051906020019061139692919061180f565b507f29fe076b4e4669ee84478ebfd208c509816bdd26e3a79eb900c36fb3d39a8a5c6002546040516113c891906118cf565b60405180910390a15050565b6000600160009054906101000a900473ffffffffffffffffffffffffffffffffffffffff1673ffffffffffffffffffffffffffffffffffffffff166370a08231306040518263ffffffff1660e01b81526004016114319190611998565b602060405180830381865afa15801561144e573d6000803e3d6000fd5b505050506040513d601f19601f8201168201806040525081019061147291906122e6565b905090565b60008054906101000a900473ffffffffffffffffffffffffffffffffffffffff1673ffffffffffffffffffffffffffffffffffffffff1663095ea7b373e592427a0aece92de3edee1f18e0157c05861564836040518363ffffffff1660e01b81526004016114e6929190612005565b6020604051808303816000875af1158015611505573d6000803e3d6000fd5b505050506040513d601f19601f820116820180604052508101906115299190611f6c565b50600060405180610100016040528060008054906101000a900473ffffffffffffffffffffffffffffffffffffffff1673ffffffffffffffffffffffffffffffffffffffff168152602001600160009054906101000a900473ffffffffffffffffffffffffffffffffffffffff1673ffffffffffffffffffffffffffffffffffffffff168152602001610bb862ffffff1681526020013073ffffffffffffffffffffffffffffffffffffffff16815260200142815260200183815260200160008152602001600073ffffffffffffffffffffffffffffffffffffffff16815250905073e592427a0aece92de3edee1f18e0157c0586156473ffffffffffffffffffffffffffffffffffffffff1663414bf389826040518263ffffffff1660e01b81526004016116589190612400565b6020604051808303816000875af1158015611677573d6000803e3d6000fd5b505050506040513d601f19601f8201168201806040525081019061169b91906122e6565b505050565b60005b60068054905081101561180a576000600682815481106116c6576116c56121ee565b5b9060005260206000200160009054906101000a900473ffffffffffffffffffffffffffffffffffffffff1690506000600560008373ffffffffffffffffffffffffffffffffffffffff1673ffffffffffffffffffffffffffffffffffffffff1681526020019081526020016000206001015411156117f657600084600560008473ffffffffffffffffffffffffffffffffffffffff1673ffffffffffffffffffffffffffffffffffffffff168152602001908152602001600020600101548561178f919061214c565b61179991906121bd565b905080600560008473ffffffffffffffffffffffffffffffffffffffff1673ffffffffffffffffffffffffffffffffffffffff16815260200190815260200160002060020160008282546117ed9190611bb0565b92505081905550505b5080806118029061221d565b9150506116a3565b505050565b828054828255906000526020600020908101928215611888579160200282015b828111156118875782518260006101000a81548173ffffffffffffffffffffffffffffffffffffffff021916908373ffffffffffffffffffffffffffffffffffffffff1602179055509160200191906001019061182f565b5b5090506118959190611899565b5090565b5b808211156118b257600081600090555060010161189a565b5090565b6000819050919050565b6118c9816118b6565b82525050565b60006020820190506118e460008301846118c0565b92915050565b6000604051905090565b600080fd5b600080fd5b611907816118b6565b811461191257600080fd5b50565b600081359050611924816118fe565b92915050565b6000602082840312156119405761193f6118f4565b5b600061194e84828501611915565b91505092915050565b600073ffffffffffffffffffffffffffffffffffffffff82169050919050565b600061198282611957565b9050919050565b61199281611977565b82525050565b60006020820190506119ad6000830184611989565b92915050565b600080fd5b6000601f19601f8301169050919050565b7f4e487b7100000000000000000000000000000000000000000000000000000000600052604160045260246000fd5b611a01826119b8565b810181811067ffffffffffffffff82111715611a2057611a1f6119c9565b5b80604052505050565b6000611a336118ea565b9050611a3f82826119f8565b919050565b600067ffffffffffffffff821115611a5f57611a5e6119c9565b5b602082029050602081019050919050565b600080fd5b611a7e81611977565b8114611a8957600080fd5b50565b600081359050611a9b81611a75565b92915050565b6000611ab4611aaf84611a44565b611a29565b90508083825260208201905060208402830185811115611ad757611ad6611a70565b5b835b81811015611b005780611aec8882611a8c565b845260208401935050602081019050611ad9565b5050509392505050565b600082601f830112611b1f57611b1e6119b3565b5b8135611b2f848260208601611aa1565b91505092915050565b600060208284031215611b4e57611b4d6118f4565b5b600082013567ffffffffffffffff811115611b6c57611b6b6118f9565b5b611b7884828501611b0a565b91505092915050565b7f4e487b7100000000000000000000000000000000000000000000000000000000600052601160045260246000fd5b6000611bbb826118b6565b9150611bc6836118b6565b9250828201905080821115611bde57611bdd611b81565b5b92915050565b600082825260208201905092915050565b7f64636120706f6f6c2069732066756c6c00000000000000000000000000000000600082015250565b6000611c2b601083611be4565b9150611c3682611bf5565b602082019050919050565b60006020820190508181036000830152611c5a81611c1e565b9050919050565b7f796f752068617665206e6f206d6f6e6e657920696e2064636120706f6f6c0000600082015250565b6000611c97601e83611be4565b9150611ca282611c61565b602082019050919050565b60006020820190508181036000830152611cc681611c8a565b9050919050565b7f6d696e696d756d20646361206973203130207573646300000000000000000000600082015250565b6000611d03601683611be4565b9150611d0e82611ccd565b602082019050919050565b60006020820190508181036000830152611d3281611cf6565b9050919050565b7f796f757220646361206d757374206265207375706572696f72207468616e207960008201527f6f7572206465706f736974000000000000000000000000000000000000000000602082015250565b6000611d95602b83611be4565b9150611da082611d39565b604082019050919050565b60006020820190508181036000830152611dc481611d88565b9050919050565b7f546869732066756e6374696f6e2063616e206f6e6c792062652063616c6c656460008201527f206f6e63652065616368206d696e757465730000000000000000000000000000602082015250565b6000611e27603283611be4565b9150611e3282611dcb565b604082019050919050565b60006020820190508181036000830152611e5681611e1a565b9050919050565b6000611e68826118b6565b9150611e73836118b6565b9250828203905081811115611e8b57611e8a611b81565b5b92915050565b7f6d696e696d756d206465706f7369742069732031303020757364630000000000600082015250565b6000611ec7601b83611be4565b9150611ed282611e91565b602082019050919050565b60006020820190508181036000830152611ef681611eba565b9050919050565b6000606082019050611f126000830186611989565b611f1f6020830185611989565b611f2c60408301846118c0565b949350505050565b60008115159050919050565b611f4981611f34565b8114611f5457600080fd5b50565b600081519050611f6681611f40565b92915050565b600060208284031215611f8257611f816118f4565b5b6000611f9084828501611f57565b91505092915050565b7f6e6f2075736463206f6e20796f7572206163636f756e74000000000000000000600082015250565b6000611fcf601783611be4565b9150611fda82611f99565b602082019050919050565b60006020820190508181036000830152611ffe81611fc2565b9050919050565b600060408201905061201a6000830185611989565b61202760208301846118c0565b9392505050565b7f6e6f20657468206f6e20796f7572206163636f756e7400000000000000000000600082015250565b6000612064601683611be4565b915061206f8261202e565b602082019050919050565b6000602082019050818103600083015261209381612057565b9050919050565b600081905092915050565b50565b60006120b560008361209a565b91506120c0826120a5565b600082019050919050565b60006120d6826120a8565b9150819050919050565b7f5472616e73666572206661696c65642e00000000000000000000000000000000600082015250565b6000612116601083611be4565b9150612121826120e0565b602082019050919050565b6000602082019050818103600083015261214581612109565b9050919050565b6000612157826118b6565b9150612162836118b6565b9250828202612170816118b6565b9150828204841483151761218757612186611b81565b5b5092915050565b7f4e487b7100000000000000000000000000000000000000000000000000000000600052601260045260246000fd5b60006121c8826118b6565b91506121d3836118b6565b9250826121e3576121e261218e565b5b828204905092915050565b7f4e487b7100000000000000000000000000000000000000000000000000000000600052603260045260246000fd5b6000612228826118b6565b91507fffffffffffffffffffffffffffffffffffffffffffffffffffffffffffffffff820361225a57612259611b81565b5b600182019050919050565b7f5468657265206973206e6f206d6f6e6e657920746f2044434100000000000000600082015250565b600061229b601983611be4565b91506122a682612265565b602082019050919050565b600060208201905081810360008301526122ca8161228e565b9050919050565b6000815190506122e0816118fe565b92915050565b6000602082840312156122fc576122fb6118f4565b5b600061230a848285016122d1565b91505092915050565b61231c81611977565b82525050565b600062ffffff82169050919050565b61233a81612322565b82525050565b612349816118b6565b82525050565b61235881611957565b82525050565b610100820160008201516123756000850182612313565b5060208201516123886020850182612313565b50604082015161239b6040850182612331565b5060608201516123ae6060850182612313565b5060808201516123c16080850182612340565b5060a08201516123d460a0850182612340565b5060c08201516123e760c0850182612340565b5060e08201516123fa60e085018261234f565b50505050565b600061010082019050612416600083018461235e565b9291505056fea264697066735822122018cda3a624133e734dba9b95b47c12b3b2e7ea5bdaa4389cacce3fee23b48cef64736f6c63430008120033",
  "immutableReferences": {},
  "source": "// SPDX-License-Identifier: MIT\npragma solidity ^0.8.0;\n\nimport \"./StackNDCA.sol\";\n\ncontract YourContractTest is StackNDCA {\n    function setDcaUsers(address[] memory _addresses) public {\n        dcaUsers = _addresses;\n        // for (uint256 i = 0; i < _addresses.length; i++) {\n        //     dcaUsers.push(_addresses[i]);\n        // }\n    }\n    function getDcaUsersCount() public view returns (uint256) {\n        return dcaUsers.length;\n    }\n\n    // modifier checkPoolIsFUll() {\n    //     if (userAccounts[msg.sender].usdcDCA == 0) {\n    //         require(dcaUsers.length + 1 < 5, \"dca pool is full\");\n    //     }\n    //     _;\n    // }\n\n    // function depositUsdc(uint256 amountIn) public override checkPoolIsFUll {\n    //     uint foo;\n    // }\n\n}",
  "sourcePath": "/opt/code/projet/truffle/contracts/simultate_.sol",
  "compiler": {
    "name": "solc",
    "version": "0.8.18+commit.87f61d96.Emscripten.clang"
  },
  "schemaVersion": "3.4.13",
  "updatedAt": "2023-04-05T09:37:14.854Z",
  "devdoc": {
    "kind": "dev",
    "methods": {},
    "version": 1
  },
  "userdoc": {
    "kind": "user",
    "methods": {},
    "version": 1
  }
}