{
  "contractName": "YourContractTest",
  "abi": [
    {
      "anonymous": false,
      "inputs": [
        {
          "indexed": true,
          "internalType": "address",
          "name": "previousOwner",
          "type": "address"
        },
        {
          "indexed": true,
          "internalType": "address",
          "name": "newOwner",
          "type": "address"
        }
      ],
      "name": "OwnershipTransferred",
      "type": "event"
    },
    {
      "anonymous": false,
      "inputs": [
        {
          "indexed": true,
          "internalType": "address",
          "name": "user",
          "type": "address"
        },
        {
          "indexed": false,
          "internalType": "uint256",
          "name": "amount",
          "type": "uint256"
        }
      ],
      "name": "UserDcaAmount",
      "type": "event"
    },
    {
      "anonymous": false,
      "inputs": [
        {
          "indexed": true,
          "internalType": "address",
          "name": "user",
          "type": "address"
        },
        {
          "indexed": false,
          "internalType": "uint256",
          "name": "amount",
          "type": "uint256"
        }
      ],
      "name": "UserDepositUsdc",
      "type": "event"
    },
    {
      "anonymous": false,
      "inputs": [
        {
          "indexed": true,
          "internalType": "address",
          "name": "user",
          "type": "address"
        },
        {
          "indexed": false,
          "internalType": "uint256",
          "name": "amount",
          "type": "uint256"
        }
      ],
      "name": "UserWithdrawEth",
      "type": "event"
    },
    {
      "anonymous": false,
      "inputs": [
        {
          "indexed": true,
          "internalType": "address",
          "name": "user",
          "type": "address"
        },
        {
          "indexed": false,
          "internalType": "uint256",
          "name": "amount",
          "type": "uint256"
        }
      ],
      "name": "UserWithdrawUsdc",
      "type": "event"
    },
    {
      "anonymous": false,
      "inputs": [
        {
          "indexed": true,
          "internalType": "address",
          "name": "user",
          "type": "address"
        },
        {
          "indexed": false,
          "internalType": "uint256",
          "name": "addStackN",
          "type": "uint256"
        },
        {
          "indexed": false,
          "internalType": "uint256",
          "name": "usdcStackAmount",
          "type": "uint256"
        },
        {
          "indexed": false,
          "internalType": "uint256",
          "name": "_usdcStackValue",
          "type": "uint256"
        }
      ],
      "name": "stackAdd",
      "type": "event"
    },
    {
      "anonymous": false,
      "inputs": [
        {
          "indexed": false,
          "internalType": "uint256",
          "name": "usdcValue",
          "type": "uint256"
        }
      ],
      "name": "usdcValueToStack",
      "type": "event"
    },
    {
      "anonymous": false,
      "inputs": [
        {
          "indexed": false,
          "internalType": "uint256",
          "name": "usdcValue",
          "type": "uint256"
        }
      ],
      "name": "usdcValueToSwap",
      "type": "event"
    },
    {
      "anonymous": false,
      "inputs": [
        {
          "indexed": false,
          "internalType": "uint256",
          "name": "wethValue",
          "type": "uint256"
        }
      ],
      "name": "wethValueSwaped",
      "type": "event"
    },
    {
      "inputs": [
        {
          "internalType": "uint256",
          "name": "amountIn",
          "type": "uint256"
        }
      ],
      "name": "dcaAmount",
      "outputs": [],
      "stateMutability": "nonpayable",
      "type": "function"
    },
    {
      "inputs": [
        {
          "internalType": "uint256",
          "name": "amountIn",
          "type": "uint256"
        }
      ],
      "name": "depositUsdc",
      "outputs": [],
      "stateMutability": "nonpayable",
      "type": "function"
    },
    {
      "inputs": [],
      "name": "getMyEthBalance",
      "outputs": [
        {
          "internalType": "uint256",
          "name": "",
          "type": "uint256"
        }
      ],
      "stateMutability": "view",
      "type": "function"
    },
    {
      "inputs": [],
      "name": "getMyStackNBalance",
      "outputs": [
        {
          "internalType": "uint256",
          "name": "",
          "type": "uint256"
        }
      ],
      "stateMutability": "view",
      "type": "function"
    },
    {
      "inputs": [],
      "name": "getMyUsdcBalance",
      "outputs": [
        {
          "internalType": "uint256",
          "name": "",
          "type": "uint256"
        }
      ],
      "stateMutability": "view",
      "type": "function"
    },
    {
      "inputs": [],
      "name": "getMyUsdcDca",
      "outputs": [
        {
          "internalType": "uint256",
          "name": "",
          "type": "uint256"
        }
      ],
      "stateMutability": "view",
      "type": "function"
    },
    {
      "inputs": [],
      "name": "getStackNContractBalance",
      "outputs": [
        {
          "internalType": "uint256",
          "name": "",
          "type": "uint256"
        }
      ],
      "stateMutability": "view",
      "type": "function"
    },
    {
      "inputs": [],
      "name": "getWethContractBalance",
      "outputs": [
        {
          "internalType": "uint256",
          "name": "",
          "type": "uint256"
        }
      ],
      "stateMutability": "view",
      "type": "function"
    },
    {
      "inputs": [],
      "name": "lastExecutionTime",
      "outputs": [
        {
          "internalType": "uint256",
          "name": "",
          "type": "uint256"
        }
      ],
      "stateMutability": "view",
      "type": "function"
    },
    {
      "inputs": [],
      "name": "makeDCA",
      "outputs": [],
      "stateMutability": "nonpayable",
      "type": "function"
    },
    {
      "inputs": [],
      "name": "owner",
      "outputs": [
        {
          "internalType": "address",
          "name": "",
          "type": "address"
        }
      ],
      "stateMutability": "view",
      "type": "function"
    },
    {
      "inputs": [],
      "name": "renounceOwnership",
      "outputs": [],
      "stateMutability": "nonpayable",
      "type": "function"
    },
    {
      "inputs": [
        {
          "internalType": "address",
          "name": "_address",
          "type": "address"
        }
      ],
      "name": "setStackNTockenAddress",
      "outputs": [],
      "stateMutability": "nonpayable",
      "type": "function"
    },
    {
      "inputs": [],
      "name": "stackNTockenSmartContractAddress",
      "outputs": [
        {
          "internalType": "address",
          "name": "",
          "type": "address"
        }
      ],
      "stateMutability": "view",
      "type": "function"
    },
    {
      "inputs": [
        {
          "internalType": "address",
          "name": "newOwner",
          "type": "address"
        }
      ],
      "name": "transferOwnership",
      "outputs": [],
      "stateMutability": "nonpayable",
      "type": "function"
    },
    {
      "inputs": [],
      "name": "usdcDcaValue",
      "outputs": [
        {
          "internalType": "uint256",
          "name": "",
          "type": "uint256"
        }
      ],
      "stateMutability": "view",
      "type": "function"
    },
    {
      "inputs": [],
      "name": "usdcSmartContractAddress",
      "outputs": [
        {
          "internalType": "address",
          "name": "",
          "type": "address"
        }
      ],
      "stateMutability": "view",
      "type": "function"
    },
    {
      "inputs": [],
      "name": "usdcStackValue",
      "outputs": [
        {
          "internalType": "uint256",
          "name": "",
          "type": "uint256"
        }
      ],
      "stateMutability": "view",
      "type": "function"
    },
    {
      "inputs": [
        {
          "internalType": "address",
          "name": "",
          "type": "address"
        }
      ],
      "name": "userAccounts",
      "outputs": [
        {
          "internalType": "uint256",
          "name": "usdcAmount",
          "type": "uint256"
        },
        {
          "internalType": "uint256",
          "name": "usdcDCA",
          "type": "uint256"
        },
        {
          "internalType": "uint256",
          "name": "ethAmount",
          "type": "uint256"
        },
        {
          "internalType": "uint256",
          "name": "stackNAmount",
          "type": "uint256"
        },
        {
          "internalType": "uint256",
          "name": "usdcStackAmount",
          "type": "uint256"
        },
        {
          "internalType": "uint256",
          "name": "previousMonthUsdcDcaAmount",
          "type": "uint256"
        }
      ],
      "stateMutability": "view",
      "type": "function"
    },
    {
      "inputs": [],
      "name": "weth9SmartContractAddress",
      "outputs": [
        {
          "internalType": "address",
          "name": "",
          "type": "address"
        }
      ],
      "stateMutability": "view",
      "type": "function"
    },
    {
      "inputs": [],
      "name": "widthdrawEth",
      "outputs": [],
      "stateMutability": "nonpayable",
      "type": "function"
    },
    {
      "inputs": [],
      "name": "widthdrawUsdc",
      "outputs": [],
      "stateMutability": "nonpayable",
      "type": "function"
    },
    {
      "stateMutability": "payable",
      "type": "receive"
    },
    {
      "inputs": [
        {
          "internalType": "address[]",
          "name": "_addresses",
          "type": "address[]"
        }
      ],
      "name": "setDcaUsers",
      "outputs": [],
      "stateMutability": "nonpayable",
      "type": "function"
    },
    {
      "inputs": [],
      "name": "getDcaUsersCount",
      "outputs": [
        {
          "internalType": "uint256",
          "name": "",
          "type": "uint256"
        }
      ],
      "stateMutability": "view",
      "type": "function"
    }
  ],
  "bytecode": "0x60806040527307865c6e87b9f70255377e024ace6630c1eaa37f600160006101000a81548173ffffffffffffffffffffffffffffffffffffffff021916908373ffffffffffffffffffffffffffffffffffffffff16021790555073b4fbf271143f4fbf7b91a5ded31805e42b2208d6600260006101000a81548173ffffffffffffffffffffffffffffffffffffffff021916908373ffffffffffffffffffffffffffffffffffffffff160217905550686c6b935b8bbd400000600455348015620000c857600080fd5b50620000e9620000dd6200010d60201b60201c565b6200011560201b60201c565b62000101426001620001d960201b620016c11760201c565b600781905550620002cc565b600033905090565b60008060009054906101000a900473ffffffffffffffffffffffffffffffffffffffff169050816000806101000a81548173ffffffffffffffffffffffffffffffffffffffff021916908373ffffffffffffffffffffffffffffffffffffffff1602179055508173ffffffffffffffffffffffffffffffffffffffff168173ffffffffffffffffffffffffffffffffffffffff167f8be0079c531659141344cd1fd0a4f28419497f9722a3daafe3b4186f6b6457e060405160405180910390a35050565b6000603c82620001ea919062000246565b83620001f7919062000291565b9050828111156200020757600080fd5b92915050565b6000819050919050565b7f4e487b7100000000000000000000000000000000000000000000000000000000600052601160045260246000fd5b600062000253826200020d565b915062000260836200020d565b925082820262000270816200020d565b915082820484148315176200028a576200028962000217565b5b5092915050565b60006200029e826200020d565b9150620002ab836200020d565b9250828203905081811115620002c657620002c562000217565b5b92915050565b6133d280620002dc6000396000f3fe60806040526004361061014f5760003560e01c806373b379bd116100b6578063d2088bb81161006f578063d2088bb814610424578063d370ff681461044f578063f16d2ac81461047a578063f2fde38b146104a3578063f34b34d9146104cc578063fcaaf7c8146104f557610156565b806373b379bd1461032257806384d235ea1461034d5780638da5cb5b146103785780639abf24db146103a3578063b0c25e29146103ce578063c634f83b146103f957610156565b8063268d308b11610108578063268d308b1461023157806336363edd1461025c5780634f011997146102735780635251d91c1461029e5780635dfba7b6146102e0578063715018a61461030b57610156565b80630709dec81461015b5780630b5583b1146101865780631dd895df146101af5780632357928e146101c657806323ac191c146101ef57806325a9416f1461021a57610156565b3661015657005b600080fd5b34801561016757600080fd5b50610170610520565b60405161017d919061258c565b60405180910390f35b34801561019257600080fd5b506101ad60048036038101906101a891906125e7565b61056a565b005b3480156101bb57600080fd5b506101c461089f565b005b3480156101d257600080fd5b506101ed60048036038101906101e891906125e7565b610aa1565b005b3480156101fb57600080fd5b50610204610cd4565b604051610211919061258c565b60405180910390f35b34801561022657600080fd5b5061022f610d77565b005b34801561023d57600080fd5b5061024661100d565b604051610253919061258c565b60405180910390f35b34801561026857600080fd5b5061027161101a565b005b34801561027f57600080fd5b5061028861135a565b6040516102959190612655565b60405180910390f35b3480156102aa57600080fd5b506102c560048036038101906102c0919061269c565b611380565b6040516102d7969594939291906126c9565b60405180910390f35b3480156102ec57600080fd5b506102f56113bc565b604051610302919061258c565b60405180910390f35b34801561031757600080fd5b50610320611406565b005b34801561032e57600080fd5b5061033761141a565b604051610344919061258c565b60405180910390f35b34801561035957600080fd5b50610362611420565b60405161036f919061258c565b60405180910390f35b34801561038457600080fd5b5061038d61146a565b60405161039a9190612655565b60405180910390f35b3480156103af57600080fd5b506103b8611493565b6040516103c5919061258c565b60405180910390f35b3480156103da57600080fd5b506103e3611536565b6040516103f0919061258c565b60405180910390f35b34801561040557600080fd5b5061040e611580565b60405161041b9190612655565b60405180910390f35b34801561043057600080fd5b506104396115a6565b604051610446919061258c565b60405180910390f35b34801561045b57600080fd5b506104646115ac565b6040516104719190612655565b60405180910390f35b34801561048657600080fd5b506104a1600480360381019061049c9190612883565b6115d2565b005b3480156104af57600080fd5b506104ca60048036038101906104c5919061269c565b6115ec565b005b3480156104d857600080fd5b506104f360048036038101906104ee919061269c565b61166f565b005b34801561050157600080fd5b5061050a6116bb565b604051610517919061258c565b60405180910390f35b6000600860003373ffffffffffffffffffffffffffffffffffffffff1673ffffffffffffffffffffffffffffffffffffffff16815260200190815260200160002060020154905090565b6000600860003373ffffffffffffffffffffffffffffffffffffffff1673ffffffffffffffffffffffffffffffffffffffff168152602001908152602001600020600101540361060957600560016009805490506105c891906128fb565b10610608576040517f08c379a00000000000000000000000000000000000000000000000000000000081526004016105ff9061298c565b60405180910390fd5b5b6000600860003373ffffffffffffffffffffffffffffffffffffffff1673ffffffffffffffffffffffffffffffffffffffff168152602001908152602001600020600001541161068e576040517f08c379a0000000000000000000000000000000000000000000000000000000008152600401610685906129f8565b60405180910390fd5b629896808110156106d4576040517f08c379a00000000000000000000000000000000000000000000000000000000081526004016106cb90612a64565b60405180910390fd5b80600860003373ffffffffffffffffffffffffffffffffffffffff1673ffffffffffffffffffffffffffffffffffffffff168152602001908152602001600020600001541015610759576040517f08c379a000000000000000000000000000000000000000000000000000000000815260040161075090612af6565b60405180910390fd5b6000600860003373ffffffffffffffffffffffffffffffffffffffff1673ffffffffffffffffffffffffffffffffffffffff1681526020019081526020016000206001015403610807576009339080600181540180825580915050600190039060005260206000200160009091909190916101000a81548173ffffffffffffffffffffffffffffffffffffffff021916908373ffffffffffffffffffffffffffffffffffffffff1602179055505b80600860003373ffffffffffffffffffffffffffffffffffffffff1673ffffffffffffffffffffffffffffffffffffffff168152602001908152602001600020600101819055503373ffffffffffffffffffffffffffffffffffffffff167f9bbb48649728751eaacdc76a015b854aedb92a2ae725b3969a25b70b6bc76b4882604051610894919061258c565b60405180910390a250565b600042905060016108b2600754836116f0565b10156108f3576040517f08c379a00000000000000000000000000000000000000000000000000000000081526004016108ea90612b88565b60405180910390fd5b80600781905550600073ffffffffffffffffffffffffffffffffffffffff16600360009054906101000a900473ffffffffffffffffffffffffffffffffffffffff1673ffffffffffffffffffffffffffffffffffffffff160361098b576040517f08c379a000000000000000000000000000000000000000000000000000000000815260040161098290612c1a565b60405180910390fd5b61099361171f565b600061099d610cd4565b90506109aa600654611d87565b806109b3610cd4565b6109bd9190612c3a565b90507f4fa6a1633b173a814e226dc5e555ac0a31a6fbb8907b1764c1d4abee012759cb816040516109ee919061258c565b60405180910390a1600360009054906101000a900473ffffffffffffffffffffffffffffffffffffffff1673ffffffffffffffffffffffffffffffffffffffff1663b45a281230686c6b935b8bbd4000006040518363ffffffff1660e01b8152600401610a5c929190612cb3565b600060405180830381600087803b158015610a7657600080fd5b505af1158015610a8a573d6000803e3d6000fd5b50505050610a9d60065460055483611fb4565b5050565b6000600860003373ffffffffffffffffffffffffffffffffffffffff1673ffffffffffffffffffffffffffffffffffffffff1681526020019081526020016000206001015403610b405760056001600980549050610aff91906128fb565b10610b3f576040517f08c379a0000000000000000000000000000000000000000000000000000000008152600401610b369061298c565b60405180910390fd5b5b6305f5e100811015610b87576040517f08c379a0000000000000000000000000000000000000000000000000000000008152600401610b7e90612d28565b60405180910390fd5b600160009054906101000a900473ffffffffffffffffffffffffffffffffffffffff1673ffffffffffffffffffffffffffffffffffffffff166323b872dd3330846040518463ffffffff1660e01b8152600401610be693929190612d48565b6020604051808303816000875af1158015610c05573d6000803e3d6000fd5b505050506040513d601f19601f82011682018060405250810190610c299190612db7565b5080600860003373ffffffffffffffffffffffffffffffffffffffff1673ffffffffffffffffffffffffffffffffffffffff1681526020019081526020016000206000016000828254610c7c91906128fb565b925050819055503373ffffffffffffffffffffffffffffffffffffffff167fe6d713e7cf01ee63bae3de793f74a52024f62b69a7c6fe60fe8a81ef622734bc82604051610cc9919061258c565b60405180910390a250565b6000600260009054906101000a900473ffffffffffffffffffffffffffffffffffffffff1673ffffffffffffffffffffffffffffffffffffffff166370a08231306040518263ffffffff1660e01b8152600401610d319190612655565b602060405180830381865afa158015610d4e573d6000803e3d6000fd5b505050506040513d601f19601f82011682018060405250810190610d729190612df9565b905090565b6000600860003373ffffffffffffffffffffffffffffffffffffffff1673ffffffffffffffffffffffffffffffffffffffff1681526020019081526020016000206000015411610dfc576040517f08c379a0000000000000000000000000000000000000000000000000000000008152600401610df390612e72565b60405180910390fd5b6000600860003373ffffffffffffffffffffffffffffffffffffffff1673ffffffffffffffffffffffffffffffffffffffff1681526020019081526020016000206000015490506000600860003373ffffffffffffffffffffffffffffffffffffffff1673ffffffffffffffffffffffffffffffffffffffff168152602001908152602001600020600001819055506000600860003373ffffffffffffffffffffffffffffffffffffffff1673ffffffffffffffffffffffffffffffffffffffff168152602001908152602001600020600101819055506000600860003373ffffffffffffffffffffffffffffffffffffffff1673ffffffffffffffffffffffffffffffffffffffff16815260200190815260200160002060030181905550600160009054906101000a900473ffffffffffffffffffffffffffffffffffffffff1673ffffffffffffffffffffffffffffffffffffffff1663a9059cbb33836040518363ffffffff1660e01b8152600401610f78929190612e92565b6020604051808303816000875af1158015610f97573d6000803e3d6000fd5b505050506040513d601f19601f82011682018060405250810190610fbb9190612db7565b503373ffffffffffffffffffffffffffffffffffffffff167f852c5c2fff2106fe8867b2b603b96079280e26847688a4da8675df2faae4191e82604051611002919061258c565b60405180910390a250565b6000600980549050905090565b6000600860003373ffffffffffffffffffffffffffffffffffffffff1673ffffffffffffffffffffffffffffffffffffffff168152602001908152602001600020600201541161109f576040517f08c379a000000000000000000000000000000000000000000000000000000000815260040161109690612f07565b60405180910390fd5b6000600860003373ffffffffffffffffffffffffffffffffffffffff1673ffffffffffffffffffffffffffffffffffffffff1681526020019081526020016000206002015490506000600860003373ffffffffffffffffffffffffffffffffffffffff1673ffffffffffffffffffffffffffffffffffffffff16815260200190815260200160002060020181905550600260009054906101000a900473ffffffffffffffffffffffffffffffffffffffff1673ffffffffffffffffffffffffffffffffffffffff1663095ea7b330836040518363ffffffff1660e01b815260040161118b929190612e92565b6020604051808303816000875af11580156111aa573d6000803e3d6000fd5b505050506040513d601f19601f820116820180604052508101906111ce9190612db7565b50600260009054906101000a900473ffffffffffffffffffffffffffffffffffffffff1673ffffffffffffffffffffffffffffffffffffffff16632e1a7d4d826040518263ffffffff1660e01b815260040161122a919061258c565b600060405180830381600087803b15801561124457600080fd5b505af1158015611258573d6000803e3d6000fd5b5050505060003373ffffffffffffffffffffffffffffffffffffffff168260405161128290612f58565b60006040518083038185875af1925050503d80600081146112bf576040519150601f19603f3d011682016040523d82523d6000602084013e6112c4565b606091505b5050905080611308576040517f08c379a00000000000000000000000000000000000000000000000000000000081526004016112ff90612fb9565b60405180910390fd5b3373ffffffffffffffffffffffffffffffffffffffff167f654c7a7e59538b4e27a577ef2208b1f7cdcaf35938c4bb6288c945261702a56f8360405161134e919061258c565b60405180910390a25050565b600260009054906101000a900473ffffffffffffffffffffffffffffffffffffffff1681565b60086020528060005260406000206000915090508060000154908060010154908060020154908060030154908060040154908060050154905086565b6000600860003373ffffffffffffffffffffffffffffffffffffffff1673ffffffffffffffffffffffffffffffffffffffff16815260200190815260200160002060030154905090565b61140e612382565b6114186000612400565b565b60075481565b6000600860003373ffffffffffffffffffffffffffffffffffffffff1673ffffffffffffffffffffffffffffffffffffffff16815260200190815260200160002060010154905090565b60008060009054906101000a900473ffffffffffffffffffffffffffffffffffffffff16905090565b6000600360009054906101000a900473ffffffffffffffffffffffffffffffffffffffff1673ffffffffffffffffffffffffffffffffffffffff166370a08231306040518263ffffffff1660e01b81526004016114f09190612655565b602060405180830381865afa15801561150d573d6000803e3d6000fd5b505050506040513d601f19601f820116820180604052508101906115319190612df9565b905090565b6000600860003373ffffffffffffffffffffffffffffffffffffffff1673ffffffffffffffffffffffffffffffffffffffff16815260200190815260200160002060000154905090565b600360009054906101000a900473ffffffffffffffffffffffffffffffffffffffff1681565b60065481565b600160009054906101000a900473ffffffffffffffffffffffffffffffffffffffff1681565b80600990805190602001906115e89291906124cc565b5050565b6115f4612382565b600073ffffffffffffffffffffffffffffffffffffffff168173ffffffffffffffffffffffffffffffffffffffff1603611663576040517f08c379a000000000000000000000000000000000000000000000000000000000815260040161165a9061304b565b60405180910390fd5b61166c81612400565b50565b611677612382565b80600360006101000a81548173ffffffffffffffffffffffffffffffffffffffff021916908373ffffffffffffffffffffffffffffffffffffffff16021790555050565b60055481565b6000603c826116d0919061306b565b836116db9190612c3a565b9050828111156116ea57600080fd5b92915050565b6000818311156116ff57600080fd5b603c838361170d9190612c3a565b61171791906130dc565b905092915050565b600060098054905067ffffffffffffffff8111156117405761173f612740565b5b60405190808252806020026020018201604052801561176e5781602001602082028036833780820191505090505b509050600080600681905550600060058190555060005b600980549050811015611ca5576000600982815481106117a8576117a761310d565b5b9060005260206000200160009054906101000a900473ffffffffffffffffffffffffffffffffffffffff1690506000600860008373ffffffffffffffffffffffffffffffffffffffff1673ffffffffffffffffffffffffffffffffffffffff16815260200190815260200160002060000154111561190857600860008273ffffffffffffffffffffffffffffffffffffffff1673ffffffffffffffffffffffffffffffffffffffff16815260200190815260200160002060040154600860008373ffffffffffffffffffffffffffffffffffffffff1673ffffffffffffffffffffffffffffffffffffffff168152602001908152602001600020600001541061190757600860008273ffffffffffffffffffffffffffffffffffffffff1673ffffffffffffffffffffffffffffffffffffffff16815260200190815260200160002060040154600560008282546118ff91906128fb565b925050819055505b5b6000600860008373ffffffffffffffffffffffffffffffffffffffff1673ffffffffffffffffffffffffffffffffffffffff168152602001908152602001600020600101541115611c9157600860008273ffffffffffffffffffffffffffffffffffffffff1673ffffffffffffffffffffffffffffffffffffffff16815260200190815260200160002060010154600860008373ffffffffffffffffffffffffffffffffffffffff1673ffffffffffffffffffffffffffffffffffffffff1681526020019081526020016000206000015410611c4757600860008273ffffffffffffffffffffffffffffffffffffffff1673ffffffffffffffffffffffffffffffffffffffff16815260200190815260200160002060010154600860008373ffffffffffffffffffffffffffffffffffffffff1673ffffffffffffffffffffffffffffffffffffffff1681526020019081526020016000206000016000828254611a729190612c3a565b92505081905550600860008273ffffffffffffffffffffffffffffffffffffffff1673ffffffffffffffffffffffffffffffffffffffff16815260200190815260200160002060040154600860008373ffffffffffffffffffffffffffffffffffffffff1673ffffffffffffffffffffffffffffffffffffffff16815260200190815260200160002060050181905550600860008273ffffffffffffffffffffffffffffffffffffffff1673ffffffffffffffffffffffffffffffffffffffff16815260200190815260200160002060000154600860008373ffffffffffffffffffffffffffffffffffffffff1673ffffffffffffffffffffffffffffffffffffffff16815260200190815260200160002060040181905550600860008273ffffffffffffffffffffffffffffffffffffffff1673ffffffffffffffffffffffffffffffffffffffff1681526020019081526020016000206001015460066000828254611bdf91906128fb565b9250508190555080848481518110611bfa57611bf961310d565b5b602002602001019073ffffffffffffffffffffffffffffffffffffffff16908173ffffffffffffffffffffffffffffffffffffffff16815250508280611c3f9061313c565b935050611c90565b6000600860008373ffffffffffffffffffffffffffffffffffffffff1673ffffffffffffffffffffffffffffffffffffffff168152602001908152602001600020600101819055505b5b508080611c9d9061313c565b915050611785565b50600060065411611ceb576040517f08c379a0000000000000000000000000000000000000000000000000000000008152600401611ce2906131d0565b60405180910390fd5b60006006541115611cfa578082525b8160099080519060200190611d109291906124cc565b507f29fe076b4e4669ee84478ebfd208c509816bdd26e3a79eb900c36fb3d39a8a5c600654604051611d42919061258c565b60405180910390a17f239f02a41ad12358651bd08e7714cf1e79c099e277ada55cb22b7e1882596e18600554604051611d7b919061258c565b60405180910390a15050565b600160009054906101000a900473ffffffffffffffffffffffffffffffffffffffff1673ffffffffffffffffffffffffffffffffffffffff1663095ea7b373e592427a0aece92de3edee1f18e0157c05861564836040518363ffffffff1660e01b8152600401611df8929190612e92565b6020604051808303816000875af1158015611e17573d6000803e3d6000fd5b505050506040513d601f19601f82011682018060405250810190611e3b9190612db7565b506000604051806101000160405280600160009054906101000a900473ffffffffffffffffffffffffffffffffffffffff1673ffffffffffffffffffffffffffffffffffffffff168152602001600260009054906101000a900473ffffffffffffffffffffffffffffffffffffffff1673ffffffffffffffffffffffffffffffffffffffff168152602001610bb862ffffff1681526020013073ffffffffffffffffffffffffffffffffffffffff16815260200142815260200183815260200160008152602001600073ffffffffffffffffffffffffffffffffffffffff16815250905073e592427a0aece92de3edee1f18e0157c0586156473ffffffffffffffffffffffffffffffffffffffff1663414bf389826040518263ffffffff1660e01b8152600401611f6c91906132dd565b6020604051808303816000875af1158015611f8b573d6000803e3d6000fd5b505050506040513d601f19601f82011682018060405250810190611faf9190612df9565b505050565b60646019600454611fc5919061306b565b611fcf91906130dc565b600860003373ffffffffffffffffffffffffffffffffffffffff1673ffffffffffffffffffffffffffffffffffffffff168152602001908152602001600020600301600082825461202091906128fb565b92505081905550600082036120a3576064604b600454612040919061306b565b61204a91906130dc565b600860003373ffffffffffffffffffffffffffffffffffffffff1673ffffffffffffffffffffffffffffffffffffffff168152602001908152602001600020600301600082825461209b91906128fb565b925050819055505b60005b60098054905081101561237c576000600982815481106120c9576120c861310d565b5b9060005260206000200160009054906101000a900473ffffffffffffffffffffffffffffffffffffffff1690506000600860008373ffffffffffffffffffffffffffffffffffffffff1673ffffffffffffffffffffffffffffffffffffffff16815260200190815260200160002060010154111561236857600085600860008473ffffffffffffffffffffffffffffffffffffffff1673ffffffffffffffffffffffffffffffffffffffff1681526020019081526020016000206001015485612192919061306b565b61219c91906130dc565b905080600860008473ffffffffffffffffffffffffffffffffffffffff1673ffffffffffffffffffffffffffffffffffffffff16815260200190815260200160002060020160008282546121f091906128fb565b92505081905550600085111561236657600085600860008573ffffffffffffffffffffffffffffffffffffffff1673ffffffffffffffffffffffffffffffffffffffff168152602001908152602001600020600501546064604b600454612257919061306b565b61226191906130dc565b61226b919061306b565b61227591906130dc565b90508273ffffffffffffffffffffffffffffffffffffffff167f3361bcfe2512918ec224a4d5ba61cbf5d4e297fd51d5da5a357fae655786c7f482600860008773ffffffffffffffffffffffffffffffffffffffff1673ffffffffffffffffffffffffffffffffffffffff1681526020019081526020016000206005015489604051612303939291906132f9565b60405180910390a280600860008573ffffffffffffffffffffffffffffffffffffffff1673ffffffffffffffffffffffffffffffffffffffff168152602001908152602001600020600301600082825461235d91906128fb565b92505081905550505b505b5080806123749061313c565b9150506120a6565b50505050565b61238a6124c4565b73ffffffffffffffffffffffffffffffffffffffff166123a861146a565b73ffffffffffffffffffffffffffffffffffffffff16146123fe576040517f08c379a00000000000000000000000000000000000000000000000000000000081526004016123f59061337c565b60405180910390fd5b565b60008060009054906101000a900473ffffffffffffffffffffffffffffffffffffffff169050816000806101000a81548173ffffffffffffffffffffffffffffffffffffffff021916908373ffffffffffffffffffffffffffffffffffffffff1602179055508173ffffffffffffffffffffffffffffffffffffffff168173ffffffffffffffffffffffffffffffffffffffff167f8be0079c531659141344cd1fd0a4f28419497f9722a3daafe3b4186f6b6457e060405160405180910390a35050565b600033905090565b828054828255906000526020600020908101928215612545579160200282015b828111156125445782518260006101000a81548173ffffffffffffffffffffffffffffffffffffffff021916908373ffffffffffffffffffffffffffffffffffffffff160217905550916020019190600101906124ec565b5b5090506125529190612556565b5090565b5b8082111561256f576000816000905550600101612557565b5090565b6000819050919050565b61258681612573565b82525050565b60006020820190506125a1600083018461257d565b92915050565b6000604051905090565b600080fd5b600080fd5b6125c481612573565b81146125cf57600080fd5b50565b6000813590506125e1816125bb565b92915050565b6000602082840312156125fd576125fc6125b1565b5b600061260b848285016125d2565b91505092915050565b600073ffffffffffffffffffffffffffffffffffffffff82169050919050565b600061263f82612614565b9050919050565b61264f81612634565b82525050565b600060208201905061266a6000830184612646565b92915050565b61267981612634565b811461268457600080fd5b50565b60008135905061269681612670565b92915050565b6000602082840312156126b2576126b16125b1565b5b60006126c084828501612687565b91505092915050565b600060c0820190506126de600083018961257d565b6126eb602083018861257d565b6126f8604083018761257d565b612705606083018661257d565b612712608083018561257d565b61271f60a083018461257d565b979650505050505050565b600080fd5b6000601f19601f8301169050919050565b7f4e487b7100000000000000000000000000000000000000000000000000000000600052604160045260246000fd5b6127788261272f565b810181811067ffffffffffffffff8211171561279757612796612740565b5b80604052505050565b60006127aa6125a7565b90506127b6828261276f565b919050565b600067ffffffffffffffff8211156127d6576127d5612740565b5b602082029050602081019050919050565b600080fd5b60006127ff6127fa846127bb565b6127a0565b90508083825260208201905060208402830185811115612822576128216127e7565b5b835b8181101561284b57806128378882612687565b845260208401935050602081019050612824565b5050509392505050565b600082601f83011261286a5761286961272a565b5b813561287a8482602086016127ec565b91505092915050565b600060208284031215612899576128986125b1565b5b600082013567ffffffffffffffff8111156128b7576128b66125b6565b5b6128c384828501612855565b91505092915050565b7f4e487b7100000000000000000000000000000000000000000000000000000000600052601160045260246000fd5b600061290682612573565b915061291183612573565b9250828201905080821115612929576129286128cc565b5b92915050565b600082825260208201905092915050565b7f64636120706f6f6c2069732066756c6c00000000000000000000000000000000600082015250565b600061297660108361292f565b915061298182612940565b602082019050919050565b600060208201905081810360008301526129a581612969565b9050919050565b7f796f752068617665206e6f206d6f6e6e657920696e2064636120706f6f6c0000600082015250565b60006129e2601e8361292f565b91506129ed826129ac565b602082019050919050565b60006020820190508181036000830152612a11816129d5565b9050919050565b7f6d696e696d756d20646361206973203130207573646300000000000000000000600082015250565b6000612a4e60168361292f565b9150612a5982612a18565b602082019050919050565b60006020820190508181036000830152612a7d81612a41565b9050919050565b7f796f757220646361206d757374206265207375706572696f72207468616e207960008201527f6f7572206465706f736974000000000000000000000000000000000000000000602082015250565b6000612ae0602b8361292f565b9150612aeb82612a84565b604082019050919050565b60006020820190508181036000830152612b0f81612ad3565b9050919050565b7f546869732066756e6374696f6e2063616e206f6e6c792062652063616c6c656460008201527f206f6e63652065616368206d696e757465730000000000000000000000000000602082015250565b6000612b7260328361292f565b9150612b7d82612b16565b604082019050919050565b60006020820190508181036000830152612ba181612b65565b9050919050565b7f737461636b4e546f636b656e536d617274436f6e74726163744164647265737360008201527f207661726961626c65206973206e6f7420736574000000000000000000000000602082015250565b6000612c0460348361292f565b9150612c0f82612ba8565b604082019050919050565b60006020820190508181036000830152612c3381612bf7565b9050919050565b6000612c4582612573565b9150612c5083612573565b9250828203905081811115612c6857612c676128cc565b5b92915050565b6000819050919050565b6000819050919050565b6000612c9d612c98612c9384612c6e565b612c78565b612573565b9050919050565b612cad81612c82565b82525050565b6000604082019050612cc86000830185612646565b612cd56020830184612ca4565b9392505050565b7f6d696e696d756d206465706f7369742069732031303020757364630000000000600082015250565b6000612d12601b8361292f565b9150612d1d82612cdc565b602082019050919050565b60006020820190508181036000830152612d4181612d05565b9050919050565b6000606082019050612d5d6000830186612646565b612d6a6020830185612646565b612d77604083018461257d565b949350505050565b60008115159050919050565b612d9481612d7f565b8114612d9f57600080fd5b50565b600081519050612db181612d8b565b92915050565b600060208284031215612dcd57612dcc6125b1565b5b6000612ddb84828501612da2565b91505092915050565b600081519050612df3816125bb565b92915050565b600060208284031215612e0f57612e0e6125b1565b5b6000612e1d84828501612de4565b91505092915050565b7f6e6f2075736463206f6e20796f7572206163636f756e74000000000000000000600082015250565b6000612e5c60178361292f565b9150612e6782612e26565b602082019050919050565b60006020820190508181036000830152612e8b81612e4f565b9050919050565b6000604082019050612ea76000830185612646565b612eb4602083018461257d565b9392505050565b7f6e6f20657468206f6e20796f7572206163636f756e7400000000000000000000600082015250565b6000612ef160168361292f565b9150612efc82612ebb565b602082019050919050565b60006020820190508181036000830152612f2081612ee4565b9050919050565b600081905092915050565b50565b6000612f42600083612f27565b9150612f4d82612f32565b600082019050919050565b6000612f6382612f35565b9150819050919050565b7f5472616e73666572206661696c65642e00000000000000000000000000000000600082015250565b6000612fa360108361292f565b9150612fae82612f6d565b602082019050919050565b60006020820190508181036000830152612fd281612f96565b9050919050565b7f4f776e61626c653a206e6577206f776e657220697320746865207a65726f206160008201527f6464726573730000000000000000000000000000000000000000000000000000602082015250565b600061303560268361292f565b915061304082612fd9565b604082019050919050565b6000602082019050818103600083015261306481613028565b9050919050565b600061307682612573565b915061308183612573565b925082820261308f81612573565b915082820484148315176130a6576130a56128cc565b5b5092915050565b7f4e487b7100000000000000000000000000000000000000000000000000000000600052601260045260246000fd5b60006130e782612573565b91506130f283612573565b925082613102576131016130ad565b5b828204905092915050565b7f4e487b7100000000000000000000000000000000000000000000000000000000600052603260045260246000fd5b600061314782612573565b91507fffffffffffffffffffffffffffffffffffffffffffffffffffffffffffffffff8203613179576131786128cc565b5b600182019050919050565b7f5468657265206973206e6f206d6f6e6e657920746f2044434100000000000000600082015250565b60006131ba60198361292f565b91506131c582613184565b602082019050919050565b600060208201905081810360008301526131e9816131ad565b9050919050565b6131f981612634565b82525050565b600062ffffff82169050919050565b613217816131ff565b82525050565b61322681612573565b82525050565b61323581612614565b82525050565b6101008201600082015161325260008501826131f0565b50602082015161326560208501826131f0565b506040820151613278604085018261320e565b50606082015161328b60608501826131f0565b50608082015161329e608085018261321d565b5060a08201516132b160a085018261321d565b5060c08201516132c460c085018261321d565b5060e08201516132d760e085018261322c565b50505050565b6000610100820190506132f3600083018461323b565b92915050565b600060608201905061330e600083018661257d565b61331b602083018561257d565b613328604083018461257d565b949350505050565b7f4f776e61626c653a2063616c6c6572206973206e6f7420746865206f776e6572600082015250565b600061336660208361292f565b915061337182613330565b602082019050919050565b6000602082019050818103600083015261339581613359565b905091905056fea26469706673582212205ed4d081591e0979ea3108ac5fb2fd0e9e75f1170190bef25828e13c856bc58264736f6c63430008120033",
  "immutableReferences": {},
  "source": "// SPDX-License-Identifier: MIT\npragma solidity ^0.8.0;\n\nimport \"./StackNDCA.sol\";\n\ncontract YourContractTest is StackNDCA {\n    function setDcaUsers(address[] memory _addresses) public {\n        dcaUsers = _addresses;\n        // for (uint256 i = 0; i < _addresses.length; i++) {\n        //     dcaUsers.push(_addresses[i]);\n        // }\n    }\n    function getDcaUsersCount() public view returns (uint256) {\n        return dcaUsers.length;\n    }\n\n    // modifier checkPoolIsFUll() {\n    //     if (userAccounts[msg.sender].usdcDCA == 0) {\n    //         require(dcaUsers.length + 1 < 5, \"dca pool is full\");\n    //     }\n    //     _;\n    // }\n\n    // function depositUsdc(uint256 amountIn) public override checkPoolIsFUll {\n    //     uint foo;\n    // }\n\n}",
  "sourcePath": "/opt/code/projet/truffle/contracts/simultate_.sol",
  "compiler": {
    "name": "solc",
    "version": "0.8.18+commit.87f61d96.Emscripten.clang"
  },
  "schemaVersion": "3.4.13",
  "updatedAt": "2023-04-08T09:54:37.328Z",
  "devdoc": {
    "kind": "dev",
    "methods": {
      "owner()": {
        "details": "Returns the address of the current owner."
      },
      "renounceOwnership()": {
        "details": "Leaves the contract without owner. It will not be possible to call `onlyOwner` functions anymore. Can only be called by the current owner. NOTE: Renouncing ownership will leave the contract without an owner, thereby removing any functionality that is only available to the owner."
      },
      "transferOwnership(address)": {
        "details": "Transfers ownership of the contract to a new account (`newOwner`). Can only be called by the current owner."
      }
    },
    "version": 1
  },
  "userdoc": {
    "kind": "user",
    "methods": {},
    "version": 1
  }
}